:100000000C945D000C94190D0C94F20C0C9485006A
:100010000C9485000C9485000C9485000C9485004C
:100020000C9485000C9485000C9485000C9485003C
:100030000C9485000C9485000C9485000C9485002C
:100040000C94A80C0C9485000C94760C0C94500C19
:100050000C9485000C9485000C9485000C9485000C
:100060000C94400D0C948500000000002400270033
:100070002A0000000000250028002B0004040404CE
:100080000404040402020202020203030303030342
:10009000010204081020408001020408102001021F
:1000A00004081020000000080002010000030407FB
:1000B00000000000000000002B1011241FBECFEF35
:1000C000D8E0DEBFCDBF12E0A0E0B1E0E8E0FCE2A6
:1000D00002C005900D92AA3CB107D9F724E0AAEC22
:1000E000B2E001C01D92AB3EB207E1F710E0CDE5F2
:1000F000D0E004C02197FE010E94F715CC35D1074E
:10010000C9F70E9441110C9402160C940000CF9282
:10011000DF92EF92FF920F931F93CF93DF936C01C7
:100120007A018B01C0E0D0E0CE15DF0589F0D8015F
:100130006D918D01D601ED91FC910190F081E02D42
:10014000C6010995892B11F47E0102C02196ECCFDE
:10015000C701DF91CF911F910F91FF90EF90DF903A
:10016000CF900895FC01538D448D252F30E0842FCE
:1001700090E0821B930B541710F0CF9608950197CF
:100180000895FC01918D828D981761F0828DDF01B9
:10019000A80FB11D5D968C91928D9F5F9F73928F7A
:1001A00090E008958FEF9FEF0895FC01918D828D6F
:1001B000981731F0828DE80FF11D858D90E008953C
:1001C0008FEF9FEF0895FC01918D228D892F90E094
:1001D000805C9F4F821B91098F73992708958EEA47
:1001E00093E00E94E30021E0892B09F420E0822FB4
:1001F0000895FC01848DDF01A80FB11DA35ABF4FE4
:100200002C91848D90E001968F739927848FA68915
:10021000B7892C93A089B1898C9180648C93938D3C
:10022000848D981306C00288F389E02D80818F7D2C
:1002300080830895EF92FF920F931F93CF93DF93E4
:10024000EC0181E0888F9B8D8C8D981305C0E88927
:10025000F989808185FD24C0F62E0B8D10E00F5F9B
:100260001F4F0F731127E02E8C8DE8120CC00FB6B4
:1002700007FCFACFE889F989808185FFF5CFCE01A7
:100280000E94F900F1CF8B8DFE01E80FF11DE35ABA
:10029000FF4FF0820B8FEA89FB898081806207C063
:1002A000EE89FF896083E889F98980818064808391
:1002B00081E090E0DF91CF911F910F91FF90EF903F
:1002C0000895CF93DF93EC01888D8823C9F0EA89E4
:1002D000FB89808185FD05C0A889B9898C9186FD3F
:1002E0000FC00FB607FCF5CF808185FFF2CFA8893C
:1002F000B9898C9185FFEDCFCE010E94F900E7CF3F
:10030000DF91CF91089580E090E0892B29F00E9441
:10031000EF0081110C9400000895089585ED8093FD
:10032000BC008091BC0084FDFCCF1092A90308950D
:1003300040913403262F30E0240F311D2132310546
:10034000DCF42091A9032430C9F4FC0180E090E0A2
:10035000861758F4309134032191DC01AE5EBC4F16
:10036000A30FB11D2C930196F3CF80913403680F36
:100370006093340380E0089581E0089582E0089559
:100380000895E091AD038091AC03E81730F4F0E0FC
:10039000EE50FD4F808190E008958FEF9FEF08951C
:1003A0009091AD038091AC03981750F4E92FF0E0E1
:1003B000EE50FD4F208130E09F5F9093AD0302C06F
:1003C0002FEF3FEFC90108958091AC0390E0209199
:1003D000AD03821B91090895CF92DF92EF92FF92B5
:1003E0000F931F93CF93DF937C01262F972F8A01C2
:1003F0008091A603882391F0C62FD72F6E01C40EDB
:10040000D51ECC15DD0571F06991D701ED91FC91F8
:100410000190F081E02DC7010995F3CF642F822F61
:100420000E949801C801DF91CF911F910F91FF9019
:10043000EF90DF90CF900895CF93DF931F92CDB7C9
:10044000DEB769832091A6032223D1F02091AA036D
:10045000203240F021E030E0FC013383228380E051
:1004600090E015C08091AB03E82FF0E0EA57FC4F15
:10047000998190838F5F8093AB038093AA0305C01B
:1004800061E0CE0101960E94980181E090E00F901A
:10049000DF91CF910895089580E090E00895089548
:1004A000EF92FF920F931F93CF93DF93CDB7DEB7F9
:1004B0002A970FB6F894DEBF0FBECDBF2A960FB6AF
:1004C000F894DEBF0FBECDBFDF91CF911F910F918A
:1004D000FF90EF9008956115710511F0FB010994EB
:1004E000089581E0809382040895FC014085518540
:1004F0008081918124813581B9012817390708F459
:10050000BC0164177507E8F08217930708F49C0193
:1005100042175307B0F0428553858281938126812B
:100520003781B9012817390708F4BC01641775072A
:1005300040F08217930708F49C0181E042175307AB
:1005400008F480E008954F925F926F927F928F92AD
:100550009F92AF92BF92CF92DF92EF92FF92CF9392
:10056000DF93EC016E817F8180E090E00E94731444
:100570006B017C016C817D8180E090E00E947314AE
:100580002B013C016A817B8180E090E00E94731422
:100590009B01AC01C701B6010E9459134B015C01DC
:1005A0006885798580E090E00E947314A301920130
:1005B0000E9459139B01AC01C501B4010E942A1588
:1005C0004B015C016881798180E090E00E947314A6
:1005D0009B01AC01C301B2010E9459132B013C01E4
:1005E0006A857B8580E090E00E947314A7019601E4
:1005F0000E9459139B01AC01C301B2010E942A154C
:100600009B01AC01C501B4010E9459136B017C012F
:1006100020E030E0A9010E94C613882361F020E0A9
:1006200030E0A901C701B6010E942515181634F063
:1006300080E090E005C081E090E002C082E090E0C0
:10064000DF91CF91FF90EF90DF90CF90BF90AF9070
:100650009F908F907F906F905F904F900895AF9292
:10066000BF92CF92DF92EF92FF920F931F93CF939F
:10067000DF93CDB7DEB7E8970FB6F894DEBF0FBEB5
:10068000CDBF09AB1AAB2BAB3CAB4DAB5EAB6FAB8D
:1006900078AFFC01C080D180E280F38084819581B5
:1006A000A681B78109A91AA92BA93CA9CDA2DEA2CE
:1006B000EFA2F8A689A79AA7ABA7BCA70DA71EA76C
:1006C0002FA738AB4DA95EA96FA978ADC98EDA8E78
:1006D000EB8EFC8E8D8F9E8FAF8FB8A349A35AA34C
:1006E0006BA37CA30D871E872F87388B498B5A8B72
:1006F0006B8B7C8BCD8ADE8AEF8AF88E09831A8316
:100700002B833C834D835E836F83788789879A87A9
:10071000AB87BC87CE0185960E94A3025C01CE0107
:1007200049960E94A3027C01CE010D960E94A3026D
:100730006C01CE0101960E94A3028C01AE14BF048D
:1007400019F0C816D90651F4AA94AB2849F4CE0181
:1007500085960E94750281111EC002C081E01BC0F7
:10076000CA94CD2831F4CE010D960E9475028111F4
:1007700012C0EA94EF2831F4CE0149960E94750226
:10078000811109C00130110529F4CE0101960E94A2
:10079000750201C080E0E8960FB6F894DEBF0FBE88
:1007A000CDBFDF91CF911F910F91FF90EF90DF9020
:1007B000CF90BF90AF9008952F923F924F925F924B
:1007C0006F927F928F929F92AF92BF92CF92DF9261
:1007D000EF92FF920F931F93CF93DF93CDB7DEB7C6
:1007E00060970FB6F894DEBF0FBECDBF4A013B0144
:1007F000FC01E480F580F701208131814280538043
:10080000FC01228033806701F7018201D901AA240B
:10081000A394B12CA214B304C8F484819581281741
:10082000390708F49C018415950508F42C0186818C
:100830009781A817B90708F4DC018017910708F41D
:100840008C018FEFA81AB80A3496E4CF841495046B
:1008500008F46EC02815390508F46AC060167106E0
:1008600008F466C0A615B70508F462C05A87498720
:100870007C876B872815390508F49A013E872D87F8
:10088000788B6F87A12CB12C912CE1E02E1A3108C6
:1008900088248394A214B30428F5FFEFAF1ABF0A8B
:1008A000F60141915191619171916F018081318186
:1008B00022819381042F49835A836B837C83482F41
:1008C0008D833E832F8398871A812B813C815E81A3
:1008D0006F81792FCE0109960E942F038823D1F2D0
:1008E0009824D8CFD92C220C331C220C331CF701AE
:1008F000E20DF31D9081718162814381F701808156
:10090000518132812381092F4C83482F3F832887CF
:10091000172F262F3C816F817885CE0109960E9482
:100920002F03882311F081E0D8268D2D817001C01E
:1009300080E060960FB6F894DEBF0FBECDBFDF91AA
:10094000CF911F910F91FF90EF90DF90CF90BF90CC
:10095000AF909F908F907F906F905F904F903F905F
:100960002F9008954F925F926F927F928F929F92F5
:10097000AF92BF92CF92DF92EF92FF920F931F93AD
:10098000CF93DF93CDB7DEB72A970FB6F894DEBFCB
:100990000FBECDBF6C01E982FA820B831C832D83CD
:1009A0003E834F83588769877A87ED80FE8000E019
:1009B00010E05C018AE0A80EB11C8C810817F8F4E5
:1009C0004701E8E00E9F800C911C1124F401608126
:1009D0007181828193810E9444142B01F40164810E
:1009E0007581868197810E9444143B01B301A20165
:1009F000C5010E94DC03811111E00F5FDECFF6011B
:100A00008489811107C0112329F066817781C6018D
:100A10000E946B02F6018489882339F0111105C008
:100A200060857185C6010E946B02F601148B2A96BF
:100A30000FB6F894DEBF0FBECDBFDF91CF911F91EF
:100A40000F91FF90EF90DF90CF90BF90AF909F906D
:100A50008F907F906F905F904F9008952F923F926C
:100A60004F925F926F927F928F929F92AF92BF92BE
:100A7000CF92DF92EF92FF920F931F93CF93DF936A
:100A8000CDB7DEB7E3970FB6F894DEBF0FBECDBF8C
:100A90008C01FC0187819091A9039111FCCF91E019
:100AA0009093A9039093A8032FEF209385031092AE
:100AB00084032EE120938303909362039091620359
:100AC000880F892B809362038091A703813061F4A2
:100AD0001092A703809162038093BB008091BC00B9
:100AE00083FDF8CF85EC01C085EE8093BC0080913A
:100AF000A9038130E1F3809184038F3118F4609170
:100B0000840301C06FE183E693E022EF32E05901F4
:100B10007A2D721B761738F4FC017191CF01F50123
:100B200071935F01F5CF1092AD036093AC036F3109
:100B300009F0A5C08FB7F89480905E0390905F0392
:100B4000A0906003B090610388AA99AAAAAABBAA40
:100B50008FBF20E0F80185819681DC01ED91FC9149
:100B60000084F185E02D2FA709952FA5892BD9F0B9
:100B700031E0320FD80115968D919C911697DC01CA
:100B8000ED91FC910284F385E02D2FA73EA70995F6
:100B90002FA5E1E0F0E0EC0FFD1FE20FF11D8083D7
:100BA0003EA5232FD7CFAB81AF704A8150E0AA2357
:100BB00009F468C08C818F70482E512C542C442429
:100BC0008D81482A8E818F7090E0982F88272F8101
:100BD0001C01222AA13009F455C08A858F70682E25
:100BE000712C762C66248B85682A8C858F70C82E94
:100BF000D12CDC2CCC248D85C82AA23009F442C02B
:100C000088898F70E82EF12CFE2CEE248989E82A41
:100C10008A898F7090E0982F88272B894C01822A2F
:100C200099A288A2A33071F18E898F7090E0982FDD
:100C300088272F895C01A22ABBA2AAA2888D8F7067
:100C400090E0982F8827298DBC01622B7DA36CA38F
:100C5000A430C1F08C8D8F7090E0982F88272D8D57
:100C60004C01822A99A688A68E8D8F7090E0982FCD
:100C700088272F8D5C01A22ABFA2AEA203C081E00B
:100C800090E002C080E090E0009709F0F5C0F80124
:100C900017AA2FB7F89480905E0390905F03A090FE
:100CA0006003B09061032FBF82AA93AAA4AAB5AA39
:100CB0002789A21342C0208D318D42165306E9F5D3
:100CC000228D338D22163306C1F5248D358D6216A3
:100CD000730699F5268D378DC216D30671F520A1BE
:100CE00031A1E216F30649F522A133A188A099A00B
:100CF0008216930611F524A135A1AAA0BBA0A216C5
:100D0000B306D9F426A137A16CA17DA162177307A0
:100D1000A1F420A531A588A499A48216930669F4AC
:100D200022A533A5AEA0BFA0A216B30631F424A518
:100D300035A54217530709F49FC0F80162857385F2
:100D40006115710509F46BC0F80120893189232BE5
:100D500009F465C02489222309F48BC0A484B584D6
:100D600095012F5F3F4F35872487BBE1BA9D9001E6
:100D7000BB9D300D1124FB01E20FF31FA0835282B3
:100D800041823482238276826582D086C782F2864F
:100D9000E18688A099A094868386AAA0BBA0B68687
:100DA000A5862CA13DA1308B278768A579A5728BDC
:100DB000618B8EA09FA0948A838A568B458B28A92D
:100DC00039A94AA95BA9278B308F418F528F21E027
:100DD000D80155962C93559752962D913C91539747
:100DE0002F5F3F4F53963C932E9352971C964D91F5
:100DF0005C911D9750962D913C9151974217530746
:100E000020F01D961C921E921C97F8014485558572
:100E1000268537854217530761F5148A2AC0F801E1
:100E2000A78B518E408E338E228E758E648ED78E18
:100E3000C68EF1A2E0A288A099A093A282A2AAA045
:100E4000BBA0B5A2A4A22CA13DA137A326A368A54F
:100E500079A571A760A78EA09FA093A682A655A78B
:100E600044A728A939A94AA95BA926A737A740AB57
:100E700051AB21E0F80126ABE3960FB6F894DEBF44
:100E80000FBECDBFDF91CF911F910F91FF90EF90DB
:100E9000DF90CF90BF90AF909F908F907F906F909A
:100EA0005F904F903F902F900895CF93DF93DC0198
:100EB0001296ED91FC911397309779F0EC0187A988
:100EC000811104C083819481892B19F0CF010E9484
:100ED0002E05EA81FB8186A901C080E0DF91CF91D8
:100EE00008952F923F924F925F926F927F928F92CE
:100EF0009F92AF92BF92CF92DF92EF92FF920F93A9
:100F00001F93CF93DF93CDB7DEB7A5970FB6F894B5
:100F1000DEBF0FBECDBF8C01DC0111961C92119774
:100F200013961C92FC01168217821086118681E0AE
:100F3000808385E082838AEC92E095838483DB0161
:100F400012968D919C911397FC01C284D384C11495
:100F5000D10409F468C0608971896115710509F4CB
:100F600062C02589222309F45EC0A685B7857D016C
:100F7000FFEFEF1AFF0AFC01F786E6862BE12A9FB6
:100F8000A0012B9F500D1124F601E40FF51FDE0187
:100F9000119601900D922A95E1F7E616F70628F0D2
:100FA000DC011F961C921E921E97FC0146855785F8
:100FB000248535854217530709F4158ADC015296BA
:100FC0002D913C915397A9014150510953965C933F
:100FD0004E935297232B11F4D6961C9221E0FC01DC
:100FE000248B29814A815B8159A348A34C815D816F
:100FF0005F8F4E8F4E815F815BA34AA348855985E1
:101000005DA34CA3CA84DB84EC84FD848E849F841E
:10101000A888B9886A897B896C887D88288C398CF6
:101020004A8C5B8C3DC0DC01D6961C92D6975796B5
:101030002C91579758964D915C91599759A348A375
:101040005A964D915C915B975F8F4E8F5C964D9158
:101050005C915D975BA34AA35E964D915C915F970F
:101060005DA34CA39096CD90DC9091979296ED90D5
:10107000FC90939794968D909C9095979696AD90B2
:10108000BC90979798966D917C9199979A966D9050
:101090007C909B979E962D903D904D905C90D19723
:1010A000D80113962C93233009F44AC038F4213028
:1010B00009F484C0223009F45EC0A0C0243019F1C4
:1010C000253009F09BC0F8010480F581E02DFD8FEB
:1010D000EC8F072E000C880B990B0E947514AC8DB9
:1010E000BD8D90966D937D938D939C939397B30153
:1010F000770C880B990B0E947514EC8DFD8D64A301
:1011000075A386A397A3D80114966D907C9015972C
:10111000B401990C880B990B0E947514F301608F30
:10112000718F828F938FB501BB0C880B990B0E9436
:101130007514D3015C966D937D938D939C935F970B
:10114000F801A480B580B601DD0C880B990B0E94D4
:101150007514D50150966D937D938D939C93539701
:10116000B701FF0C880B990B0E947514F501648B75
:10117000758B868B978BD8011496ED90FC90159704
:101180002AA13BA1B901330F880B990B0E9475145A
:10119000D70118966D937D938D939C931B972CA1EB
:1011A0003DA1B901330F880B990B0E947514D7012B
:1011B0001C966D937D938D939C931F97F801E4800B
:1011C000F58028A139A1B901330F880B990B0E9432
:1011D0007514D7016D937D938D939C9313972E8DEA
:1011E0003F8DB901330F880B990B0E947514D701FD
:1011F00014966D937D938D939C931797F801268297
:10120000378240865186C801A5960FB6F894DEBF96
:101210000FBECDBFDF91CF911F910F91FF90EF9047
:10122000DF90CF90BF90AF909F908F907F906F9006
:101230005F904F903F902F90089580EA91E00C943A
:10124000B60E8EEA91E00C94B60E8FEB91E00C9402
:10125000B60E81ED91E00C94B60E82EE91E00C9406
:10126000B60E2F923F924F925F926F927F928F9223
:101270009F92AF92BF92CF92DF92EF92FF920F9325
:101280001F93CF93DF93CDB7DEB76E970FB6F89469
:10129000DEBF0FBECDBF1C01E982FA820B831C8327
:1012A0002D833E834F83588769877A87DC011896A0
:1012B0000D90BC91A02DBC87AB87C12CD12C00E038
:1012C00010E0812C912C5401240135018B859C85E3
:1012D0000817190749F1F101E284F384EC0CFD1CB5
:1012E000D7016D917C9180E090E00E9473149B0186
:1012F000AC01C301B2010E945A132B013C01F7015A
:101300006281738180E090E00E9473149B01AC01C4
:10131000C501B4010E945A134B015C010F5F1F4FBE
:10132000F4E0CF0ED11CD2CFB80180E090E00E9453
:1013300073146B017C019B01AC01C301B2010E94DB
:10134000CB132B013C01A7019601C501B4010E94FA
:10135000CB134B015C0120E030E0A901C301B201D5
:101360000E94251520E030E040E05FE387FD05C0E6
:10137000C301B2010E945A1304C0C301B2010E940A
:1013800059130E943D147B0120E030E0A901C50102
:10139000B4010E94251520E030E040E05FE387FDC6
:1013A00005C0C501B4010E945A1304C0C501B401AF
:1013B0000E9459130E943D14D1015896FC92EE925E
:1013C00057975A967C936E935997BC81BE8BED814B
:1013D000FE81FC87EB87BB2309F45EC1B70180E087
:1013E00090E00E9473146A8B7B8B8C8B9D8BAB85FA
:1013F000BC858D909D90AD90BC9013971496CD9028
:10140000DD90ED90FC9017979B01AC01C501B401F4
:101410000E9459132B013C0120E030E0A901C701D3
:10142000B6010E9459136D877E878F87988BA30121
:101430009201C301B2010E942A152B013C012D85A6
:101440003E854F855889CA01B9010E942A159B0122
:10145000AC01C301B2010E945A130E949D156B8F0B
:101460007C8F8D8F9E8F20E030E0A901C501B401F3
:101470000E94251520E030E040E05FE387FD05C0D5
:10148000C501B4010E945A1304C0C501B4010E94F1
:1014900059130E943D147E876D8720E030E0A9013A
:1014A000C701B6010E94251520E030E040E05FE36F
:1014B00087FD05C0C701B6010E945A1304C0C701C9
:1014C000B6010E9459130E943D148B01B1E0B98B03
:1014D0009989AE899A1709F47BC0EB85FC85C08495
:1014E000D184E284F38484849584A684B7842A8991
:1014F0003B894C895D89C701B6010E9459132B01B4
:101500003C0120E030E0A901C501B4010E9459135B
:101510006F8B788F898F9A8FA3019201C301B201DB
:101520000E942A152B013C012F89388D498D5A8D37
:10153000CA01B9010E942A159B01AC01C301B20185
:101540000E945A130E949D152B8D3C8D4D8D5E8DF2
:101550000E94C61387FF33C020E030E0A901C70115
:10156000B6010E94251520E030E040E05FE387FDF2
:1015700005C0C701B6010E945A1304C0C701B601D5
:101580000E9459130E943D147E876D8720E030E051
:10159000A901C501B4010E94251520E030E040E01A
:1015A0005FE387FD05C0C501B4010E945A1304C062
:1015B000C501B4010E9459130E943D148B01F989A1
:1015C000FF5FF98B8B859C8508969C878B8780CFE6
:1015D0004D855E85B801C10106960E94DC03F101CC
:1015E0009089992309F445C0882309F45AC0ED85F0
:1015F000FE85AF0160E070E0D10157968D919C911E
:101600005897481B590B610971096801E12CF12CAD
:1016100059968D919C915A97C81AD90AE108F108F8
:1016200018960D911C91199720E030E080E090E031
:1016300080179107B9F0D1011A96ED91FC911B9793
:10164000E20FF31FA081B181A40FB51FB183A08366
:10165000A281B381AC0DBD1DB383A28301962C5F23
:101660003F4FE6CFF10165897689C1010E946B0287
:1016700002C08823F1F0D10150968C9150978111CE
:1016800007C051966D917C915297C1010E946B02E7
:1016900081E0F101808B0FC0D10150968C9188239D
:1016A00041F0D10153966D917C915497C1010E94F4
:1016B0006B02F101108A6E960FB6F894DEBF0FBE72
:1016C000CDBFDF91CF911F910F91FF90EF90DF90F1
:1016D000CF90BF90AF909F908F907F906F905F90D2
:1016E0004F903F902F9008956115710579F0FB019F
:1016F00001900020E9F73197AF01461B570BDC0141
:10170000ED91FC910280F381E02D099480E090E05E
:1017100008958F929F92AF92BF92DF92EF92FF92C5
:101720000F931F93CF93DF93CDB7DEB72A970FB6F2
:10173000F894DEBF0FBECDBFE982FA820B83D12EB3
:101740001C832D833E834F83588769877A8759018D
:10175000FC0126813781232B09F490C08C0162EFB4
:1017600071E08EEA93E00E94291064E072E0F801D3
:10177000868197810E9429104F81588569857A85D5
:101780002AE0F801868197810E94F60E65E372E0F7
:10179000F801868197810E942910D11018C061E15B
:1017A00072E0F801868197812A960FB6F894DEBF21
:1017B0000FBECDBFDF91CF911F910F91FF90EF90A2
:1017C000DF90BF90AF909F908F900C94740B64E16A
:1017D00072E0F801868197810E94291066E272E02A
:1017E000F801868197810E9429107501812C912C26
:1017F00054018D14A0F66CE272E0F80186819781A5
:101800000E9429102AE0B501A401F8018681978180
:101810000E94F60E6FE272E0F801868197810E94C5
:101820002910F701408151816281738122E0F80122
:10183000868197810E943F0F64E372E0F801868100
:1018400097810E942910F701448155816681778133
:1018500022E0F801868197810E943F0F63E372E0E6
:10186000F801868197810E942910FFEF8F1A9F0A45
:10187000AF0ABF0A88E0E80EF11CBBCF2A960FB66C
:10188000F894DEBF0FBECDBFDF91CF911F910F91B6
:10189000FF90EF90DF90BF90AF909F908F90089552
:1018A0001F920F920FB60F9211242F933F934F93D5
:1018B0005F936F937F938F939F93AF93BF93EF93B8
:1018C000FF938EEA93E00E94F900FF91EF91BF91A0
:1018D000AF919F918F917F916F915F914F913F91C8
:1018E0002F910F900FBE0F901F9018951F920F927F
:1018F0000FB60F9211242F938F939F93EF93FF9323
:10190000E091BE03F091BF038081E091C403F091A8
:10191000C50382FD12C090818091C7038F5F8F73D2
:101920002091C803821751F0E091C703F0E0E2551F
:10193000FC4F958F8093C70301C08081FF91EF9189
:101940009F918F912F910F900FBE0F901F90189520
:101950001F920F920FB60F9211242F933F938F93E4
:101960009F93AF93BF9380915E0390915F03A0918B
:101970006003B091610330915D0323E0230F2D37A5
:1019800020F40196A11DB11D05C026E8230F029683
:10199000A11DB11D20935D0380935E0390935F03AF
:1019A000A0936003B09361038091590390915A030F
:1019B000A0915B03B0915C030196A11DB11D8093C2
:1019C000590390935A03A0935B03B0935C03BF91B8
:1019D000AF919F918F913F912F910F900FBE0F90DC
:1019E0001F9018951F920F920FB60F9211242F93EC
:1019F0003F934F935F936F937F938F939F93AF9397
:101A0000BF93EF93FF93E0910201F09103010995D9
:101A1000FF91EF91BF91AF919F918F917F916F91C6
:101A20005F914F913F912F910F900FBE0F901F909C
:101A300018951F920F920FB60F9211242F933F9378
:101A40004F935F936F937F938F939F93AF93BF93C6
:101A5000EF93FF93E0910001F09101010995FF914F
:101A6000EF91BF91AF919F918F917F916F915F9116
:101A70004F913F912F910F900FBE0F901F9018958F
:101A80001F920F920FB60F9211242F933F934F93F3
:101A90005F936F937F938F939F93AF93BF93EF93D6
:101AA000FF938091B900887F803609F49CC068F567
:101AB000883209F45BC090F4803109F454C038F4E2
:101AC000882309F4F6C0883009F44DC0F6C0883187
:101AD00009F44CC0803209F45DC0EFC0803409F4D1
:101AE00068C048F4803309F455C0883309F0E5C074
:101AF00080938503D8C0803509F44FC0883509F438
:101B00005DC0883409F0D9C0D6C0883909F4C7C08F
:101B1000A8F4883709F467C038F4883609F463C03C
:101B2000803709F460C0C9C0883809F4B8C080396A
:101B300009F45FC0803809F0C0C05BC0803B09F485
:101B400086C038F4803A09F466C0883A09F47FC048
:101B5000B4C0803C09F4A7C0883C09F4A4C0883B09
:101B600009F48AC0AAC08091620310C090918403D6
:101B700080918303981770F5E091840381E08E0FC4
:101B800080938403F0E0ED59FC4F80818093BB008B
:101B900085EC86C0809385038EC0E091840381E04C
:101BA0008E0F809384038091BB00F0E0ED59FC4FD1
:101BB000808390918403809183036EC0E0918403BD
:101BC00081E08E0F809384038091BB00F0E0ED599B
:101BD000FC4F80838091A80381116DC081E08093C8
:101BE000A70384EA61C083E08093A903109258039D
:101BF000CFCF80915803803208F051C0E091580354
:101C000081E08E0F809358038091BB00F0E0E85C88
:101C1000FC4F8083BDCF85EC8093BC001092A9035C
:101C200080915803803230F4E0915803F0E0E85C92
:101C3000FC4F10826091580370E0E0913603F09100
:101C4000370388E393E009951092580336C084E087
:101C50008093A9031092350310923403E09132036C
:101C6000F0913303099580913403811105C081E01F
:101C70008093340310921203E091350381E08E0FBC
:101C800080933503F0E0EE5EFC4F80818093BB00D3
:101C90009091350380913403981708F479CF85E843
:101CA0008093BC000AC085EC8093BC001092A9030D
:101CB00004C0109285030E948E01FF91EF91BF91A5
:101CC000AF919F918F917F916F915F914F913F91D4
:101CD0002F910F900FBE0F901F90189590E0FC0170
:101CE000EC55FF4F2491FC01E057FF4F3491FC016C
:101CF000E458FF4FE491EE23B1F1222339F1233070
:101D000091F038F42130A9F0223001F584B58F7DAF
:101D100012C0273091F02830A1F02430B9F480911E
:101D200080008F7D03C0809180008F77809380003A
:101D30000DC084B58F7784BD09C08091B0008F77C6
:101D400003C08091B0008F7D8093B000F0E0EE0F73
:101D5000FF1FEE58FF4FA591B4918FB7F894EC9107
:101D60003E2B3C938FBF08950E94FD15CF93DF93C8
:101D7000BC018EEA93E00E94740BEC0161E172E019
:101D80008EEA93E00E94740B8C0F9D1FDF91CF9120
:101D90000895CF93DF93EC0187E392E00E94B60EA3
:101DA000209709F189E492E00E94B60E8C819D8112
:101DB000892BC9F48A819B81892BA9F4E091E204E3
:101DC000F091E304309729F4D093E304C093E20444
:101DD0000AC084819581009711F0FC01FACFD58368
:101DE000C4831D821C82DF91CF9108954F925F9230
:101DF0006F927F92EF92FF920F931F93CF93DF9397
:101E0000CDB7DEB7A1970FB6F894DEBF0FBECDBF3A
:101E10007C01FA01CB0119A2223008F42AE08E01DC
:101E20000F5D1F4F422E512C612C712CBF01A3015D
:101E300092010E943713F901CA01015011096A3059
:101E400014F4605D01C0695CD8016C93232B242BD2
:101E5000252B61F7B801C7010E94740BA1960FB63C
:101E6000F894DEBF0FBECDBFDF91CF911F910F91D0
:101E7000FF90EF907F906F905F904F9008954F92FA
:101E80005F926F927F928F929F92AF92BF92CF920A
:101E9000DF92EF92FF92CF93DF93EC016A017B0117
:101EA000B22E9A01AB01C701B6010E94DD1588234D
:101EB00019F06EE672E027C026013701E89477F842
:101EC0002FEF3FEF4FE75FE7C301B2010E94DD153F
:101ED00081110DC02FEF3FEF4FE75FE7C301B20164
:101EE0000E94C61318161CF462E772E00CC02FEFB4
:101EF0003FEF4FE75FE4C701B6010E9425151816B2
:101F00009CF466E772E0CE01DF91CF91FF90EF90F5
:101F1000DF90CF90BF90AF909F908F907F906F9009
:101F20005F904F900C94740B2FEF3FEF4FE75FECF7
:101F3000C701B6010E94C61387FDE3CF20E030E061
:101F4000A901C701B6010E94C61387FF0EC0E88130
:101F5000F9810190F081E02D6DE2CE0109954C01EF
:101F6000F7FAF094F7F8F09402C0812C912CA12C90
:101F700060E070E080E09FE3AB1441F020E030E0EF
:101F800040E251E40E94CB13A394F6CF9B01AC0135
:101F9000C701B6010E945A132B013C010E94441450
:101FA0006B017C010E9473149B01AC01C301B2015F
:101FB0000E9459132B013C012AE0B701A601CE0172
:101FC0000E94F60E7C01E80CF91CBB2051F0E88160
:101FD000F9810190F081E02D6EE2CE010995E80EC5
:101FE000F91EDB2CDD2029F120E030E040E251E455
:101FF000C301B2010E942A152B013C010E94441426
:102000004B01A12CB12C2AE0B501A401CE010E9404
:10201000F60EE80EF91EC501B4010E9473149B016F
:10202000AC01C301B2010E9459132B013C01DA94A7
:10203000D9CFC701DF91CF91FF90EF90DF90CF9084
:10204000BF90AF909F908F907F906F905F904F90D8
:1020500008950C94740BAEEAB3E013961C921E9292
:10206000129748EE53E060E070E014964D935D9354
:102070006D937C93179788E291E011969C938E93D1
:1020800085EC90E01D969C938E931C9784EC90E0D9
:102090001F969C938E931E9780EC90E051969C9394
:1020A0008E93509781EC90E053969C938E93529729
:1020B00082EC90E055969C938E93549786EC90E03A
:1020C00057969C938E93569759961C9259975A9669
:1020D0001C925A975B961C925B975C961C925C973D
:1020E000E4E8F4E0138212824483558366837783A5
:1020F0008AE391E091838083E7EEF4E08AE691E061
:102100009183808313821282EBE4F4E0128281E0F7
:1021100090E0948383831682158288E390E0908711
:1021200087838FEF8187138612861586148617861C
:102130001686118A108A138A128A148A158A168AB8
:1021400016AA17AA12AA13AA14AA15AA178A118ED8
:10215000108E138E128E158E148E178E168E11A25F
:1021600010A213A212A215A214A217A216A211A6BF
:1021700010A613A612A615A614A616A617A610AA90
:1021800011AA84E691E091838083E2EEF4E011826B
:102190001082138212821482E8EDF4E022E731E02B
:1021A0003183208344E151E05583448384E090E00F
:1021B000938382831682178210861186E3ECF4E003
:1021C00013821282158214826EE571E0718360833E
:1021D00033872287108A118A128A138A6DE279E086
:1021E0007783668369E279E071876087148A9587CF
:1021F000848757874687E9EBF4E03183208344E006
:1022000051E055834483938382831682178210861C
:102210001186EEE9F4E0138212821582148268E5D9
:1022200071E0718360833783268314861586168652
:10223000178625E239E0328B218B21E239E0348B9D
:10224000238B2DE139E0368B258B108A918780878F
:1022500053874287E8E9F4E01382128215821482E0
:1022600082E591E091838083E0E9F4E013821282B9
:10227000158214828CE491E091838083B783A683D6
:102280000895CF93DF93CDB7DEB72A970FB6F894B2
:10229000DEBF0FBECDBF789484B5826084BD84B5A7
:1022A000816084BD85B5826085BD85B5816085BD51
:1022B00080916E00816080936E0010928100809109
:1022C0008100826080938100809181008160809391
:1022D0008100809180008160809380008091B100B6
:1022E00084608093B1008091B00081608093B000E1
:1022F00080917A00846080937A0080917A00826075
:1023000080937A0080917A00816080937A00809136
:102310007A00806880937A001092C100E091BE0339
:10232000F091BF0312E01083E091BA03F091BB0378
:102330001082E091BC03F091BD0380E18083109294
:10234000C603E091C203F091C30386E08083E0916D
:10235000C003F091C103808180618083E091C0035C
:10236000F091C103808188608083E091C003F09187
:10237000C103808180688083E091C003F091C10334
:1023800080818F7D80838AE792E00E94B60E81E093
:1023900080934D041093540410924F0410924E04F5
:1023A000E2E9F0E02491EEE7F0E084918823C9F0BF
:1023B00090E0880F991FFC01E859FF4F4591549117
:1023C000FC01EE58FF4FA591B4919FB7F894FA0124
:1023D00080812095822380838C91E22FE823EC93E7
:1023E0009FBF80915404823019F08330B1F435C11D
:1023F00080E0E82FF0E0EE0FFF1FE050FF4F21E7F5
:1024000032E031832083813009F429C18091690051
:102410008C7F826080936900E89A84E894E09093CE
:102420005104809350041092AD031092AC031092AB
:10243000AB031092AA031092A90311E01093A80312
:102440001092A70382E10E946E0E83E10E946E0E3D
:102450008091B9008E7F8093B9008091B9008D7F03
:102460008093B90088E48093B80085E48093BC0031
:10247000809152041093A603809383041092AB03BF
:102480001092AA038091500490915104DC01ED91C7
:10249000FC910190F081E02D60E00995809150045D
:1024A00090915104DC01ED91FC910190F081E02DBF
:1024B00060E00995209152049091AA0380918304D1
:1024C000913208F045C03091A9033111FCCF32E0C0
:1024D0003093A9032093A8032FEF20938503109234
:1024E000840390938303A6E8B3E043E653E0FA0144
:1024F0002E2F241B291718F42D912193F9CF109218
:10250000620390916203880F892B8093620380910C
:10251000A703813061F41092A70380916203809336
:10252000BB008091BC0083FDF8CF85EC01C085EE37
:102530008093BC008091A9038230E1F380918503F0
:102540008F3F31F080918503803211F080918503B7
:102550001092AB031092AA031092A6036AE972E0EC
:102560008EEA93E00E94291020E143EC54E0052E0E
:10257000000C660B770B8EEA93E00E94F60E64E384
:1025800072E08EEA93E00E94291062EB72E08EEA1C
:1025900093E00E94291020E148E954E0052E000C48
:1025A000660B770B8EEA93E00E94F60E61E172E013
:1025B0008EEA93E00E94740B8BE494E09093EA041B
:1025C0008093E90481E08093E60487EE94E09093A1
:1025D000E5048093E40483EC94E00E94C90E8EE944
:1025E00094E00E94C90E8091E4049091E504DC011E
:1025F000ED91FC910280F381E02D0995882351F142
:102600006091E4047091E504DB01ED91FC9101908F
:10261000F081E02DCE0101960995C090E204D090A2
:10262000E304C114D104B1F0D601ED91FC91019005
:10263000F081E02DE980FA800B811C812D813E81A3
:102640004F81588569857A85C6010995F601C48050
:10265000D580E7CF0E948301C6CF81E0CACE8091AA
:102660006900837F886080936900E99AD6CEA1E2F1
:102670001A2EAA1BBB1BFD010DC0AA1FBB1FEE1FFC
:10268000FF1FA217B307E407F50720F0A21BB30B47
:10269000E40BF50B661F771F881F991F1A9469F7C3
:1026A00060957095809590959B01AC01BD01CF011F
:1026B00008955058BB27AA270E9471130C94EB145D
:1026C0000E94DD1438F00E94E41420F039F49F3F9A
:1026D00019F426F40C94DA140EF4E095E7FB0C944C
:1026E000D414E92F0E94FC1458F3BA176207730739
:1026F0008407950720F079F4A6F50C941E150EF4C6
:10270000E0950B2EBA2FA02D0B01B90190010C0101
:10271000CA01A0011124FF27591B99F0593F50F419
:10272000503E68F11A16F040A22F232F342F442771
:10273000585FF3CF469537952795A795F040539569
:10274000C9F77EF41F16BA0B620B730B840BBAF039
:102750009150A1F0FF0FBB1F661F771F881FC2F7A4
:102760000EC0BA0F621F731F841F48F487957795B8
:102770006795B795F7959E3F08F0B0CF9395880F72
:1027800008F09927EE0F9795879508950E94B01449
:1027900008F481E008950E94DF130C94EB140E946A
:1027A000E41458F00E94DD1440F029F45F3F29F052
:1027B0000C94D41451110C941F150C94DA140E942B
:1027C000FC1468F39923B1F3552391F3951B550B32
:1027D000BB27AA2762177307840738F09F5F5F4FF4
:1027E000220F331F441FAA1FA9F335D00E2E3AF033
:1027F000E0E832D091505040E695001CCAF72BD04B
:10280000FE2F29D0660F771F881FBB1F261737079B
:102810004807AB07B0E809F0BB0B802DBF01FF27CD
:1028200093585F4F3AF09E3F510578F00C94D414C2
:102830000C941F155F3FE4F3983ED4F3869577958B
:102840006795B795F7959F5FC9F7880F911D969586
:10285000879597F90895E1E0660F771F881FBB1FE2
:10286000621773078407BA0720F0621B730B840B8F
:10287000BA0BEE1F88F7E09508950E9444146894FF
:10288000B1110C941F1508950E94041588F09F57EC
:1028900098F0B92F9927B751B0F0E1F0660F771F84
:1028A000881F991F1AF0BA95C9F714C0B13091F07A
:1028B0000E941E15B1E008950C941E15672F782F05
:1028C0008827B85F39F0B93FCCF38695779567953F
:1028D000B395D9F73EF490958095709561957F4FAB
:1028E0008F4F9F4F0895E89409C097FB3EF4909551
:1028F0008095709561957F4F8F4F9F4F9923A9F0D9
:10290000F92F96E9BB279395F69587957795679567
:10291000B795F111F8CFFAF4BB0F11F460FF1BC0AB
:102920006F5F7F4F8F4F9F4F16C0882311F096E93E
:1029300011C0772321F09EE8872F762F05C06623EC
:1029400071F096E8862F70E060E02AF09A95660FA5
:10295000771F881FDAF7880F9695879597F908955E
:10296000990F0008550FAA0BE0E8FEEF16161706A0
:10297000E807F907C0F012161306E407F50798F008
:10298000621B730B840B950B39F40A2661F0232B21
:10299000242B252B21F408950A2609F4A140A6959D
:1029A0008FEF811D811D089597F99F6780E870E082
:1029B00060E008959FEF80EC089500240A941616B5
:1029C000170618060906089500240A94121613061D
:1029D000140605060895092E0394000C11F48823AB
:1029E00052F0BB0F40F4BF2B11F460FF04C06F5FC7
:1029F0007F4F8F4F9F4F089557FD9058440F551F9D
:102A000059F05F3F71F04795880F97FB991F61F070
:102A10009F3F79F087950895121613061406551FE7
:102A2000F2CF4695F1DF08C0161617061806991F53
:102A3000F1CF86957105610508940895E894BB2748
:102A400066277727CB0197F908950E94B01408F400
:102A50008FEF08950E943D150C94EB140E94DD1435
:102A600038F00E94E41420F0952311F00C94D41453
:102A70000C94DA1411240C941F150E94FC1470F3AA
:102A8000959FC1F3950F50E0551F629FF001729F13
:102A9000BB27F00DB11D639FAA27F00DB11DAA1F22
:102AA000649F6627B00DA11D661F829F2227B00D6F
:102AB000A11D621F739FB00DA11D621F839FA00DFA
:102AC000611D221F749F3327A00D611D231F849F4A
:102AD000600D211D822F762F6A2F11249F575040A1
:102AE0009AF0F1F088234AF0EE0FFF1FBB1F661F1C
:102AF000771F881F91505040A9F79E3F510580F0E5
:102B00000C94D4140C941F155F3FE4F3983ED4F357
:102B1000869577956795B795F795E7959F5FC1F788
:102B2000FE2B880F911D9695879597F9089519F4B6
:102B300016F40C94DA140C94E2150E940415B8F300
:102B40009923C9F3B6F39F57550B87FF0E94F015E1
:102B50000024A0E640EA900180585695979528F405
:102B6000805C660F771F881F20F0261737074807FD
:102B700030F4621B730B840B202931294A2BA69554
:102B800017940794202531254A2758F7660F771F99
:102B9000881F20F026173707480730F4620B730BA5
:102BA000840B200D311D411DA09581F7B901842FA3
:102BB0009158880F9695879508950E94B014880BB8
:102BC000990B08959F3F31F0915020F487957795A8
:102BD0006795B795880F911D9695879597F90895F4
:102BE00091505040660F771F881FD2F70895EE0F5F
:102BF000FF1F0590F491E02D099481E090E0F89496
:082C00000C940216F894FFCFBA
:102C08008D018D015E0196005E01FA00C201FA0095
:102C1800C20196000A000A000A006E006E006E00EB
:102C28006E000A00000000001A018700B20061016E
:102C3800E300C100D500000000001C02EC014C02BA
:102C4800C001E401D001C10100000000890B0000AF
:102C58000000500200000000310900000000B2042A
:102C6800000000004F020000000071075507000037
:102C78000000DC0344796E616D6963616C6C7920D6
:102C8800616C6C6F63617465642073706163652047
:102C9800666F7220636F6F7264696E61746573002A
:102CA80048616E646C65206D6F76656421004861CB
:102CB8006E646C652073657420646F776E210048BC
:102CC800616E646C65207069636B65642075702142
:102CD80000427574746F6E2072656C65617365640B
:102CE8002100427574746F6E207072657373656429
:102CF80021004465627567676572206F7574707529
:102D0800743A200074696D657374616D70203D209C
:102D1800000D0A00436F6F7264696E617465206903
:102D28006E666F3A2000546F756368002023002C8C
:102D3800207B007D2C2000416464696E6720616EF1
:102D480020656C656D656E74004F6B61792C20741D
:102D5800686520706F696E74657220697473656C3C
:102D680066206973206E6F74206E756C6C006E61DE
:102D78006E00696E66006F7666004578616D706CEE
:102D880065393939202D20546F756368496E70751F
:102D9800742054657374696E670041646472657366
:102DA80073206F66206D79427574746F6E3A2030A7
:102DB800780041646472657373206F66206D79537F
:0A2DC8006C696465723A20307800EF
:00000001FF
