:100000000C945D000C94F30A0C94CC0A0C948500BB
:100010000C9485000C9485000C9485000C9485004C
:100020000C9485000C9485000C9485000C9485003C
:100030000C9485000C9485000C9485000C9485002C
:100040000C94820A0C9485000C94500A0C942A0A91
:100050000C9485000C9485000C9485000C9485000C
:100060000C941A0B0C94850000000000240027005B
:100070002A0000000000250028002B0004040404CE
:100080000404040402020202020203030303030342
:10009000010204081020408001020408102001021F
:1000A00004081020000000080002010000030407FB
:1000B0000000000000000000050E11241FBECFEF5D
:1000C000D8E0DEBFCDBF12E0A0E0B1E0E6EBF6E2A3
:1000D00002C005900D92AA38B107D9F724E0AAE82A
:1000E000B2E001C01D92AC38B207E1F710E0CDE5F7
:1000F000D0E004C02197FE010E944E13CC35D107F9
:10010000C9F70E94F60E0C9459130C940000CF927C
:10011000DF92EF92FF920F931F93CF93DF936C01C7
:100120007A018B01C0E0D0E0CE15DF0589F0D8015F
:100130006D918D01D601ED91FC910190F081E02D42
:10014000C6010995892B11F47E0102C02196ECCFDE
:10015000C701DF91CF911F910F91FF90EF90DF903A
:10016000CF900895FC01538D448D252F30E0842FCE
:1001700090E0821B930B541710F0CF9608950197CF
:100180000895FC01918D828D981761F0828DDF01B9
:10019000A80FB11D5D968C91928D9F5F9F73928F7A
:1001A00090E008958FEF9FEF0895FC01918D828D6F
:1001B000981731F0828DE80FF11D858D90E008953C
:1001C0008FEF9FEF0895FC01918D228D892F90E094
:1001D000805C9F4F821B91098F73992708958EE64B
:1001E00093E00E94E30021E0892B09F420E0822FB4
:1001F0000895FC01848DDF01A80FB11DA35ABF4FE4
:100200002C91848D90E001968F739927848FA68915
:10021000B7892C93A089B1898C9180648C93938D3C
:10022000848D981306C00288F389E02D80818F7D2C
:1002300080830895EF92FF920F931F93CF93DF93E4
:10024000EC0181E0888F9B8D8C8D981305C0E88927
:10025000F989808185FD24C0F62E0B8D10E00F5F9B
:100260001F4F0F731127E02E8C8DE8120CC00FB6B4
:1002700007FCFACFE889F989808185FFF5CFCE01A7
:100280000E94F900F1CF8B8DFE01E80FF11DE35ABA
:10029000FF4FF0820B8FEA89FB898081806207C063
:1002A000EE89FF896083E889F98980818064808391
:1002B00081E090E0DF91CF911F910F91FF90EF903F
:1002C0000895CF93DF93EC01888D8823C9F0EA89E4
:1002D000FB89808185FD05C0A889B9898C9186FD3F
:1002E0000FC00FB607FCF5CF808185FFF2CFA8893C
:1002F000B9898C9185FFEDCFCE010E94F900E7CF3F
:10030000DF91CF91089580E090E0892B29F00E9441
:10031000EF0081110C9400000895089585ED8093FD
:10032000BC008091BC0084FDFCCF1092690308954D
:100330004091F402262F30E0240F311D2132310587
:10034000DCF4209169032430C9F4FC0180E090E0E2
:10035000861758F43091F4022191DC01AE52BD4F62
:10036000A30FB11D2C930196F3CF8091F402680F77
:100370006093F40280E0089581E0089582E008959A
:100380000895E0916D0380916C03E81730F4F0E07C
:10039000EE54FD4F808190E008958FEF9FEF089518
:1003A00090916D0380916C03981750F4E92FF0E061
:1003B000EE54FD4F208130E09F5F90936D0302C0AB
:1003C0002FEF3FEFC901089580916C0390E02091D9
:1003D0006D03821B91090895CF92DF92EF92FF92F5
:1003E0000F931F93CF93DF937C01262F972F8A01C2
:1003F00080916603882391F0C62FD72F6E01C40E1B
:10040000D51ECC15DD0571F06991D701ED91FC91F8
:100410000190F081E02DC7010995F3CF642F822F61
:100420000E949801C801DF91CF911F910F91FF9019
:10043000EF90DF90CF900895CF93DF931F92CDB7C9
:10044000DEB76983209166032223D1F020916A03ED
:10045000203240F021E030E0FC013383228380E051
:1004600090E015C080916B03E82FF0E0EA5BFC4F51
:10047000998190838F5F80936B0380936A0305C09B
:1004800061E0CE0101960E94980181E090E00F901A
:10049000DF91CF910895089580E090E00895089548
:1004A000EF92FF920F931F93CF93DF93CDB7DEB7F9
:1004B0002A970FB6F894DEBF0FBECDBF2A960FB6AF
:1004C000F894DEBF0FBECDBFDF91CF911F910F918A
:1004D000FF90EF900895EF92FF920F931F93CF93A9
:1004E000DF93CDB7DEB72A970FB6F894DEBF0FBE05
:1004F000CDBF2A960FB6F894DEBF0FBECDBFDF91F9
:10050000CF911F910F91FF90EF90089581E080931C
:1005100042040895FC0140855185808191812481A8
:100520003581B9012817390708F4BC01641775072C
:10053000E8F08217930708F49C0142175307B0F0C4
:10054000428553858281938126813781B90128179D
:10055000390708F4BC016417750740F08217930748
:1005600008F49C0181E04217530708F480E00895E5
:100570004F925F926F927F928F929F92AF92BF92B3
:10058000CF92DF92EF92FF92CF93DF93EC016E81D7
:100590007F8180E090E00E9425126B017C016C81DC
:1005A0007D8180E090E00E9425122B013C016A8150
:1005B0007B8180E090E00E9425129B01AC01C70185
:1005C000B6010E9412114B015C016885798580E0BB
:1005D00090E00E942512A30192010E9412119B013A
:1005E000AC01C501B4010E94DC124B015C016881C1
:1005F000798180E090E00E9425129B01AC01C3014B
:10060000B2010E9412112B013C016A857B8580E0BA
:1006100090E00E942512A70196010E9412119B01F1
:10062000AC01C301B2010E94DC129B01AC01C50107
:10063000B4010E9412116B017C0120E030E0A9019D
:100640000E947F11882361F020E030E0A901C701FA
:10065000B6010E94D712181634F080E090E005C071
:1006600081E090E002C082E090E0DF91CF91FF90C6
:10067000EF90DF90CF90BF90AF909F908F907F9042
:100680006F905F904F900895AF92BF92CF92DF929C
:10069000EF92FF920F931F93CF93DF93CDB7DEB707
:1006A000E8970FB6F894DEBF0FBECDBF09AB1AAB0B
:1006B0002BAB3CAB4DAB5EAB6FAB78AFFC01C080FE
:1006C000D180E280F38084819581A681B78109A9D8
:1006D0001AA92BA93CA9CDA2DEA2EFA2F8A689A750
:1006E0009AA7ABA7BCA70DA71EA72FA738AB4DA9EC
:1006F0005EA96FA978ADC98EDA8EEB8EFC8E8D8FD8
:100700009E8FAF8FB8A349A35AA36BA37CA30D8779
:100710001E872F87388B498B5A8B6B8B7C8BCD8AAE
:10072000DE8AEF8AF88E09831A832B833C834D83FC
:100730005E836F83788789879A87AB87BC87CE0172
:1007400085960E94B8025C01CE0149960E94B802CB
:100750007C01CE010D960E94B8026C01CE0101967B
:100760000E94B8028C01AE14BF0419F0C816D90655
:1007700051F4AA94AB2849F4CE0185960E948A02CE
:1007800081111EC002C081E01BC0CA94CD2831F483
:10079000CE010D960E948A02811112C0EA94EF28C0
:1007A00031F4CE0149960E948A02811109C00130BC
:1007B000110529F4CE0101960E948A0201C080E051
:1007C000E8960FB6F894DEBF0FBECDBFDF91CF9194
:1007D0001F910F91FF90EF90DF90CF90BF90AF905F
:1007E00008952F923F924F925F926F927F928F92D5
:1007F0009F92AF92BF92CF92DF92EF92FF920F93B0
:100800001F93CF93DF93CDB7DEB760970FB6F89401
:10081000DEBF0FBECDBF4A013B01FC01E480F58085
:10082000F7012081318142805380FC012280338096
:100830006701F7018201D901AA24A394B12CA21463
:10084000B304C8F4848195812817390708F49C0102
:100850008415950508F42C0186819781A817B9079E
:1008600008F4DC018017910708F48C018FEFA81AB7
:10087000B80A3496E4CF8414950408F46EC02815A1
:10088000390508F46AC06016710608F466C0A6153A
:10089000B70508F462C05A8749877C876B8728159B
:1008A000390508F49A013E872D87788B6F87A12C34
:1008B000B12C912CE1E02E1A310888248394A214E3
:1008C000B30428F5FFEFAF1ABF0AF6014191519129
:1008D000619171916F018081318122819381042F17
:1008E00049835A836B837C83482F8D833E832F8378
:1008F00098871A812B813C815E816F81792FCE018F
:1009000009960E9444038823D1F29824D8CFD92C89
:10091000220C331C220C331CF701E20DF31D9081D5
:10092000718162814381F70180815181328123810C
:10093000092F4C83482F3F832887172F262F3C8170
:100940006F817885CE0109960E944403882311F0B7
:1009500081E0D8268D2D817001C080E060960FB6B1
:10096000F894DEBF0FBECDBFDF91CF911F910F91E5
:10097000FF90EF90DF90CF90BF90AF909F908F90BF
:100980007F906F905F904F903F902F9008954F927F
:100990005F926F927F928F929F92AF92BF92CF920F
:1009A000DF92EF92FF920F931F93CF93DF93CDB718
:1009B000DEB72A970FB6F894DEBF0FBECDBF6C012D
:1009C000E982FA820B831C832D833E834F835887F1
:1009D00069877A87ED80FE8010E000E05C018AE0A4
:1009E000A80EB11C8C81181708F54701A8E01A9FC2
:1009F000800C911C1124F4016081718182819381AA
:100A00000E94F6112B01D40114966D917D918D9168
:100A10009C9117970E94F6113B01B301A201C501F9
:100A20000E94F103811101E01F5FDCCFF601848990
:100A3000811108C0002331F00680F781E02D309746
:100A400009F00995D60154968C9154978823F9F0B2
:100A500001111DC01896ED91FC9119973097B9F0CE
:100A60002A960FB6F894DEBF0FBECDBFDF91CF91AF
:100A70001F910F91FF90EF90DF90CF90BF90AF90BC
:100A80009F908F907F906F905F904F9009942A96DF
:100A90000FB6F894DEBF0FBECDBFDF91CF911F918F
:100AA0000F91FF90EF90DF90CF90BF90AF909F900D
:100AB0008F907F906F905F904F9008952F923F920C
:100AC0004F925F926F927F928F929F92AF92BF925E
:100AD000CF92DF92EF92FF920F931F93CF93DF930A
:100AE000CDB7DEB7AD970FB6F894DEBF0FBECDBF62
:100AF0009DA78CA7DC0112960D911C9113970115EF
:100B0000110509F46DC1F80187A9882309F4F9C119
:100B10009781809169038111FCCF81E08093690303
:100B2000809368034FEF40934503109244034EE1D6
:100B3000409343038093220380912203990F892BD2
:100B40008093220380916703813061F410926703E0
:100B5000809122038093BB008091BC0083FDF8CF7D
:100B600085EC01C085EE8093BC00809169038130E3
:100B7000E1F3809144038F3118F47091440301C074
:100B80007FE183E293E042EB52E0FA013E2E341A19
:100B9000371628F4DC013D90CD013192F7CF109249
:100BA0006D0370936C037F3109F09CC08FB7F8948C
:100BB00080901E0390901F03A0902003B09021030B
:100BC0008FBF312CF80185819681DC01ED91FC917C
:100BD0000084F185E02D0995892BB1F0222423941E
:100BE000230CF80185819681DC01ED91FC91028452
:100BF000F385E02D0995E1E0F0E0EC0FFD1FE30D3A
:100C0000F11D8083322CDECF6B816F702A8130E042
:100C1000662309F46AC08C818F7090E0982F882732
:100C20004D81FC01E42BFBA7EAA78E818F7090E039
:100C3000982F88274F81DC01A42BB9A7A8A7613082
:100C400009F453C08A858F70682E712C762C662427
:100C50008B85682A8C858F70C82ED12CDC2CCC24F7
:100C60008D85C82A623009F440C088898F70E82ECB
:100C7000F12CFE2CEE248989E82A8A898F7090E075
:100C8000982F88274B89FC01E42BFDA3ECA363304C
:100C900061F18E898F7090E0982F88274F89DC0151
:100CA000A42BBFA3AEA3888D8F7090E0982F8827C8
:100CB000498DFC01E42BF9A3E8A36430B1F08C8DDD
:100CC0008F7090E0982F88274D8DDC01A42BBBA35B
:100CD000AAA38E8D8F70482E512C542C44248F8DB6
:100CE000482A03C081E090E002C080E090E0892BB8
:100CF00009F06EC0F80117AA4FB7F89480911E034F
:100D000090911F03A0912003B09121034FBF82ABAC
:100D100093ABA4ABB5AB8789681343C0808D918D2D
:100D20004AA55BA548175907E1F5828D938D48A523
:100D300059A548175907A9F5848D958D6816790628
:100D400081F5868D978DC816D90659F580A191A198
:100D5000E816F90631F582A193A14CA15DA14817CF
:100D60005907F9F484A195A14EA15FA1481759072D
:100D7000C1F486A197A148A159A14817590789F440
:100D800080A591A54AA15BA14817590751F482A5F6
:100D900093A54816590629F484A595A5281739075F
:100DA000B9F0F801428553854115510509F480C019
:100DB000D80150968D919C915197892B09F478C058
:100DC00054968C91549781110DC081E0F80186AB47
:100DD000ACA5BDA51296ED91FC91139786A991C083
:100DE00080E08FC01C96ED91FC911D97CF0101967C
:100DF0001D969C938E931C977BE17E9FC0017F9FE5
:100E0000900D1124FA01E80FF91F60834AA55BA534
:100E10005283418348A559A55483438376826582D2
:100E2000D086C782F286E1864CA15DA154874387B4
:100E30004EA15FA15687458748A159A1508B47878E
:100E40004AA15BA1528B418B548A438A368B258BF6
:100E5000878A908EA18EB28E81E055968C9355979D
:100E600052968D919C915397019653969C938E9395
:100E700052971C962D913C911D9750968D919C9167
:100E800051972817390720F01D961C921E921C9727
:100E9000D8011C962D913C911D971E968D919C9189
:100EA0001F972817390709F090CF54961C928DCFC1
:100EB000F801678B4AA55BA5518F408F48A559A5BE
:100EC000538F428F758E648ED78EC68EF1A2E0A2AC
:100ED0004CA15DA153A342A34EA15FA155A344A37E
:100EE00048A159A157A346A34AA15BA151A740A776
:100EF00053A642A635A724A786A697A6A0AAB1AA5C
:100F000064CFAD960FB6F894DEBF0FBECDBFDF91B4
:100F1000CF911F910F91FF90EF90DF90CF90BF90F6
:100F2000AF909F908F907F906F905F904F903F9089
:100F30002F9008952F923F924F925F926F927F92DF
:100F40008F929F92AF92BF92CF92DF92EF92FF92D9
:100F50000F931F93CF93DF93CDB7DEB7A5970FB64F
:100F6000F894DEBF0FBECDBF8C01DC0111961C9240
:100F7000119713961C92FC01168217821086118617
:100F800081E0808385E082838AE892E09583848390
:100F9000DB0112968D919C911397FC01C284D3843E
:100FA000C114D10409F468C06089718961157105A3
:100FB00009F462C02589222309F45EC0A685B7859D
:100FC0007D01FFEFEF1AFF0AFC01F786E6862BE1B1
:100FD0002A9FA0012B9F500D1124F601E40FF51F4D
:100FE000DE01119601900D922A95E1F7E616F706BB
:100FF00028F0DC011F961C921E921E97FC0146856C
:101000005785248535854217530709F4158ADC0175
:1010100052962D913C915397A901415051095396F5
:101020005C934E935297232B11F4D6961C9221E099
:10103000FC01248B29814A815B8159A348A34C81FF
:101040005D815F8F4E8F4E815F815BA34AA3488590
:1010500059855DA34CA3CA84DB84EC84FD848E8413
:101060009F84A888B9886A897B896C887D88288C48
:10107000398C4A8C5B8C3DC0DC01D6961C92D6978D
:1010800057962C91579758964D915C91599759A323
:1010900048A35A964D915C915B975F8F4E8F5C96FB
:1010A0004D915C915D975BA34AA35E964D915C91D7
:1010B0005F975DA34CA39096CD90DC90919792960C
:1010C000ED90FC90939794968D909C909597969622
:1010D000AD90BC90979798966D917C9199979A96C0
:1010E0006D907C909B979E962D903D904D905C903E
:1010F000D197D80113962C93233009F44AC038F4C1
:10110000213009F484C0223009F45EC0A0C024302C
:1011100019F1253009F09BC0F8010480F581E02D1C
:10112000FD8FEC8F072E000C880B990B0E94271265
:10113000AC8DBD8D90966D937D938D939C9393977D
:10114000B301770C880B990B0E942712EC8DFD8D53
:1011500064A375A386A397A3D80114966D907C9081
:101160001597B401990C880B990B0E942712F30173
:10117000608F718F828F938FB501BB0C880B990B99
:101180000E942712D3015C966D937D938D939C935F
:101190005F97F801A480B580B601DD0C880B990B30
:1011A0000E942712D50150966D937D938D939C9349
:1011B0005397B701FF0C880B990B0E942712F5017A
:1011C000648B758B868B978BD8011496ED90FC9071
:1011D00015972AA13BA1B901330F880B990B0E94E7
:1011E0002712D70118966D937D938D939C931B972F
:1011F0002CA13DA1B901330F880B990B0E94271236
:10120000D7011C966D937D938D939C931F97F80146
:10121000E480F58028A139A1B901330F880B990B1F
:101220000E942712D7016D937D938D939C93139702
:101230002E8D3F8DB901330F880B990B0E94271219
:10124000D70114966D937D938D939C931797F80116
:101250002682378240865186C801A5960FB6F8943B
:10126000DEBF0FBECDBFDF91CF911F910F91FF90D9
:10127000EF90DF90CF90BF90AF909F908F907F9036
:101280006F905F904F903F902F90089580E991E08C
:101290000C94900C81EA91E00C94900C611571050E
:1012A00079F0FB0101900020E9F73197AF01461B6F
:1012B000570BDC01ED91FC910280F381E02D099444
:1012C00080E090E008958F929F92AF92BF92DF925C
:1012D000EF92FF920F931F93CF93DF93CDB7DEB7BB
:1012E0002A970FB6F894DEBF0FBECDBFE982FA820F
:1012F0000B83D12E1C832D833E834F8358876987B0
:101300007A875901FC0126813781232B09F490C08B
:101310008C0161EB71E08EE693E00E94030E63ECBA
:1013200071E0F801868197810E94030E4F815885F4
:1013300069857A852AE0F801868197810E94D00C20
:1013400064EF71E0F801868197810E94030ED1104D
:1013500018C060ED71E0F801868197812A960FB67A
:10136000F894DEBF0FBECDBFDF91CF911F910F91DB
:10137000FF90EF90DF90BF90AF909F908F900C9474
:101380004E0963ED71E0F801868197810E94030E9A
:1013900065EE71E0F801868197810E94030E750168
:1013A000812C912C54018D14A0F66BEE71E0F801A4
:1013B000868197810E94030E2AE0B501A401F801FD
:1013C000868197810E94D00C6EEE71E0F8018681D3
:1013D00097810E94030EF7014081518162817381E0
:1013E00022E0F801868197810E94190D63EF71E078
:1013F000F801868197810E94030EF701448155818F
:101400006681778122E0F801868197810E94190D1B
:1014100062EF71E0F801868197810E94030EFFEF71
:101420008F1A9F0AAF0ABF0A88E0E80EF11CBBCFF3
:101430002A960FB6F894DEBF0FBECDBFDF91CF91D5
:101440001F910F91FF90EF90DF90BF90AF909F9012
:101450008F9008951F920F920FB60F9211242F9321
:101460003F934F935F936F937F938F939F93AF932C
:10147000BF93EF93FF938EE693E00E94F900FF91F4
:10148000EF91BF91AF919F918F917F916F915F91FC
:101490004F913F912F910F900FBE0F901F90189575
:1014A0001F920F920FB60F9211242F938F939F9339
:1014B000EF93FF93E0917E03F0917F038081E091B1
:1014C0008403F091850382FD12C09081809187038F
:1014D0008F5F8F7320918803821751F0E09187030B
:1014E000F0E0E259FC4F958F8093870301C0808123
:1014F000FF91EF919F918F912F910F900FBE0F90C1
:101500001F9018951F920F920FB60F9211242F93D0
:101510003F938F939F93AF93BF9380911E039091BE
:101520001F03A0912003B091210330911D0323E0FC
:10153000230F2D3720F40196A11DB11D05C026E80B
:10154000230F0296A11DB11D20931D0380931E033E
:1015500090931F03A0932003B0932103809119035C
:1015600090911A03A0911B03B0911C030196A11D39
:10157000B11D8093190390931A03A0931B03B0939A
:101580001C03BF91AF919F918F913F912F910F902D
:101590000FBE0F901F9018951F920F920FB60F92CB
:1015A00011242F933F934F935F936F937F938F9368
:1015B0009F93AF93BF93EF93FF93E0910201F0915C
:1015C00003010995FF91EF91BF91AF919F918F9189
:1015D0007F916F915F914F913F912F910F900FBE2F
:1015E0000F901F9018951F920F920FB60F92112413
:1015F0002F933F934F935F936F937F938F939F931B
:10160000AF93BF93EF93FF93E0910001F09101013D
:101610000995FF91EF91BF91AF919F918F917F912C
:101620006F915F914F913F912F910F900FBE0F904F
:101630001F9018951F920F920FB60F9211242F939F
:101640003F934F935F936F937F938F939F93AF934A
:10165000BF93EF93FF938091B900887F803609F4A0
:101660009CC068F5883209F45BC090F4803109F4BD
:1016700054C038F4882309F4F6C0883009F44DC00A
:10168000F6C0883109F44CC0803209F45DC0EFC067
:10169000803409F468C048F4803309F455C08833B5
:1016A00009F0E5C080934503D8C0803509F44FC0E8
:1016B000883509F45DC0883409F0D9C0D6C08839AE
:1016C00009F4C7C0A8F4883709F467C038F488362D
:1016D00009F463C0803709F460C0C9C0883809F4D0
:1016E000B8C0803909F45FC0803809F0C0C05BC061
:1016F000803B09F486C038F4803A09F466C0883A21
:1017000009F47FC0B4C0803C09F4A7C0883C09F448
:10171000A4C0883B09F48AC0AAC08091220310C0EB
:101720009091440380914303981770F5E09144032E
:1017300081E08E0F80934403F0E0ED5DFC4F8081EB
:101740008093BB0085EC86C0809345038EC0E091FA
:10175000440381E08E0F809344038091BB00F0E04E
:10176000ED5DFC4F808390914403809143036EC0F4
:10177000E091440381E08E0F809344038091BB008D
:10178000F0E0ED5DFC4F80838091680381116DC0B6
:1017900081E08093670384EA61C083E080936903FA
:1017A00010921803CFCF80911803803208F051C0F7
:1017B000E091180381E08E0F809318038091BB00A5
:1017C000F0E0E850FD4F8083BDCF85EC8093BC00F6
:1017D0001092690380911803803230F4E09118036D
:1017E000F0E0E850FD4F10826091180370E0E09146
:1017F000F602F091F70288EF92E009951092180333
:1018000036C084E0809369031092F5021092F402CE
:10181000E091F202F091F30209958091F4028111B6
:1018200005C081E08093F4021092D202E091F502AB
:1018300081E08E0F8093F502F0E0EE52FD4F808143
:101840008093BB009091F5028091F402981708F400
:1018500079CF85E88093BC000AC085EC8093BC00FA
:101860001092690304C0109245030E948E01FF91FB
:10187000EF91BF91AF919F918F917F916F915F9108
:101880004F913F912F910F900FBE0F901F90189581
:1018900090E0FC01EC55FF4F2491FC01E057FF4F15
:1018A0003491FC01E458FF4FE491EE23B1F122237F
:1018B00039F1233091F038F42130A9F0223001F5CC
:1018C00084B58F7D12C0273091F02830A1F02430EC
:1018D000B9F4809180008F7D03C0809180008F7764
:1018E000809380000DC084B58F7784BD09C080913E
:1018F000B0008F7703C08091B0008F7D8093B000DF
:10190000F0E0EE0FFF1FEE58FF4FA591B4918FB797
:10191000F894EC913E2B3C938FBF08950E94541392
:10192000CF93DF93BC018EE693E00E944E09EC0159
:1019300060ED71E08EE693E00E944E098C0F9D1FD2
:10194000DF91CF910895CF93DF93EC0186EF91E083
:101950000E94900C209709F188E092E00E94900C80
:101960008C819D81892BC9F48A819B81892BA9F463
:10197000E0918304F0918404309729F4D093840497
:10198000C09383040AC084819581009711F0FC0103
:10199000FACFD583C4831D821C82DF91CF91089535
:1019A0004F925F926F927F92EF92FF920F931F93ED
:1019B000CF93DF93CDB7DEB7A1970FB6F894DEBF14
:1019C0000FBECDBF7C01FA01CB0119A2223008F471
:1019D0002AE08E010F5D1F4F422E512C612C712C7D
:1019E000BF01A30192010E94F010F901CA01015048
:1019F00011096A3014F4605D01C0695CD8016C9310
:101A0000232B242B252B61F7B801C7010E944E0917
:101A1000A1960FB6F894DEBF0FBECDBFDF91CF9178
:101A20001F910F91FF90EF907F906F905F904F907C
:101A300008954F925F926F927F928F929F92AF9292
:101A4000BF92CF92DF92EF92FF92CF93DF93EC01A0
:101A50006A017B01B22E9A01AB01C701B6010E9457
:101A60004913882319F06DE272E027C0260137017F
:101A7000E89477F82FEF3FEF4FE75FE7C301B2013C
:101A80000E94491381110DC02FEF3FEF4FE75FE731
:101A9000C301B2010E947F1118161CF461E372E0C9
:101AA0000CC02FEF3FEF4FE75FE4C701B6010E9484
:101AB000D71218169CF465E372E0CE01DF91CF9146
:101AC000FF90EF90DF90CF90BF90AF909F908F905E
:101AD0007F906F905F904F900C944E092FEF3FEFE7
:101AE0004FE75FECC701B6010E947F1187FDE3CF8E
:101AF00020E030E0A901C701B6010E947F1187FFF5
:101B00000EC0E881F9810190F081E02D6DE2CE01F7
:101B100009954C01F7FAF094F7F8F09402C0812C83
:101B2000912CA12C60E070E080E09FE3AB1441F0C9
:101B300020E030E040E251E40E948411A394F6CF0B
:101B40009B01AC01C701B6010E9413112B013C019E
:101B50000E94F6116B017C010E9425129B01AC01D1
:101B6000C301B2010E9412112B013C012AE0B7010E
:101B7000A601CE010E94D00C7C01E80CF91CBB2010
:101B800051F0E881F9810190F081E02D6EE2CE0103
:101B90000995E80EF91EDB2CDD2029F120E030E06C
:101BA00040E251E4C301B2010E94DC122B013C016E
:101BB0000E94F6114B01A12CB12C2AE0B501A40121
:101BC000CE010E94D00CE80EF91EC501B4010E949E
:101BD00025129B01AC01C301B2010E9412112B011D
:101BE0003C01DA94D9CFC701DF91CF91FF90EF90FC
:101BF000DF90CF90BF90AF909F908F907F906F902D
:101C00005F904F9008950C944E09AEE6B3E01396A2
:101C10001C921E92129748EE53E060E070E014961A
:101C20004D935D936D937C93179788E191E01196A6
:101C30009C938E9385EC90E01D969C938E931C97BD
:101C400084EC90E01F969C938E931E9780EC90E01E
:101C500051969C938E93509781EC90E053969C9371
:101C60008E93529782EC90E055969C938E93549766
:101C700086EC90E057969C938E93569759961C92BB
:101C800059975A961C925A975B961C925B975C9652
:101C90001C925C97E4E4F4E013821282448355833F
:101CA000668377838AE291E091838083E8E8F4E0B9
:101CB0008AE591E09183808313821282EBE0F4E065
:101CC000128281E090E0948383831682158288E3F8
:101CD00090E0908787838FEF818713861286158621
:101CE000148617861686118A108A138A128A148A15
:101CF000158A168A16AA17AA12AA13AA14AA15AA2E
:101D0000178A118E108E138E128E158E148E178ECA
:101D1000168E11A210A213A212A215A214A217A22B
:101D200016A211A610A613A612A615A614A616A6EC
:101D300017A610AA11AA84E591E091838083E3E8B5
:101D4000F4E011821082138212821482E9E7F4E037
:101D500042E651E05183408384E091E0958384839F
:101D600024E030E0338322831682178210861186A6
:101D7000E4E6F4E013821282158214826EE471E0CC
:101D80007183608353874287108A118A128A138A6B
:101D90004AE459E05783468346E459E05187408737
:101DA000148A3587248797878687EEE5F4E01382C7
:101DB00012821582148288E491E091838083E8E5A1
:101DC000F4E0138212821582148282E491E09183FE
:101DD0008083E0E5F4E013821282158214828CE3A2
:101DE00091E091838083B783A6830895CF93DF9397
:101DF000CDB7DEB72A970FB6F894DEBF0FBECDBFC2
:101E0000789484B5826084BD84B5816084BD85B5D5
:101E1000826085BD85B5816085BD80916E008160E1
:101E200080936E0010928100809181008260809387
:101E30008100809181008160809381008091800089
:101E40008160809380008091B10084608093B100B4
:101E50008091B00081608093B00080917A008460AE
:101E600080937A0080917A00826080937A008091DA
:101E70007A00816080937A0080917A0080688093F4
:101E80007A001092C100E0917E03F0917F0312E08E
:101E90001083E0917A03F0917B031082E0917C0340
:101EA000F0917D0380E1808310928603E0918203AC
:101EB000F091830386E08083E0918003F0918103B9
:101EC000808180618083E0918003F0918103808133
:101ED00088608083E0918003F09181038081806835
:101EE0008083E0918003F091810380818F7D8083E6
:101EF00089E392E00E94900C81E080930D0410939E
:101F0000140410920F0410920E04E2E9F0E0249100
:101F1000EEE7F0E084918823C9F090E0880F991FE4
:101F2000FC01E859FF4F45915491FC01EE58FF4FD9
:101F3000A591B4919FB7F894FA01808120958223EE
:101F400080838C91E22FE823EC939FBF809114044F
:101F5000823019F08330B1F439C180E0E82FF0E02D
:101F6000EE0FFF1FE050FF4F26E832E03183208361
:101F7000813009F42DC1809169008C7F826080934B
:101F80006900E89A84E494E090931104809310042B
:101F900010926D0310926C0310926B0310926A03FF
:101FA0001092690311E0109368031092670382E1B5
:101FB0000E94480C83E10E94480C8091B9008E7FFA
:101FC0008093B9008091B9008D7F8093B90088E437
:101FD0008093B80085E48093BC0080911204109334
:101FE00066038093430410926B0310926A038091FE
:101FF000100490911104DC01ED91FC910190F081AD
:10200000E02D60E009958091100490911104DC01AD
:10201000ED91FC910190F081E02D60E00995209117
:10202000120490916A0380914304913208F045C0F4
:10203000309169033111FCCF32E030936903209372
:1020400068032FEF209345031092440390934303BA
:10205000A6E4B3E043E253E0FA012E2F241B291734
:1020600018F42D912193F9CF10922203909122031D
:10207000880F892B8093220380916703813061F45C
:1020800010926703809122038093BB008091BC0073
:1020900083FDF8CF85EC01C085EE8093BC00809174
:1020A00069038230E1F3809145038F3F31F08091E5
:1020B0004503803211F08091450310926B0310921A
:1020C0006A031092660369E572E08EE693E00E946F
:1020D000030E20E144E654E0052E000C660B770B5E
:1020E0008EE693E00E94D00C63EF71E08EE693E001
:1020F0000E94030E61E772E08EE693E00E94030EF9
:1021000020E148E554E0052E000C660B770B8EE6C7
:1021100093E00E94D00C60ED71E08EE693E00E94A7
:102120004E098BE094E090938B0480938A0481E0C5
:102130008093870488E894E09093860480938504D4
:1021400084E694E00E94A30C88E594E00E94A30C2E
:1021500080E594E00E94A30C809185049091860410
:10216000DC01ED91FC910280F381E02D099588233B
:1021700051F16091850470918604DB01ED91FC9131
:102180000190F081E02DCE0101960995C090830465
:10219000D0908404C114D104B1F0D601ED91FC912A
:1021A0000190F081E02DE980FA800B811C812D8166
:1021B0003E814F81588569857A85C6010995F6016A
:1021C000C480D580E7CF0E948301C6CF81E0C6CE10
:1021D00080916900837F886080936900E99AD2CEFC
:1021E000A1E21A2EAA1BBB1BFD010DC0AA1FBB1F1B
:1021F000EE1FFF1FA217B307E407F50720F0A21B8D
:10220000B30BE40BF50B661F771F881F991F1A94F9
:1022100069F760957095809590959B01AC01BD0123
:10222000CF0108955058BB27AA270E942A110C9469
:102230009D120E948F1238F00E94961220F039F4FD
:102240009F3F19F426F40C948C120EF4E095E7FBF2
:102250000C948612E92F0E94AE1258F3BA17620747
:1022600073078407950720F079F4A6F50C94D01233
:102270000EF4E0950B2EBA2FA02D0B01B9019001A1
:102280000C01CA01A0011124FF27591B99F0593FE5
:1022900050F4503E68F11A16F040A22F232F342F2D
:1022A0004427585FF3CF469537952795A795F0407B
:1022B0005395C9F77EF41F16BA0B620B730B840B90
:1022C000BAF09150A1F0FF0FBB1F661F771F881F48
:1022D000C2F70EC0BA0F621F731F841F48F48795A0
:1022E00077956795B795F7959E3F08F0B0CF939592
:1022F000880F08F09927EE0F9795879508950E940B
:10230000621208F481E008950E9498110C949D12C5
:102310000E94961258F00E948F1240F029F45F3FFD
:1023200029F00C94861251110C94D1120C948C1239
:102330000E94AE1268F39923B1F3552391F3951BD4
:10234000550BBB27AA2762177307840738F09F5FD6
:102350005F4F220F331F441FAA1FA9F335D00E2E43
:102360003AF0E0E832D091505040E695001CCAF7B0
:102370002BD0FE2F29D0660F771F881FBB1F261773
:1023800037074807AB07B0E809F0BB0B802DBF014A
:10239000FF2793585F4F3AF09E3F510578F00C9419
:1023A00086120C94D1125F3FE4F3983ED4F38695E5
:1023B00077956795B795F7959F5FC9F7880F911D3A
:1023C0009695879597F90895E1E0660F771F881F26
:1023D000BB1F621773078407BA0720F0621B730BD9
:1023E000840BBA0BEE1F88F7E09508950E94B61291
:1023F00088F09F5798F0B92F9927B751B0F0E1F0C6
:10240000660F771F881F991F1AF0BA95C9F714C075
:10241000B13091F00E94D012B1E008950C94D01226
:10242000672F782F8827B85F39F0B93FCCF38695AE
:1024300077956795B395D9F73EF49095809570950B
:1024400061957F4F8F4F9F4F0895E89409C097FB88
:102450003EF490958095709561957F4F8F4F9F4F7B
:102460009923A9F0F92F96E9BB279395F6958795BF
:1024700077956795B795F111F8CFFAF4BB0F11F482
:1024800060FF1BC06F5F7F4F8F4F9F4F16C0882329
:1024900011F096E911C0772321F09EE8872F762F5F
:1024A00005C0662371F096E8862F70E060E02AF0A0
:1024B0009A95660F771F881FDAF7880F969587958C
:1024C00097F90895990F0008550FAA0BE0E8FEEF61
:1024D00016161706E807F907C0F012161306E407E8
:1024E000F50798F0621B730B840B950B39F40A26E1
:1024F00061F0232B242B252B21F408950A2609F4BF
:10250000A140A6958FEF811D811D089597F99F67C2
:1025100080E870E060E008959FEF80EC089500246B
:102520000A941616170618060906089500240A9438
:1025300012161306140605060895092E0394000CBE
:1025400011F4882352F0BB0F40F4BF2B11F460FF4D
:1025500004C06F5F7F4F8F4F9F4F089557FD905876
:10256000440F551F59F05F3F71F04795880F97FB57
:10257000991F61F09F3F79F0879508951216130611
:102580001406551FF2CF4695F1DF08C01616170640
:102590001806991FF1CF8695710561050894089575
:1025A000E894BB2766277727CB0197F908950E9407
:1025B000621208F48FEF08950E94EF120C949D129E
:1025C0000E948F1238F00E94961220F0952311F08D
:1025D0000C9486120C948C1211240C94D1120E942B
:1025E000AE1270F3959FC1F3950F50E0551F629F97
:1025F000F001729FBB27F00DB11D639FAA27F00D5C
:10260000B11DAA1F649F6627B00DA11D661F829F82
:102610002227B00DA11D621F739FB00DA11D621F67
:10262000839FA00D611D221F749F3327A00D611D84
:10263000231F849F600D211D822F762F6A2F112466
:102640009F5750409AF0F1F088234AF0EE0FFF1F99
:10265000BB1F661F771F881F91505040A9F79E3FF0
:10266000510580F00C9486120C94D1125F3FE4F374
:10267000983ED4F3869577956795B795F795E79546
:102680009F5FC1F7FE2B880F911D9695879597F94F
:1026900008950E946212880B990B0895EE0FFF1F98
:1026A0000590F491E02D099481E090E0F8940C9469
:0626B0005913F894FFCF5E
:1026B6008D018D010A000A000A006E006E006E0090
:1026C6006E000A00000000001A018700B2006101D6
:1026D600E300C100D500000000001C02EC014C0222
:1026E600C001E401D001C10100000000630900003F
:1026F60000005002000000006B0200000000C7044A
:10270600000000004F02000000009A075E0500006E
:102716000000F10344796E616D6963616C6C792028
:10272600616C6C6F636174656420737061636520AE
:10273600666F7220636F6F7264696E617465730091
:10274600427574746F6E2072656C65617365642181
:1027560000427574746F6E207072657373656421C0
:10276600004465627567676572206F75747075746D
:102776003A200074696D657374616D70203D2000A8
:102786000D0A00436F6F7264696E61746520696E2D
:10279600666F3A2000546F756368002023002C2072
:1027A6007B007D2C2000416464696E6720616E2089
:1027B600656C656D656E74004F6B61792C2074686D
:1027C6006520706F696E74657220697473656C66D6
:1027D600206973206E6F74206E756C6C006E616E6E
:1027E60000696E66006F7666004578616D706C658F
:1027F600393939202D20546F756368496E707574A8
:102806002054657374696E670041646472657373FE
:10281600206F66206D79427574746F6E3A20307839
:102826000041646472657373206F66206D79536C22
:0A283600696465723A2030780000F2
:00000001FF
