:1000000000000320D1010000CD2A0000852A000055
:10001000852A0000852A0000852A0000852A000024
:10002000852A0000852A0000852A0000CD2A0000CC
:10003000CD2A0000852A00005D3E0000613F0000DF
:10004000CD2A0000CD2A0000CD2A0000CD2A0000D4
:10005000CD2A0000CD2A0000CD2A0000CD2A0000C4
:10006000CD2A0000CD2A0000CD2A0000CD2A0000B4
:10007000CD2A0000CD2A0000CD2A0000CD2A0000A4
:10008000CD2A0000CD2A0000CD2A0000CD2A000094
:10009000CD2A0000CD2A0000CD2A0000CD2A000084
:1000A0002D29000039290000CD2A0000CD2A0000AA
:1000B000CD2A0000CD2A0000CD2A00002D440000EA
:1000C000CD2A000059450000CD2A000085460000D9
:1000D000CD2A00007D470000CD2A0000CD2A000077
:1000E000CD2A0000CD2A0000CD2A0000CD2A000034
:1000F000CD2A0000CD2A0000CD2A0000CD2A000024
:10010000CD2A0000CD2A0000CD2A0000CD2A000013
:10011000CD2A0000F5300000CD2A0000CD2A0000D5
:10012000CD2A0000CD2A0000CD2A0000CD2A0000F3
:10013000CD2A0000CD2A0000CD2A0000CD2A0000E3
:10014000CD2A0000CD2A000075480000CD2A00000D
:10015000CD2A0000CD2A0000CD2A0000CD2A0000C3
:10016000CD2A0000CD2A000045290000CD2A00003C
:10017000CD2A0000CD2A0000CD2A0000CD2A0000A3
:10018000CD2A0000CD2A0000CD2A0000CD2A000093
:10019000CD2A0000CD2A00006D490000CD2A0000C4
:1001A000CD2A0000CD2A0000CD2A0000CD2A000073
:1001B000CD2A0000CD2A0000CD2A0000CD2A000063
:1001C000CD2A0000CD2A0000CD2A0000CD2A000053
:1001D0005C4B4CF2205210B51A804DF628121A8052
:1001E00000BF00BF02F076FC574B4FF030621A6040
:1001F000564A9A60564ADA60564B4FF470021A60BB
:10020000554B564A1A60564A136813F4807304D14A
:1002100054490B604FF4A8531360534B1A781107DD
:1002200003D51A7842F008021A70504B5049AA229E
:100230001A70504A504B8B4204D252F8040F43F8C4
:10024000040BF8E74D4B4E4900228B4202D243F893
:10025000042BFAE74B494C4A002352F8230041F89B
:1002600023000133742BF8D1484B494A802103F80D
:10027000011B9342FBD1474B424A1A60464B8A22EC
:100280001A70A3F5805324225A70A0221A709A790A
:100290009207FCD59A79D406FCD4404A937903F0AE
:1002A0000C03082BFAD13E4B60221A7002331A78E5
:1002B000802AFCD1394B01221A715D225A719A7938
:1002C0009006FCD59979354A4906FBD5354B364918
:1002D00019600021596020231370937903F00C03F7
:1002E0000C2BFAD1314B324A1A60324B324A1A6027
:1002F00000225A60072243F8042C304AC3F80C2D20
:1003000062B602F089FD174B1B68DA0705D52C4849
:1003100002F012FD2B4B2C4A1A602C4B1B785B060B
:1003200009D5284C284B22689A4204D1244802F06F
:1003300003FD0023236005F0C1F902F0D1FB03F0B7
:100340004FFFFEE70E20054030800440823F04004E
:100350000100002B88ED00E0002008E0030000858C
:1003600010D0034014D0034002D0074000E0074003
:100370002414FF1F606500003007FF1F2814FF1FB3
:10038000281AFF1F0002FF1F0000000000E400E029
:1003900064E400E008ED00E0005006400040064044
:1003A00001E007404480044000000602048004404D
:1003B000C010070014E000E01FBF02000000202072
:1003C00020A7F25B1CE00340A5C3945A00F007404D
:1003D000FFFFFFFFFFFFFFFFFFFFFFFFFFFFFFFF2D
:1003E000FFFFFFFFFFFFFFFFFFFFFFFFFFFFFFFF1D
:1003F000FFFFFFFFFFFFFFFFFFFFFFFFFFFFFFFF0D
:10040000FFFFFFFFFFFFFFFFFFFFFFFFDEF9FFFF23
:1004100010B5054C237833B9044B13B10448AFF33E
:1004200000800123237010BD2814FF1F000000006E
:1004300064650000084B10B51BB108490848AFF3CC
:1004400000800848036803B910BD074B002BFBD0A0
:10045000BDE81040184700BF000000002C14FF1F2B
:10046000646500002414FF1F00000000014801F033
:10047000EBBE00BFF814FF1F08B51021034803F0BE
:1004800079FB0348BDE8084003F072BD1C60000022
:100490002C0BFF1F08B50F21034803F06BFB03482B
:1004A000BDE8084003F064BD306000002C0BFF1F66
:1004B00008B51021034803F05DFB0348BDE8084080
:1004C00003F056BD406000002C0BFF1F08B5112142
:1004D000034803F04FFB0348BDE8084003F048BD64
:1004E000546000002C0BFF1F38B50D4C0D4D0E480D
:1004F0000F2103F03FFB298F204603F089FD0221E5
:100500000A4803F037FB698F204603F081FD012183
:10051000074803F02FFB2046BDE8384003F028BD14
:100520002C0BFF1F4814FF1F68600000786000005C
:100530007C6000002DE9F04FA1B0D0F808901F9129
:10054000B9F80030868819931A46B9F802301A9320
:100550001846012E8BB2129340F2BA82B71EBFB278
:10056000013709EB87074B460446154690469988A4
:10057000DA88884538BF8846884228BF08469542B1
:1005800003F1040338BF1546944228BF14469F4226
:10059000EDD1129A904200F243819045C0F0408123
:1005A000BDF87E301B939C421A4600F239819D4271
:1005B000C0F03681731E002B179340F3FD821B9809
:1005C00004F008FD02460B46CDE9042304F0C4FB09
:1005D000CDE90A01404604F0FDFC129E04460D469A
:1005E0003046CDE9024504F0F5FC02460B462046B4
:1005F0002946CDE9142304F0AFFB4645324638BF07
:10060000424646454FF000031C92324628BF424600
:10061000CDE9080113931E92CB469A46CDF874801B
:10062000BAE0002320462946002204F0D9FF002822
:1006300014BF0223002306930C9804F0CBFC06465B
:100640000F460F98CDE9006704F0C4FCDDE90223F2
:1006500004460D463046394604F07EFBDDE90A23A8
:1006600004F02EFDDDE9042306460F462046294608
:1006700004F072FBDDE9082304F022FD02460B467C
:100680003046394604F068FB0022002306460F4638
:1006900004F07EFF002840F0F78000233046394602
:1006A000002204F09DFF002814BF022300230E93B4
:1006B00042464B462046294604F04EFBDDE9102316
:1006C00006460F46DDE9000104F046FB224680465F
:1006D00089462B46DDE9040104F03EFB02460B4649
:1006E0004046494604F0ECFCDDE9002304460D4693
:1006F000DDE9140104F030FB32463B4604F0E0FC37
:1007000022462B4604F028FB00220023804689461F
:1007100004F03EFF002840F0B480404649460022E5
:10072000002304F05DFF002814BF4FF002084FF0D3
:100730000008DDE90023DDE9020104F00DFB32468B
:100740003B4604F0BDFC22462B4604F005FB00228C
:10075000002304460D4604F01BFF002840F08F8064
:10076000002320462946002204F03AFF002814BF47
:10077000022300230E9A06998A4255D0434553D04E
:10078000139B83F0010313930AF101031FFA83FA09
:10079000179B9A4580F2A9804FEA8A02131D5A449A
:1007A0003BF82A105288189214463BF803200C920A
:1007B0005B4408465B880F93169104F00BFC0546DA
:1007C0000E462046CDE9105604F004FCDDE9022374
:1007D000804689462846314604F0BEFADDE90A2300
:1007E00004F06EFCDDE9042304460D46404649460C
:1007F00004F0B2FADDE9082304F062FC02460B467D
:100800002046294604F0A8FA0022002304460D469B
:1008100004F0BEFE00283FF404AF012306930BE76B
:10082000002021B0BDE8F08F069A012A2FD0B8F140
:10083000010F3AD00E9A012A00F05081012BA3D16A
:10084000169A0C981D9C8242134638BF03469C4260
:100850009AD88242134628BF03469C4294D30F9AEB
:1008600018981B9C8242134638BF03469C428BD883
:100870008242134628BF03469C4281D284E701236B
:1008800078E74FF0010854E701230E9310E716991B
:100890001C9881420A46CAD81E998A42C7D3189A20
:1008A0001B998A423FF46CAFC1E716990C9C129DCC
:1008B000A1420A4638BF22469542BBD8A1420A4609
:1008C00028BF22469542B5D30F99189C1B9DA14283
:1008D0000A4638BF22469542ACD8A1420A4628BFF4
:1008E00022469542BFF44CAFA4E75346DDF874802E
:1008F000D9469B0039F803A009EB03025046B2F831
:1009000002B004F067FB04460D465846CDE90C459D
:1009100004F060FBDDE9022306460F462046294627
:10092000CDE9066704F018FADDE90A2304F0C8FBF4
:10093000DDE9042304460D463046394604F00CFA3E
:10094000DDE9082304F0BCFB02460B46204629469D
:1009500004F002FA0022002304460D4604F018FEBB
:10096000002840F0F880002320462946002204F0A9
:1009700037FE002814BF022300230E93199804F0B9
:1009800029FB04460D461A98CDE9004504F022FBE8
:10099000DDE9022306460F462046294604F0DCF92D
:1009A000DDE90A2304F08CFBDDE9042304460D464F
:1009B0003046394604F0D0F9DDE9082304F080FB25
:1009C00002460B462046294604F0C6F900220023C1
:1009D00004460D4604F0DCFD002840F0B9802046B6
:1009E00029460022002304F0FBFD002814BF4FF02D
:1009F00002094FF00009DDE906233046394604F0CC
:100A0000ABF9DDE90C23CDE90601DDE9000104F0D5
:100A1000A3F9324604460D463B46DDE9040104F0E5
:100A20009BF902460B462046294604F049FBDDE9C6
:100A3000002304460D46DDE9140104F08DF9DDE9DB
:100A4000062304F03DFB22462B4604F085F90022E4
:100A5000002306460F4604F09BFD002876D1304661
:100A600039460022002304F0BBFD002814BF0226F3
:100A70000026DDE90023DDE9020104F06DF9DDE97E
:100A8000062304F01DFB22462B4604F065F90022E4
:100A9000002304460D4604F07BFD002854D10023BA
:100AA00020462946002204F09BFD002814BF0223A3
:100AB00000230E9A914521D0B3421FD0139B83F09F
:100AC00001031393139B03F0010021B0BDE8F08FE5
:100AD0001A98DDF86480044645465AE50C991C983E
:100AE00081420A463FF6AAAE1E998A42FFF4A6AE9C
:100AF0000F9A1B998A423FF443AE9FE60E9A012A51
:100B000049D0012E2AD0B9F1010F77D0012BD9D1CC
:100B1000199A5245134638BF53469845D2D8524584
:100B2000134628BF53469845CCD31A9A1B985A456A
:100B3000134638BF5B468342C4D35A45134628BF89
:100B40005B469842BED3B9E70123B2E7012690E79E
:100B50004FF001094FE701230E930FE71999129CFB
:100B600051450A4638BF52469442CCD851450A46B0
:100B700028BF52469442C6D31A991B9C59450A462F
:100B800038BF5A469442BED859450A4628BF5A46ED
:100B9000944293D2B7E7129941450A4638BF42467C
:100BA0009245AED841450A4628BF42469245A8D351
:100BB0001B9A5A4582D0A4E7104604F00BFA02466D
:100BC0000B46CDE9042304F0C7F8CDE90A014046FD
:100BD00004F000FA04460D461298CDE9024504F0EF
:100BE000F9F90B46024629462046CDE9142304F0C4
:100BF000B3F80023CDE9080113937BE61299199C01
:100C000041450A4638BF424694423FF67FAF4145D0
:100C10000A4628BF42469442FFF478AF1A9A1B99BD
:100C20008A423FF44BAF71E738B5234A2349244D3C
:100C3000244C1378002BFCD00B78DB07F9D52B68FC
:100C400020681B1A0E2BF4D91F211F4C1F4802F0DD
:100C500091FF1F4803F08CF91E4B1F4902222046CA
:100C600001F01CFA17211D4802F084FF0023102216
:100C70001B49174803F08CF902211A4802F07AFF49
:100C80001721194802F076FF002310221749104857
:100C900003F07EF90E4803F06BF9154915484C60D6
:100CA00000F098F80E49134800F09CF812491148DA
:100CB000BDE8384000F096B8A016FF1FB816FF1F19
:100CC000BC15FF1F201AFF1FF814FF1F80600000D3
:100CD0002C0BFF1F6D0400009808FF1FA060000090
:100CE000A814FF1F78600000B86000008814FF1F80
:100CF0009414FF1F9C14FF1F4814FF1F014800F0AD
:100D000099B800BF9C14FF1F2DE9F0411C481D4CF1
:100D1000DFF8AC8082B001F035F81B4801F0A4FA8E
:100D20001A4800F051F80026002704251849A16050
:100D3000C4F800802146A580C4E90467154B164C11
:100D4000164A174800F002FDDFF878E0154B0093D3
:100D50002146154B154AC4F808E0C4F80080A58068
:100D6000C4E90467124800F011FD124800F016FFB4
:100D70001149124802B0BDE8F04100F017BF00BFB2
:100D80009414FF1F5015FF1FF814FF1F9C14FF1F22
:100D90000C08FF1F79040000E014FF1F95040000F9
:100DA000A814FF1FE9040000B1040000CD040000F6
:100DB0004814FF1F8814FF1F2C0BFF1F3C15FF1F3B
:100DC000186000001C08FF1F0022026042600272CF
:100DD000704700BF19B1012303724160704701726F
:100DE0004160704738B50C46054611210E4802F0A7
:100DF000C1FE0E4803F0BCF89CB124210C4802F05F
:100E0000B9FE0A4803F0B4F8204600F095FC40B162
:100E10002A680AB906E01A469368002BFBD1946051
:100E2000A36038BD2C6038BDD06000002C0BFF1FC4
:100E3000E460000070B504464068036884B05B68F5
:100E4000984708B904B070BD61680B6801AD1B68B4
:100E5000284698472468002CF4D0206895E80E00B6
:100E600006682046B047A468002CF6D104B070BDD7
:100E700084B004A800E90E0004B07047F0B585B056
:100E800004AC04E90E00C368002B63D004461121B2
:100E900031489DF80770029D02F06CFEE0682F4912
:100EA00003680C225B68984700230A220399E068D4
:100EB00003F06EF8E0682A49036801225B689847EE
:100EC0002FB9E06805B0BDE8F04003F051B8E06824
:100ED0002449036811225B689847E0682249036847
:100EE00005225B6898470026E068204903680222D3
:100EF0005B689847314600230A22E06803F048F80F
:100F0000E0681B49036803225B68984795ED000B76
:100F10000221E06803F084F8E068164903680222C1
:100F20005B68984795ED020B0221E06803F078F8C2
:100F3000E0681149036801365B6803229847F3B201
:100F40009F4205F11005CFD8E06805B0BDE8F0403C
:100F500003F00EB805B0F0BD246100003861000058
:100F600058610000486100005C610000646100009D
:100F700068610000786000006C6100002DE9F04FAE
:100F8000A9B028AC04E90E009DF89730269921906D
:100F9000002B00F0B283013B828B1D92DBB2013348
:100FA000144601EB0313023AD0F820901C9392B23E
:100FB000631E013217930023079109EB82081F93E8
:100FC000CDF86490079BD3E9000104F051FB199A16
:100FD00080B2138812901D981A931946012813465F
:100FE00052881B9240F2F582144610460D468946FF
:100FF0009988DA88894538BF8946884228BF0846DB
:10100000954203F1040338BF1546944228BF1446A5
:101010009845EDD1129A8242C0F042824A4500F2D0
:101020003F82079BD3E9020104F022FB83B2A34273
:101030001E931A46C0F03482AB4200F23182179BF5
:10104000002B40F338831E9803F0C4FF02460B4682
:10105000CDE9042303F080FECDE90A01484603F000
:10106000B9FF129E04460D463046CDE9024503F015
:10107000B1FF02460B4620462946CDE9142303F072
:101080006BFE4E45324638BF4A464E454FF0000390
:101090002092324628BF4A46CDE908011393239295
:1010A0009B46CDF88890DDF864A0CDF89080BBE039
:1010B000002320462946002204F092FA002814BF9B
:1010C0000223002306930E9803F084FF06460F4682
:1010D0000F98CDE9006703F07DFFDDE902230446A8
:1010E0000D463046394603F037FEDDE90A2303F0AA
:1010F000E7FFDDE9042306460F462046294603F0B4
:101100002BFEDDE9082303F0DBFF02460B463046E9
:10111000394603F021FE0022002306460F4604F064
:1011200037FA002840F01482002330463946002266
:1011300004F056FA002814BF022300230C93424601
:101140004B462046294603F007FEDDE910230646FC
:101150000F46DDE9000103F0FFFD22468046894687
:101160002B46DDE9040103F0F7FD02460B4640463D
:10117000494603F0A5FFDDE9002304460D46DDE9FD
:10118000140103F0E9FD32463B4603F099FF224685
:101190002B4603F0E1FD002200238046894604F03F
:1011A000F7F9002840F0D18140464946002200234B
:1011B00004F016FA002814BF4FF002084FF00008A0
:1011C000DDE90023DDE9020103F0C6FD32463B46BE
:1011D00003F076FF22462B4603F0BEFD00220023DB
:1011E00004460D4604F0D4F9002840F0AC810023F9
:1011F00020462946002204F0F3F9002814BF0223F8
:1012000000230C9A06998A4200F06E81434500F053
:101210006B81139B83F0010313930BF101031FFAFE
:1012200083FB179B9B4543DA4FEA8B02131D524405
:101230003AF82B105288189214463AF803200E926E
:10124000534408465B880F93169103F0C3FE05468E
:101250000E462046CDE9105603F0BCFEDDE9022320
:10126000804689462846314603F076FDDDE90A23AB
:1012700003F026FFDDE9042304460D4640464946B7
:1012800003F06AFDDDE9082303F01AFF02460B466E
:101290002046294603F060FD0022002304460D4647
:1012A00004F076F900283FF403AF012306930AE720
:1012B0005B46DDF88890DDF890809B0019990A461E
:1012C0001A44CB5A52880E93184614460F9203F0D4
:1012D00081FE82468B462046CDE90CAB03F07AFEB8
:1012E000DDE9022306460F4650465946CDE9006720
:1012F00003F032FDDDE90A2303F0E2FEDDE9042319
:1013000004460D463046394603F026FDDDE9082344
:1013100003F0D6FE02460B462046294603F01CFD8C
:101320000022002304460D4604F032F9002840F064
:101330008B81002320462946002204F051F9002821
:1013400014BF0223002306931A9803F043FE82463B
:101350001B988B4603F03EFEDDE9022306460F464E
:101360005046594603F0F8FCDDE90A2303F0A8FED5
:10137000DDE9042304460D463046394603F0ECFC13
:10138000DDE9082303F09CFE02460B462046294671
:1013900003F0E2FC0022002304460D4604F0F8F8B6
:1013A000002840F04E81002320462946002204F008
:1013B00017F9002814BF022300230893DDE9002356
:1013C0003046394603F0C8FCDDE90C23CDE90001C5
:1013D0005046594603F0C0FC324604460D463B4693
:1013E000DDE9040103F0B8FC02460B46204629461D
:1013F00003F066FE524604460D465B46DDE91401E5
:1014000003F0AAFCDDE9002303F05AFE22462B4636
:1014100003F0A2FC0022002306460F4604F0B8F8B1
:10142000002840F00C81304639460022002304F0A9
:10143000D7F8002814BF0226002652465B46DDE995
:10144000020103F089FCDDE9002303F039FE2246A6
:101450002B4603F081FC0022002304460D4604F0D5
:1014600097F8002840F0E980002320462946002212
:1014700004F0B6F8002814BF02230023089A069946
:101480008A4200F0AC80B34200F0A980139B83F045
:1014900001031393139B002B1F9B18BF01231F9362
:1014A000079B1C9A1033934207937FF48BAD219ACC
:1014B00092F8303063B91F9B13B1D36803B19847DA
:1014C000219B9DF87C2083F8302029B0BDE8F08F67
:1014D0001F9B002BF4D1219B1B69002B00F0138173
:1014E000984700231F93EBE7069A012A33D0B8F1FF
:1014F000010F3ED00C9A012A5DD0012B7FF48DAEF6
:10150000169A0E98229C8242134638BF03469C428C
:101510003FF683AE8242134628BF03469C42FFF447
:101520007CAE189A0F981E9C8242134638BF034621
:101530009C423FF672AE8242134628BF03469C424D
:10154000FFF46BAE65E601235BE64FF0010837E67A
:1015500001230C93F3E51699209881420A46C6D8D8
:1015600023998A42C3D31E9A18998A423FF451AEF6
:10157000BDE716990E9C129DA1420A4638BF22462D
:101580009542B7D8A1420A4628BF22469542B1D318
:1015900018990F9C1E9DA1420A4638BF22469542CB
:1015A000A8D8A1420A4628BF22469542BFF431AED0
:1015B0000C9A012AA1D10E99209881420A469CD802
:1015C00023998A4299D31E9A0F998A423FF421AEF9
:1015D00093E71B98DDF8689004464D461AE5069A95
:1015E000012A34D0012E46D0089A012A00F08D80BD
:1015F000012B7FF44FAF1A9A0E988242134638BFE0
:10160000034699453FF646AF8242134628BF03463C
:101610009945FFF43FAF1B9A0F981E9C82421346D8
:1016200038BF03469C423FF635AF8242134628BF7F
:1016300003469C42FFF42EAF28E701231EE7012654
:10164000FBE601230893B9E6012306937CE6129991
:101650000E9C49450A4638BF4A469442C2D849457D
:101660000A4628BF4A469442BCD31E9A0F998A4222
:101670003FF40CAFB6E71A990E9C129DA1420A46A0
:1016800038BF22469542AFD8A1420A4628BF22461B
:101690009542A9D31B990F9C1E9DA1420A4638BFB3
:1016A00022469542A0D8A1420A4628BF224695422A
:1016B000BFF4ECAE98E7104603F08CFC02460B46F4
:1016C000CDE9042303F048FBCDE90A01484603F0C5
:1016D00081FC04460D461298CDE9024503F07AFCE0
:1016E0000B46024629462046CDE9142303F034FB7D
:1016F0000023CDE908011393E0E5219B93F83030F6
:10170000002B7FF4E8AE1F93DAE612991A9C494544
:101710000A4638BF4A4694423FF66AAF49450A46F0
:1017200028BF4A469442FFF463AF1E9A1B998A422F
:101730003FF4ACAE5CE700BF83680BB1002070479C
:101740004068B0FA80F04009704700BFF0B400264E
:101750000027C0E90A670025D1E90467858305628F
:10176000C260084A03610260074B8A888968016287
:101770004560856080F83050C0E90A6783618283E4
:10178000F0BC70472061000018600000F0B5002632
:101790000027C0E908670025D1E9046785828561D3
:1017A000C2620363094A0A4BB1F804E002600361B4
:1017B000059A8B68836142634560856080F8285094
:1017C000A0F814E0C0E90867F0BD00BF8461000024
:1017D000186000002DE9F04F8BB00AAC04E90E0050
:1017E0009DF81F40DDF850B01CB920460BB0BDE895
:1017F000F08F089D008F03F0EDFB95ED007B024616
:101800000B4651EC170B8DED007BCDE90223D5E99A
:10181000028903F0A1FA002206460F460023404643
:10182000494603F099FA3246CDE904013B46304679
:10183000394603F045FCDDE9042306460F46104611
:10184000194603F03DFC02460B463046394603F08C
:1018500085FA41EC100B03F049F9DDE9006700223D
:101860003046394600238DED040B03F0AFFE00280F
:1018700000F09A800022554B3046394603F06EFA4C
:1018800003F0CEFEABF8000000220023404649469C
:1018900003F09CFE002800F0908000224B4B404655
:1018A000494603F05BFA03F0BBFE012CABF80200E3
:1018B00076D9023CE4B2013405EB0413AA46069340
:1018C0001EE04046494603F049FA03F0A9FE002213
:1018D0000023ABF800003946304603F077FE0022C3
:1018E0003A4B002853D03046394603F037FA03F01C
:1018F00097FEABF80200069B0AF1100A9A454FD0FA
:10190000DAE90489DDE902234046494603F024FA76
:10191000DAE9066704460D460022002330463946C0
:1019200003F01AFA2246CDE900012B46204629464B
:1019300003F0C6FBDDE9002304460D4610461946B8
:1019400003F0BEFB02460B462046294603F006FA8A
:1019500041EC100B03F0CAF8DDE9040153EC102B45
:1019600003F03EFE002200230028C4D04046494632
:1019700003F02CFE0022154B0028A2D10022134BAD
:101980004046494603F0E8F903F04AFE9FE700228B
:101990000E4B3046394603F0DFF903F041FEA8E76D
:1019A00001200BB0BDE8F08F0022084BDDE90001FB
:1019B00003F0D2F903F034FE64E70022034B404603
:1019C000494603F0C9F903F02BFE6EE70000E03F43
:1019D0002DE9F04FB0F814B089B0804603A880E834
:1019E0000E00BBF1000F00F0CD800BF1FF3A1FFAA3
:1019F0008AFAD8F81890002400250AF1010A264630
:101A00002F4609EB8A0AB9F8000003F0E3FA024610
:101A10000B463046394603F0A1F90646B9F80200F4
:101A20000F4603F0D7FA02460B462046294603F03C
:101A300095F909F10409D14504460D46E3D158460C
:101A400003F0C8FA82468B463046394652465B461A
:101A500003F060FC524606460F465B462046294688
:101A600003F058FC002204460D4600233046394658
:101A700003F0ACFD002875D030460022464B3946B5
:101A800003F06CF903F0CCFD06460022002320464B
:101A90002946B6B203F09AFD10B300223E4B204611
:101AA000294603F05BF903F0BBFD07ABA8F83A0049
:101AB000A8F83860009303AB0ECB4046FFF78AFED0
:101AC000B8B998F828302BB9002388F8283009B025
:101AD000BDE8F08FD8F83030002BF5D09847F3E709
:101AE00000222D4B2046294603F036F903F098FDDD
:101AF000DBE7079908F11000FEF71CFD0028E0D095
:101B000098F82830C3B3B8F81430BDF81C10B8F8F2
:101B10003850BDF81E20B8F83A40B3B1581E80B214
:101B2000D8F818300130141B4D1B03EB80009A1CB1
:101B300032F8021C294422F8021C59882144598099
:101B40000433984202F10402F2D1D8F834301BB1C8
:101B5000984798F828307BB1012388F8283009B0DD
:101B6000BDE8F08F304600220B4B394603F0F4F805
:101B700003F056FD064688E7D8F82C30002BEBD052
:101B80009847E9E74FF0000A4FF0000B54465D46D6
:101B900056465F4658E700BF0000E03F024A026039
:101BA00000224260826070471461000010B4044C4F
:101BB00004600022C160426082605DF8044B70479F
:101BC0007861000010B5002382B0044603704370B2
:101BD0008370C3704360836032B1012381704260BF
:101BE0000370204602B010BD0801019103F08EFD84
:101BF0000028F6D0012301996060A1702370637002
:101C00002B21034801F0B6FF024802F0B1F9E8E7E2
:101C1000886100002C0BFF1F30B50C4689B04D4A7F
:101C200005210546FFF7CEFF616801A800F012F913
:101C30009DF80430EB70013B042B7DD8DFE803F006
:101C4000818385870300BDF916006C6807EE900A52
:101C5000F8EEE77A17EE900A03F0DEF9BDF91830D6
:101C600007EE903AF8EEE77AC4E9100117EE900A11
:101C700003F0D2F9C4E91201BDF9120007EE900A8F
:101C8000F8EEE77A17EE900A03F0C6F9BDF91430C2
:101C900007EE903AF8EEE77AC4E90C0117EE900AE5
:101CA00003F0BAF9C4E90E01BDF90E0007EE900A7F
:101CB000F8EEE77A17EE900A03F0AEF9BDF91030AE
:101CC00007EE903AF8EEE77AC4E9080117EE900AB9
:101CD00003F0A2F9C4E90A01BDF90A0007EE900A6F
:101CE000F8EEE77A17EE900A03F096F9BDF90C309A
:101CF00007EE903AF8EEE77AC4E9040117EE900A8D
:101D000003F08AF9C4E90601BDF9060007EE900A5E
:101D1000F8EEE77A17EE900A03F07EF9BDF9083085
:101D200007EE903AF8EEE77AC4E9000117EE900A60
:101D300003F072F9C4E90201079BAB60284609B0C1
:101D400030BD6C68E0E76C68C6E76C68ACE76C684F
:101D500092E700BF6815FF1F436883B193F84120E5
:101D600010B5044622B95A7912B993F8400010BD53
:101D7000184600F033FA636893F8400010BD184627
:101D8000704700BF024A026000224260704700BFF5
:101D9000BC61000090F8392090F83800101A7047A4
:101DA00090F8383090F839209A4205D95A1C0344EB
:101DB00080F83820187E70474FF0FF30704700BF22
:101DC000704700BF02780B789A4201D0002070471C
:101DD000B0F90220B1F902309A42F7D1B0F90420EB
:101DE000B1F904309A42F1D1B0F90620B1F90630C8
:101DF0009A42EBD1B0F90820B1F908309A42E5D106
:101E0000B0F90A20B1F90A309A42DFD1B0F90C20BA
:101E1000B1F90C309A42D9D1B0F90E20B1F90E3097
:101E20009A42D3D1B0F91020B1F910309A42CDD1F5
:101E3000B0F91220B1F912309A42C7D1B0F914208A
:101E4000B1F914309A42C1D1837D887D1B1A584262
:101E500058417047F0B50B6989B00C460646002B17
:101E60003AD0B1F818E0BEF1000F35D04A7F002A11
:101E700032D0CD8A05F1010C1FFA8CFCC5EBC505EB
:101E8000A1F816C003EB85050FCD01AF0FC7E645DE
:101E9000A38A98BF4FF0000C95E8070098BFA4F8FC
:101EA00016C0634504BF00236377638B9BB287E84A
:101EB00007005A1E92B262830BB984F8403001AD1C
:101EC0000FCD37460FC795E80700012387E80700C5
:101ED0003046237709B0F0BD002384F84030203429
:101EE0000FCC35460FC594E8070085E8070030465B
:101EF00009B0F0BD704700BF2DE9F04706468AB033
:101F00000F468068317B01231F2200F0FDFB1F2854
:101F100009D00124204684225C49FFF7EBFF2046CC
:101F20000AB0BDE8F0875A4AB36812680192019A74
:101F30001C68DFF86081DFF86091BA61002520E05D
:101F400093F8394093F83830E41A5FFA85FA14B3FD
:101F5000B3681C686169494528D193F8381093F833
:101F600039208A4201F1010E03EB010024D983F8E4
:101F700038E0B368007E1C680AAA5244013502F8B2
:101F8000200C22694245DBD01846904704465FFA90
:101F900085FA002CDCD19DF80A309DF80920BA752D
:101FA00003F00F033B704BB90024B3E71846884792
:101FB000B368C0B21C68DFE7FF20DDE79DF80B00C7
:101FC0009DF80C1000F00F0002F006F99DF80D309E
:101FD00078809DF80E1003F00F0002F0FDF83B78BA
:101FE000B880012BE0D99DF811009DF8121000F087
:101FF0000F0002F0F1F89DF81330F8809DF81410EE
:1020000003F00F0002F0E8F83B783881022BCBD9BF
:102010009DF817009DF8181000F00F0002F0DCF892
:102020009DF8193078819DF81A1003F00F0002F026
:10203000D3F83B78B881032BB6D99DF81D009DF8E5
:102040001E1000F00F0002F0C7F89DF81F30F88155
:102050009DF8201003F00F0002F0BEF83B783882A4
:10206000042B7FF657AF9DF823009DF8241000F055
:102070000F0002F0B1F89DF8253078829DF8261007
:1020800003F00F0002F0A8F8B88243E7D061000027
:10209000BC15FF1F951D0000A11D0000FF2A70B593
:1020A00004460D4611D01E467BB100210123427328
:1020B00010466171237100F057FE607B4028314665
:1020C00028BFFF20022200F0BBFD2846A56000F0DB
:1020D00039F9227BA3685200012183F83B2083F861
:1020E0005E1083F85D10A068036800211B689847A4
:1020F000A068036800211B689847217BA06800F056
:1021000079FACE2202490020FFF7F4FE002070BDCC
:10211000D06100002DE9F84F046906468846002C7E
:1021200049D0038B002B46D09146002A4BD0037F29
:10213000002B38D04FF0000CE646E346858A4FF07E
:10214000010A08E01FFA81FEF1453CD0337F0CF113
:102150001C0C43B334696B1CB38208EB0C070FCF24
:10216000C5EBC50504EB85040FC497E8070084E8B8
:102170000700738BB58A328B86F81DA001339BB2A2
:10218000AA427383F38A9CBFA6F814B00025AB4221
:102190000EF10101D6D10EF1010E1FFA8EFE0023C1
:1021A000F14533770FD99F220B490120FFF7A2FE9B
:1021B0000120BDE8F88FB8E80F0020360FC698E878
:1021C000070086E80700A72203490020FFF792FED8
:1021D0000020BDE8F88F00BFD061000030B589B0A5
:1021E00001A90446FFF788FE0546F0B9134B84F8B1
:1021F00041001B680093009BE36304F1200101A8E8
:10220000FFF7E0FD40B14FF4AA720D490020FFF73F
:1022100071FE284609B030BD01A901222046FFF712
:1022200079FF012384F84030EDE740F24912044978
:10223000FFF760FE284609B030BD00BFBC15FF1F88
:10224000D0610000704700BF08B5012380F841301D
:10225000FFF7F8FF40F26D1202490020FFF74AFE37
:10226000002008BDD061000030B401223825FF24D1
:102270004271124905730022447301600271826049
:1022800002618282C282028342830277427782772E
:1022900080F8402080F84120C26380F820204284EA
:1022A0008284C284028542858285C28502864286F6
:1022B000828680F83620826330BC7047CC61000093
:1022C0000020704790F8383090F839209A4286BF45
:1022D0001B18187E4FF0FF30704700BF704700BFDB
:1022E00038B50546B0F85E0090B195F85D301446FB
:1022F000C3F1210294420CD805F13B001844224658
:1023000000F026FB95F85D30234485F85D302046CB
:1023100038BD012014462871EEE700BFB0F85E30EA
:102320006BB190F85D30202B07D8C218013380F8CC
:102330005D30012082F83B107047012303710020BB
:10234000704700BF0023426980F8383080F8393088
:1023500080F85C3080F85D3080F85E3080F85F3067
:1023600006CA30B40D68046943662A4383660A606E
:10237000A370426990F861301649146813441D7ABD
:102380005B7B01EBC5051B026D6803F4E06343F062
:1023900064032B6090F8623013449D7CDB7D01EB7D
:1023A000C5011B02496803F4E06343F064030B605A
:1023B00021685368194205D003692C225A700369B9
:1023C00004229A71036920225A71036980229A704B
:1023D00030BC7047AC62000038B50269D478E4B212
:1023E000E106054624D51023D37063061FD504F0FB
:1023F000040404F0FF03002C5AD042496A6E002303
:102400000B7085F85D30002A66D0904795F85D30F6
:10241000002B61D02B69D0229A702B6995F83B2054
:102420001A712B69012285F85C200222DA7038BD0E
:1024300004F0400303F0FF00002BD8D19379DBB206
:1024400003F0600160294ED0937803F0100303F08D
:10245000FF01B3B114F0010437D195F85C3095F861
:102460005D1099424BD9591C2B4485F85C1093F8A8
:102470003B3013712B69D0229A702B690222DA70DB
:10248000D5E785F86010937943F0200393712B69A9
:1024900095F839101A791F29D2B2C6D81948007890
:1024A0000028C2D06818013185F839100276BCE7DF
:1024B0002A6985F83930C02393702B69114A19793C
:1024C000012111700222DA70B1E7C02393702B69E9
:1024D0001A790222DA70AAE70122002385F85D202A
:1024E00085F83B3096E703F0DF039371AB6E23B1C1
:1024F00085F8380095F8390098472A69A4E71471DF
:10250000B8E700BFB815FF1F2DE9F047374FDFF8D8
:10251000E0903B68026982B006460093DDF80080D7
:1025200000214FF49675D3789B065BD53B680193E9
:10253000019BC8EB03030F2BF5D949B1102BF2D047
:1025400000209070336980229A7002B0BDE8F08755
:10255000726996F8613013440521187A00F004FC82
:10256000726996F861301344012193F812A0504625
:1025700000F0FAFB09240021504600F0EFFB2B4647
:10258000013BFDD10121504600F0E8FB2B46013B09
:10259000FDD1013CEFD1706996F8611001444FF410
:1025A00016720C7A4B7B09EBC4011B02496803F4D9
:1025B000E06343F064030B6096F862300344997C57
:1025C000DB7D09EBC1011B02496803F4E06343F0C2
:1025D00064030B60013AFDD13269D3789B064FF05A
:1025E0000101A3D4012002B0BDE8F087BC15FF1F94
:1025F000AC620000F0B503691222DA7002699378C8
:1026000003F0200385B004460D46002B5ED0B423B2
:1026100093703C4922690B680093009E05E00B68AB
:102620000193019B9B1B042B42D8D37803F020031A
:1026300003F0FF00002BF2D094F85D30002B31D076
:102640004FF0000E4FF0020C04EB0E0393F83B30FA
:1026500013710B680393039F206907E09B060DD558
:102660000B680293029BDB1B052B28D8C378DBB2D7
:1026700003F0020202F0FF06002AEFD080F803C048
:102680002669F378DBB2DF0632462DD49F062BD5C0
:10269000DB0731D40EF1010E94F85D305FFA8EFE47
:1026A0007345D1D800201DBB002384F85E3004E0C0
:1026B0009070236980229A70042005B0F0BD867066
:1026C0002369802204209A7005B0F0BD03F0FF0654
:1026D000FFF71AFF10B9042005B0F0BD236984F894
:1026E0005F60B0229A7094E78023B3700420DAE729
:1026F00026698023B370D7E7BEF1000F0CBF02201C
:102700000320F6E7BC15FF1F2DE9F04106690025FF
:10271000122780F8385080F83950F770D0F810C080
:102720009CF802E00EF0200E88B00446884615465C
:102730001E46BEF1000F49D0B4238CF802307A4B0C
:1027400021691A680092DDF800E006E01A6801923B
:102750000198CEEB0000042830D8C87800F02000A3
:1027600000F0FF070028F1D04FEA480242F00102D2
:10277000D2B20A711A680292DDF808E0206906E018
:102780001A6803920399CEEB010105292AD8C17872
:1027900001F0020101F0FF070029F1D04FF0020C17
:1027A00080F803C02269D17811F0110722D12DBB26
:1027B000002E0CBFA0238023937003E08F70236949
:1027C00080229A70384608B0BDE8F0810EF0FF070D
:1027D000FFF79AFE0028F5D0236984F85F70B022D5
:1027E0009A70ACE787702369802238469A7008B0E7
:1027F000BDE8F081802393700027E3E7012D78D0B6
:10280000A021917021690A79BE4667464FF0A80C55
:102810001A680492049805E01A680592059A121A3B
:10282000052A4DD8CA7802F0020202F0FF08002AF9
:10283000F2D0CF702169CA78D2B212F0100F0846D8
:102840005DD192065BD5013DEDB2012D4CD0BEF1BC
:102850001F0F3ED90A79012DDAD11A680692069D1A
:1028600005E01A680792079A521B052A56D8C278C3
:1028700002F0020202F0FF01002AF2D00223C3702C
:102880002269D378DBB2D9063BD49B0637D5B02377
:10289000BEF11F0F937043D8226904EB0E03127927
:1028A0001A760EF1010E5FFA8EFE00BF00BF00BF68
:1028B00016B1236980229A7084F839E0774681E75F
:1028C00081F80280236980229A70774684F839E083
:1028D00078E704EB0E0291F8048082F818800EF17C
:1028E000010E5FFA8EFEB6E781F802C02169084644
:1028F000ADE7A82191702069BE460279ADE7774621
:1029000060E710214FF49673D170013BFDD122692D
:10291000937803F0F7037746937053E78170D1E71C
:1029200023691B79C1E700BFBC15FF1F0148FFF7F2
:1029300053BD00BF9808FF1F0148FFF74DBD00BF02
:102940000409FF1F0148FFF747BD00BF2C08FF1F08
:10295000844641EA000313F003036DD1403A41D3AA
:1029600051F8043B40F8043B51F8043B40F8043B69
:1029700051F8043B40F8043B51F8043B40F8043B59
:1029800051F8043B40F8043B51F8043B40F8043B49
:1029900051F8043B40F8043B51F8043B40F8043B39
:1029A00051F8043B40F8043B51F8043B40F8043B29
:1029B00051F8043B40F8043B51F8043B40F8043B19
:1029C00051F8043B40F8043B51F8043B40F8043B09
:1029D00051F8043B40F8043B51F8043B40F8043BF9
:1029E000403ABDD2303211D351F8043B40F8043B99
:1029F00051F8043B40F8043B51F8043B40F8043BD9
:102A000051F8043B40F8043B103AEDD20C3205D3A8
:102A100051F8043B40F8043B043AF9D2043208D0A0
:102A2000D2071CBF11F8013B00F8013B01D30B8812
:102A300003806046704700BF082A13D38B078DD0F0
:102A400010F003038AD0C3F10403D21ADB071CBFC2
:102A500011F8013B00F8013B80D331F8023B20F82C
:102A6000023B7BE7043AD9D3013A11F8013B00F865
:102A7000013BF9D20B7803704B7843708B788370ED
:102A80006046704708B5104C08E0236859050DD41E
:102A900023681A050FD42368DB0411D42368580374
:102AA000F3D500F027FB23685905F1D501F0BEFCF2
:102AB00023681A05EFD501F04FFD2368DB04EDD53F
:102AC00001F0E0FDEAE700BF3480044008B5FFF7FD
:102AD000D9FF00BF014B10221A807047002005402B
:102AE000704700BF094908B50B6830B16A46184401
:102AF000A2F50052904202D20860184608BD02F0CA
:102B0000D7FD0C2303604FF0FF3008BD7009FF1F95
:102B1000084A1378802B01D0002070470649074BE4
:102B200007480860002119701378802BFCD0012021
:102B3000704700BF03E007404480044001E00740C5
:102B400000002822094A1378012B01D00020704789
:102B500003F1804303F5FC23602119701378802B67
:102B6000FCD1034B034A1A600120704703E0074081
:102B70004480044000000602704700BF10B4114BAF
:102B800053F8302092F8804234B1012379B182F8B1
:102B900080305DF8044B704703EBC0035B681A6834
:102BA00051B922F002021A605DF8044B704782F8B6
:102BB00000315DF8044B704742F003021A605DF883
:102BC000044B7047AC6200001C4A02EBC0030129B1
:102BD0005B6811D004291BD052F83000002280F825
:102BE000802229B1022920D0032922D01A607047FF
:102BF0004FF480721A60704752F830004FF4A2729E
:102C000080F880121A601A6822F020021A60704759
:102C100052F830104FF4A272012081F880021A603D
:102C20001A6842F020021A60704740F203121A60DC
:102C300070474FF481721A60704700BFAC620000A9
:102C40003F2817D8F8B5042A13D8DFE802F0494C1A
:102C50004F1446002C4872B6236823F4702343F0C7
:102C60008072C4F384011643236040F8215026602B
:102C700062B6F8BD70474FF41026244B03EBC00337
:102C80000D465C68216811F4E06134D0204B214A84
:102C90002149C3F82C2104F140422048C3F83411E3
:102CA000A2F592211E4FC3F830017C291D48C3F8BC
:102CB0003871C3F83C01CDD9A2F594237C2B18D9E7
:102CC000A2F596237C2B19D9A2F598237C2B17D932
:102CD000A2F59A227C2A15D9F8BD4FF43026CCE70C
:102CE0004FF40026C9E74FF44026C6E74FF42026EC
:102CF000C3E70D48AFE7FFF767FFC7E70B48AAE751
:102D00000B48A8E70B48A6E77409FF1FAC62000058
:102D10000002FF1FE107FF1F8907FF1FB507FF1F05
:102D20005D07FF1F3107FF1FEC09FF1F4C0AFF1F44
:102D30007C0AFF1FBC0AFF1F30B4054B054D064C33
:102D4000002210211A602A602060196030BC704790
:102D500014D0034004D0034000D003403F2801D8E2
:102D6000FFF70CBF704700BF3F2801D8FFF72CBF0B
:102D7000704700BF2DE9F843054672B6224F234B3A
:102D8000234A1B683C68126862B6520102D5322B96
:102D900088BF0134B5B3C3F52F3303F21F331D4E83
:102DA000DFF86890DFF868809B084FF47A72A6FB22
:102DB000031302FB04F404EB930472B6D9F8001079
:102DC0003A68D8F800E062B6C1F52F3303F21F333A
:102DD0009B08A6FB03031EF0806FC4EB93034FF424
:102DE0007A7002D0322988BF013200FB0233B3F57A
:102DF0007A7F04D3013D05D004F57A74DDE701F054
:102E00000DFADAE7BDE8F883BC15FF1F18E000E013
:102E100004ED00E0176CC116F8B54E4B4E48DFF8D4
:102E20005CC14E4C4E49DFF858E14E4E4E4D4F4F6F
:102E30004FF000621A604FF080521A604FF000525B
:102E40001A604FF080421A604FF000421A60002270
:102E5000026028234EF6FF70CCF80000CEF8003058
:102E600023600EF5012E0B6033602B6006F5002603
:102E70003B6005F50025A36207F500278B6204F58A
:102E8000012401F5012106F6E87605F6E87507F557
:102E90007F6710310EF1100E203433602B60CEF8B6
:102EA00000303B600B602360314CBB618B610921BA
:102EB0002160A7F5002704F58054203F08343A60CC
:102EC0002060BB60E36047F8041C04F5FD2407F5AF
:102ED000FE27043704F2FC7422603860A360FB60B4
:102EE00044F8041C083404F6FC74C7F8FC2F206076
:102EF000A4F5E124A4F2DC7433602B60C7F8F81F5A
:102F000021681C4841F40071216001681A4C0EF5DB
:102F10007F4E0EF1E80E07F5883706F5803605F589
:102F2000803541F000710160CEF8002047F6FF7156
:102F30000822396033602B60226001F0D1F919203A
:102F4000FFF718FF00F002FD40F21310BDE8F84053
:102F5000FFF710BF04E100E0048003401480034049
:102F60001C800340248003402C80034034800340B5
:102F7000008003400480044000900C40088003401F
:102F80000C800340431E032B14D872B60A4951F833
:102F9000230068B170B4094C058834F813204668E2
:102FA00041F82360521B24F8132062B670BC7047AE
:102FB00062B67047002070471816FF1F101AFF1FD7
:102FC000013803280BD872B6074B53F8203043B1B1
:102FD00000205B680130002BFBD162B670470020F7
:102FE00070471846F9E700BF6C16FF1FF0B472B6C1
:102FF0001A491B4E012311F8014B194F9A0024075F
:1030000042F0010505D556F8324064B156F8352036
:10301000BAB10133052BEED162B6124B00221A7001
:10302000F0BC00F01BBD0F4C0F4D217847F832501B
:1030300007EB431308304A1E5860227062B6F0BC9A
:1030400070470849094B0A7847F8353007EBC50344
:103050000830013A58600A7062B6F0E7E464000094
:103060000000FF1F9516FF1F88004000C8004000A9
:10307000431E032B1DD81B4A400140F0100030B402
:10308000104472B6184CE25C032A1BD8DFE802F049
:103090000212151703220D88E25410F0080F14BF16
:1030A000C823882343EA054308310360416062B6C0
:1030B00030BC704708300222EDE70522EBE708300C
:1030C0000422E8E7094A52F8230038B1084A52F8C6
:1030D0002300416042F8231062B6E9E742F823106A
:1030E000034AF7E70000FF1FA416FF1F6C16FF1F1F
:1030F0007C16FF1F2DE9F04FDFF804A3DFF804B3BF
:1031000087B044E0A94F4FEA930807EBC809013E96
:10311000D9F8042003F00803F6B2A2F1080003F086
:10312000FF04002B40F0FE8057F838301B0C99B29A
:1031300022F8081C002B00F0EC809D4B22F8064C76
:1031400042F8044C53F82620002A00F02B82994DB7
:1031500055F826305860984C45F8260034F816305B
:10316000194424F8161000F059FC002800F01382CE
:10317000924A934B19F0080F00F1080018BF13464C
:10318000C9F8040047F8383008238AF800309AF864
:103190000040E4B260071AD58A4B1B78A3B18A4974
:1031A0000A7802F0FF0322B1013BDBB20B7003B9D6
:1031B00000BE86490A7802F0FF032AB1013BDBB268
:1031C0000B70002B00F0BD8104238AF8003004F05E
:1031D000080303F0FF02002B00F0C8809BF80030CA
:1031E000DBB21E098ED19C08704F57F8342007EBD4
:1031F000C401C2F38302013A49680C2A00F28580B7
:10320000DFE802F079798383838383834283838336
:10321000070008686E4B6F4D0193684B4A686E4E0D
:1032200047F8343081B240F28164694B6A602860AB
:1032300000220120A1421A603A61BA61307000F2A6
:10324000E380B1F5D06F80F02782B1F5817F00F087
:10325000E08100F2C381802900F03682822940F0AB
:10326000DE81A9885D4B01F07F01042900F2D8813D
:103270005B4C89000B44227062701A78930740F10E
:1032800022832070022023E2514B01931A683AB343
:10329000544B514E5449188834780D78402886464E
:1032A00045F0020828BF4FF0400E002C84F00104C6
:1032B0003470CEEB00000CBF8824C82407EBC8068E
:1032C00080B285F0010544EA0E447260188047F828
:1032D000384072440D70002800F0B780019B1A60DE
:1032E0003C4B1A88B2F5A06F0FD100219A78597023
:1032F0003E4B1A7009E0374A108842F22102904290
:1033000000F0A8802D4A47F83420394A0123137071
:103310003AE72A4A2A4B19F0080F18BF134647F814
:10332000383031E700F09AFB324A334952F8263000
:10333000002B00F03B8158688C5D42F8260003F1B9
:103340000802C9F80420032C05D8DFE804F02C0299
:10335000292602228A551A8819F0080F0CBF8823E3
:10336000C82343EA024347F838300DE7E00700F18D
:10337000EB80210600F12881A20706D51F4A2049CB
:1033800013780220DBB213700870E30602D51C4BE1
:1033900010221A7007B0BDE8F08F04228A55DAE7D0
:1033A00005228A55D7E703228A55D4E70000FF1F7C
:1033B0001816FF1FC415FF1F101AFF1FC80040007A
:1033C00088004000A016FF1F2916FF1FA816FF1F28
:1033D000C015FF1F8C16FF1F2816FF1FC0200740B7
:1033E0009816FF1FD415FF1F9416FF1F9820074043
:1033F000942007406C16FF1FA416FF1F882007406B
:10340000802007409020074042F22104A14200F0B2
:10341000948043D8B1F5086F00F0A881B1F5106F22
:1034200040F0FD80B84AB94CA978117004F18005CC
:1034300003E00834AC4200F09E81236A1906F8D5F7
:10344000606A083800F00AFBF3E7BEF1400F18BFCE
:10345000002243E7AE4ACD1D11F8013B02F8013FBF
:10346000A942F9D1AB4A1268862A00F01181AA4913
:10347000AA4E0A78307882F00105002842F0020254
:103480000D700CBF8821C82147F8321007EBC2022B
:1034900080F0010000213070516033E742F22124B6
:1034A000A14240F0FE81DFF8BCC29D4B9D49AC7843
:1034B000DCF800501D6081460C70002002908046B0
:1034C0008446044694490D7845F0020E07EBCE037E
:1034D000B9F1000F5C600CBF8824C82444EA0803DB
:1034E00085F0010447F83E3032700C70DFF81CE2C2
:1034F0008A4BDFF82482002840F09880BCF1400F0E
:103500001BD144F0020407EBC403029FDFF8FCE187
:103510005F60002A40F09F80020442F08802074466
:103520004EF8342086F800900D703B46402804D1B8
:1035300000207D4A019910800B607C4A01231370A2
:10354000E3E600F0F7FB3FE6704B784872491A61FA
:103550004FF0020E80F800E0754F0A70754919604F
:103560009960754E754D764C9A610D213970FF2129
:103570003170DFF8F4E129702270724D724A8EF8D2
:1035800000109F27012406F8047C5D600470DA6057
:1035900007B0BDE8F08F6D4A47F838001378013363
:1035A0001370F1E543F82600694DD4E58B5D032BDC
:1035B00067D801A252F823F0893100008931000058
:1035C0000D3600000736000059495C4B80220D2063
:1035D00008701A70A2077FF5D8AECFE640F202322B
:1035E000914240F05681A98801F07F01042916D844
:1035F0006A88A2B94E4C89000C448146217841F07A
:103600000201217059E701238B55BDE500238B553D
:10361000BAE5A98801F07F01042940F24781444BB3
:103620000F221A70414A012313706EE640287FF67C
:1036300068AF44F002040EEBC401029E4E60AAB1D2
:10364000444A83F800903346403888F800504033AD
:103650004EF834206DE70204029B86F8009042F099
:10366000C8020D7003444EF834205FE783F80090E1
:10367000029B304A88F80050403840334EF83420DE
:1036800057E719F0080F0CBF022303238B557BE586
:10369000314A0F211170EAE6304A5468002CBED03E
:1036A0006888B5F804E003E00C325468002CB6D00A
:1036B00013888342F8D153887345F5D1000A032853
:1036C0000CBF2078108903E0254C02202270627024
:1036D000EA88824280F00C810F490D78402A45F03B
:1036E000020E944607EBCE0028BF4FF0400C04EBCF
:1036F0000C0344600293CCEB02004FEA0C484FF0FD
:1037000001090022C824E9E6A016FF1F0000FF1FE0
:10371000171AFF1F181AFF1F9416FF1F2816FF1FE6
:10372000201AFF1FB816FF1FD415FF1F9420074053
:10373000C0200740880040008820074080200740C4
:1037400098200740D815FF1F2C16FF1F9516FF1F46
:10375000C415FF1FC80040002916FF1FE8640000C1
:103760009816FF1FBC15FF1F8C200740684A694C44
:1037700012782270ACE76849684B694A029169493E
:10378000694C6A4D039405964FF0000988461C4623
:1037900016460495206828B1456800F05FF9284670
:1037A000002DF9D100232360049B30681A460023C2
:1037B00042F8293028B1456800F050F92846002D1C
:1037C000F9D100223260029A98F8003011460022A6
:1037D00041F8042B039A0291023B4FF0000122F8BA
:1037E0001910032B07D8DFE803F0340234024FF03E
:1037F000010388F8003009F10109B9F1040F04F15F
:10380000040406F1040608F10108C3D1484B059EE3
:10381000DFF83091DFF8308100211970012518F8A8
:10382000013B09F8043B1A0718D4AC0044F002022B
:1038300044F00304002347F8323047F834303D4B5E
:10384000994505F10105EAD196F8009089F0010249
:1038500033E64FF0000388F80030CCE700F0DEF8E4
:10386000AC0007EB451300F10802002837D05A607E
:10387000314B47F8343000F0D1F844F0010307EB46
:10388000C30200F1080100B351602C4A47F833200D
:10389000CCE7B1F5A06F7FF4C2AE00224FF0010972
:1038A0000BE642F221329142F7D0B8E66A88002A4C
:1038B0007FF4B5AE224C89000C448146217821F07A
:1038C00002012170F9E5022002E7194B44F00102E0
:1038D0001B7847F83200164A01331370A6E7144BE1
:1038E000134A1B78AC00013347F834001370C2E769
:1038F0004028844628BF4FF0400C04EB0C03CCEB6F
:1039000000004FEA0C48029300224FF00109D9E56C
:10391000A016FF1F9816FF1F7C16FF1F1816FF1F0B
:103920006C16FF1FA416FF1F101AFF1FC415FF1FE0
:103930009516FF1FD420074088004000C8004000B3
:10394000C0200740C4200740E46400002DE9F04196
:10395000274C01F07DF8002204F1880023461A600C
:103960005A60083383424FF00001F8D12148224ABF
:103970000368DFF89CE0214E214D224FDFF894C010
:10398000DFF8948043F480230360136843F04073AE
:10399000136003238EF80030A023337002F5C92290
:1039A000C4F3072300F528302B708030C4F307439D
:1039B00010323B70240EFF230470134D8CF800303E
:1039C000124888F800301370012306F8AC3C4FF41D
:1039D00000140EF8441C7026102107F82C3C2E70A1
:1039E000046082F8F810AEF1440EBDE8F08100BF2B
:1039F0000000FF1F3480044000D8004040210740F1
:103A00009C200740B020074035E400E004E100E0DE
:103A100044210740802007408820074072B60D48A7
:103A20000268B2FA82F30B2B10DC4FF00041D94050
:103A300022EA0102026062B6074803EBC303DB001F
:103A4000C2180021C15010465160704762B6002074
:103A5000704700BF280BFF1FD003FF1F0D4B0E4AFE
:103A6000C31AA2FB03231B090B2B0CD80B4A127899
:103A700052B972B60A484FF00041026821FA03F3C6
:103A80001A43026062B67047064A1278002AF0D0E4
:103A9000FFF7ACBAD003FF1F398EE3389516FF1F2E
:103AA000280BFF1FA016FF1F38B50F4D286878B1EF
:103AB00043880288C118013393420C7A02D24380B2
:103AC000204638BDFFF7CAFF002320462B6038BDD3
:103AD000064B1B782BB10320FFF754FA286000280F
:103AE000E6D14FF0FF3038BDB416FF1FA016FF1F00
:103AF00010B5094C206818B143881844007A10BDED
:103B0000064B1B782BB10320FFF73CFA20600028FE
:103B1000F2D14FF0FF3010BDB416FF1FA016FF1FEB
:103B2000044B054A1B6890881BB11A885B88D31A1E
:103B300018447047B416FF1F101AFF1F0B4B1B7859
:103B40009BB110B50A4C206848B1FFF787FF0023EE
:103B500003202360FFF716FA30B1FFF77FFF032041
:103B6000FFF710FA0028F8D110BD7047A016FF1F0C
:103B7000B416FF1F2DE9F04FDFF8F89083B0012253
:103B800089F80020019169B3DFF8EC80354F019E80
:103B90008346D8F80000B0B3334D4488C4F14001E7
:103BA000B14228BF314604EB010E00221FFA8EFEFF
:103BB0002A70761AA0F802E000F1080251B1013C27
:103BC000224459441BF8014B02F8014F8B45F9D1AF
:103BD000B0F802E0BEF13F0F0BD8244A0521117066
:103BE000002ED6D10198002389F8003003B0BDE83B
:103BF000F08F4022028001460420FFF739FA0022AC
:103C0000C8F80020E9E73A7822B3194C164D4FF076
:103C1000010A07E0013C16D02A78A2B900F0FEFAAA
:103C20003A78BAB10420FFF7CBF90728F2D889F81F
:103C300000A0FFF7F3FEC8F800000028ADD10D4B3F
:103C4000013C1870E8D101234FF0FF302B7003B016
:103C5000BDE8F08F00234FF0FF3089F8003003B04B
:103C6000BDE8F08FA016FF1FB016FF1FA816FF1F9C
:103C700021480100A916FF1FAC16FF1F00B583B035
:103C800002AB012103F8010D1846FFF773FF03B0E3
:103C90005DF804FB38B50E4D0E4C286801232370E7
:103CA00028B1408800232370C0F1400038BD0A4B82
:103CB0001B7813B90020207038BD0420FFF780F96D
:103CC0000728F7D8FFF7AAFE28600028E9D1F1E716
:103CD000AC16FF1FA916FF1FA016FF1FF8B5114B4A
:103CE0001B788BB1104E114D346801272F7064B1D1
:103CF0000F4A638800271770214623800420FFF7AE
:103D0000B7F9376000232B70F8BDFFF787FE084B2B
:103D100028B1014604201C70FFF7AAF9F2E71F70D2
:103D2000F0E700BFA016FF1FAC16FF1FA916FF1F6C
:103D3000A816FF1F38B50E4B1B7873B90D4C2168C0
:103D400061B103F0FF054B880B800420FFF790F969
:103D5000256038BD084B01221A7038BDFFF75EFEA2
:103D60000028F7D00146BDE838400420FFF780B9AD
:103D7000A916FF1FAC16FF1FA816FF1F10B4EFF304
:103D8000108272B6437F33B9017F012908D003291D
:103D900010D00123437702B962B65DF8044B704737
:103DA000114C2168A1B1114943610B68836108601E
:103DB0005861EEE70E4C216881B10E4943610B68F2
:103DC0008361086058610C4B4FF080511960E0E747
:103DD000064B4161816120601860DAE7054B416163
:103DE000816120601860EEE7CC16FF1FC816FF1F28
:103DF000BC16FF1FC016FF1F04ED00E010B4047FC7
:103E00004160022CC26003D05DF8044BFFF7B6BFDF
:103E100083685DF8044B184770B5EFF3108272B6F3
:103E20000C4C206880B10C4E00254369236073B1AF
:103E30009D6102B962B6457783689847EFF31082B7
:103E400072B620680028F0D102B962B670BD336046
:103E5000EFE700BFBC16FF1FC016FF1FFFF7DCBF58
:103E6000184A30B41468002C27D0036821688B42AC
:103E70000ED2CB1A00218460C1602360E060106024
:103E80000223037530BC704711688B42144608D377
:103E9000A2685B1A0360002AF6D18260C460A06049
:103EA000EEE7D268C2608460E060C568CB1A022287
:103EB000A8602360027530BC70478460C4601060E5
:103EC000DEE700BFC416FF1FF8B5224E34682CB3DE
:103ED0002368002B3AD1204F1D4604E03468ECB132
:103EE0002368002B32D1A36803B1DD602069336001
:103EF000036825751B68BB4221D1037F4560022BF7
:103F0000C46020D0FFF73AFF6368002BE6D023603F
:103F10002046FFF7A5FF3468002CE1D1EFF31083B2
:103F200072B60E4A00211068116003B962B628B15A
:103F30008468FFF795FF20460028F9D1F8BD224696
:103F400000219847E0E783689847DDE7013B23605D
:103F5000E4E700BFC416FF1FFD3D0000D416FF1F9D
:103F6000024A136801331360FFF7AEBFBC15FF1F91
:103F700000B5064A036812885B6883B001A9ADF8F2
:103F800004200222984703B05DF804FBAC640000F3
:103F9000F0B507468BB0002A33D0012A08BF0A22A9
:103FA00051B3212400E0F4B2B1FBF2F502FB15118C
:103FB000C8B2092900F1300198BFC8B20AA988BF68
:103FC0003730214488BFC0B201F8240C661E294650
:103FD000002DE8D133B1013CE4B20AAB23442D22D9
:103FE00003F8242C3B6801AA11195B683846C4F118
:103FF000220298470BB0F0BD30228DF825202124F5
:10400000E8E70368C9B21B6898470BB0F0BD00BF72
:104010000029BABF49422D2300230A22FFF7B8BF67
:104020002DE9F04357EC106B85B005460C4610EEB9
:10403000102A3B4610EE100A394601F0DBFA002840
:1040400040F0B28027F00049304649464FF0FF3239
:10405000594B01F0CFFA90B9304649464FF0FF3244
:10406000554B01F0A9FA50B92B6854495B682846B2
:10407000032298478046404605B0BDE8F0834FF0E4
:1040800060424F4B3046394601F0AAFA002872D1FF
:104090004FF060424B4B3046394601F083FA00281E
:1040A00069D1002200233046394601F07BFA00280E
:1040B00064D18146002C67D0434900204FF00008AE
:1040C0003BA3D3E9002308F1010800F0F9FF5FFAF0
:1040D00088F39C42F4D802460B463046394600F03D
:1040E0003DFE0F46064601F0C3FA804600F072FF1F
:1040F00002460B463046394600F02EFE4B46064639
:104100000F460A2241462846FFF742FF0F2C28BFE0
:104110000F2404F101092E2380465FFA89F98DF8F6
:10412000003001240022294B3046394600F0C8FFF8
:104130000F46064601F09CFA04AB2344C0B200F1DE
:10414000300203F8102C00F055FF02460B463046B3
:10415000394600F001FE0134E4B24C4506460F46F4
:10416000E0D12B6822465B6828466946984740465E
:1041700005B0BDE8F0832B68154977E707F10043E8
:104180001F464FF0010995E700220F4B3046394694
:1041900000F0E4FD01F06CFA4B4601460A22284685
:1041A000FFF7F6FE804666E72B680A495EE700BF28
:1041B000000000A09999B93FFFFFEF7FB8640000AD
:1041C000FFFFEF41FFFFEFC10000E03F0000244090
:1041D000B4640000B064000041EA0020704700BFF2
:1041E00008B5FCF721FDFCF789FD00F017F8FAE7A8
:1041F000FFF7A4BCFFF77CBCFFF756BCFFF790BCF1
:10420000FFF76CBDFFF746BD08461146FFF7B2BC8D
:104210000846FFF733BD00BF704700BF38B52C4CD0
:10422000237803B138BD01232370FFF779FC002800
:1042300042D100F0EBF800283BD100F07DF90028D6
:1042400034D100F00FFA70BB00F088FA40BB00F0E8
:1042500001FB10BB00F07AFBE0B900232370EFF301
:104260000583002BDED1EFF3108172B6194B18686D
:1042700028B3194C227812BB45691D6001232370B5
:104280000DB3AA6101B962B60025457783689847E6
:104290002570C7E700F028FCDFE700F023FCD9E732
:1042A00000F01EFCD3E700F019FCCDE700F014FC91
:1042B000C7E700F00FFCC0E7FFF7AEFFB9E7002942
:1042C000B0D162B638BD054B1D600029DCD1DAE7FC
:1042D000D816FF1FCC16FF1FD016FF1FC816FF1FD2
:1042E00030B42948294A2A4B2A4D6024E121047020
:1042F00011701B78284C082B30D00A2B27482849EE
:1043000037D00C2B0CBF35225D2212232A6023608C
:1043100002600B60234B24491B78244ABBB1012364
:104320000B601360224B23491B78234A012B26D9AB
:10433000042B0FD9082B1ED9102B94BF862387235B
:104340000B6013601D4B01221A7030BC70470B606C
:104350001360E7E784230B601360F3E700F58E201A
:104360000F490830212213232A60236002600B606A
:10437000D0E73922F7E785230B601360E2E780235B
:104380000B601360DEE700BF0040074001400740BC
:104390003C0BFF1F08B003400CB0034008B00B40BB
:1043A0000CB00B40DA16FF1F20B0034020B00B40CA
:1043B0003D0BFF1F24B0034024B00B40D916FF1F54
:1043C000F0B44D1E2E46002400E00134B0FBF2F3A1
:1043D00002FB1300092800F130078ABF3730F8B21A
:1043E000C0B206F8010F1846002BEED10A1953701F
:1043F0004CB1107815F8016F28700133E01A834230
:1044000002F80169F5DB0846F0BC7047054A064B27
:1044100010781B78C0B2DBB2984238BF4030C01A67
:10442000704700BFE016FF1FE116FF1FF0B4384BC6
:104430001A7912F0300F2CD072B6997D01F0FF027C
:1044400000293DD062B6334F334938780D78334E6A
:104450001C46C0B2EDB2431C402BE17928BF0023BB
:10446000AB4202F1FF32C9B21CBFF154184612F040
:10447000FF02F0D12A4B1B68C2B23A704BB1A8427E
:1044800036BFC5F14005401B40192728C4BF012293
:104490001A701F49CA78D2B2150616D452060DD525
:1044A0001B4B1B795B0609D51E4B1F491B6800225D
:1044B0000A7003B11A70164B3C22DA70F0BC7047D8
:1044C0004022D9795A7462B6E3E70B791C06E5D528
:1044D000164B174E1C783378E4B2DBB29C420ED0F8
:1044E000144D01E0A3420AD00133402B28BF002322
:1044F0000879E85CC0B2C871087D0728F2D9DBB240
:10450000034933700B79180644BF7C23CB70C5E791
:1045100000A00640E016FF1FE116FF1F2417FF1F33
:10452000DC16FF1F6817FF1F6417FF1F6C17FF1FA4
:104530006517FF1FE416FF1F054A064B10781B780E
:10454000C0B2DBB2984238BF4030C01A704700BFDB
:10455000E017FF1F7517FF1FF0B4384B1A7912F0E0
:10456000300F2CD072B6997D01F0FF0200293DD0AA
:1045700062B6334F334938780D78334E1C46C0B29B
:10458000EDB2431C402BE17928BF0023AB4202F17E
:10459000FF32C9B21CBFF154184612F0FF02F0D12D
:1045A0002A4B1B68C2B23A704BB1A84236BFC5F164
:1045B0004005401B40192728C4BF01221A701F491B
:1045C000CA78D2B2150616D452060DD51B4B1B79EC
:1045D0005B0609D51E4B1F491B6800220A7003B1F8
:1045E0001A70164B3C22DA70F0BC70474022D97921
:1045F0005A7462B6E3E70B791C06E5D5164B174EE5
:104600001C783378E4B2DBB29C420ED0144D01E04A
:10461000A3420AD00133282B28BF00230879E85C85
:10462000C0B2C871087D0728F2D9DBB203493370E4
:104630000B79180644BF7C23CB70C5E700B0064059
:10464000E017FF1F7517FF1FA017FF1F7017FF1F31
:10465000E417FF1F7417FF1FE817FF1FE117FF1F65
:104660007817FF1F054A064B10781B78C0B2DBB2E3
:10467000984238BF4030C01A704700BFF017FF1F84
:10468000F117FF1F30B42B4B1A7994061FD52A4817
:10469000DA790378294901333F2B0978C8BF002311
:1046A0008B42D2B203D0264CD9B2E2540170254AD3
:1046B000116861B1244A1278D2B2934236BFC2F176
:1046C00040029B1A9B18272BC4BF01230B70194A69
:1046D000D378DBB2180611D45A060DD5154B1B79C9
:1046E0005B0609D5194B1A491B6800220A7003B1F1
:1046F0001A70104B2C22DA7030BC70471179090601
:10470000EAD5144910480C780178C9B28C420DD012
:104710004A1C272A84BF00210A460F4D054C98BF2A
:10472000D1B2AA5CD2B2E2710170D5E76C21D1702E
:10473000D2E700BF00C00640F017FF1FF117FF1FB0
:104740001C18FF1FEC17FF1F5D18FF1F6018FF1FCD
:104750005C18FF1F6418FF1FF417FF1F054A064B64
:1047600010781B78C0B2DBB2984238BF4030C01A14
:10477000704700BF6C18FF1F6D18FF1F30B42B4B24
:104780001A7994061FD52A48DA7903782949013322
:104790003F2B0978C8BF00238B42D2B203D0264CEE
:1047A000D9B2E2540170254A116861B1244A1278E5
:1047B000D2B2934236BFC2F140029B1A9B18272BFC
:1047C000C4BF01230B70194AD378DBB2180611D489
:1047D0005A060DD5154B1B795B0609D5194B1A499D
:1047E0001B6800220A7003B11A70104B2C22DA7079
:1047F00030BC704711790906EAD5144910480C7885
:104800000178C9B28C420DD04A1C272A84BF0021EE
:104810000A460F4D054C98BFD1B2AA5CD2B2E271E4
:104820000170D5E76C21D170D2E700BF00D00640FF
:104830006C18FF1F6D18FF1F9818FF1F6818FF1FC7
:10484000D918FF1FDC18FF1FD818FF1FE018FF1F23
:104850007018FF1F054A064B10781B78C0B2DBB2F8
:10486000984238BF4030C01A704700BFE818FF1F99
:10487000E918FF1F30B42B4B1A7994061FD52A482C
:10488000DA790378294901333F2B0978C8BF00231F
:104890008B42D2B203D0264CD9B2E2540170254AE1
:1048A000116861B1244A1278D2B2934236BFC2F184
:1048B00040029B1A9B18272BC4BF01230B70194A77
:1048C000D378DBB2180611D45A060DD5154B1B79D7
:1048D0005B0609D5194B1A491B6800220A7003B1FF
:1048E0001A70104B2C22DA7030BC7047117909060F
:1048F000EAD5144910480C780178C9B28C420DD021
:104900004A1C272A84BF00210A460F4D054C98BF38
:10491000D1B2AA5CD2B2E2710170D5E76C21D1703C
:10492000D2E700BF00A00E40E818FF1FE918FF1FE4
:104930001419FF1FE418FF1F5519FF1F5819FF1FF7
:104940005419FF1F5C19FF1FEC18FF1F054A064B87
:1049500010781B78C0B2DBB2984238BF4030C01A22
:10496000704700BF6419FF1F6519FF1F30B42C4B3F
:104970005A6894021FD52B48DA6803782A49013314
:104980003F2B0978C8BF00238B4204D0274CD2B2FA
:10499000D9B2E2540170264A116861B1254A1278F1
:1049A000D2B2934236BFC2F140029B1A9B18272B0A
:1049B000C4BF01230B701A4A9368180202D55268CB
:1049C000110211D45A020DD5154B5B685B0209D553
:1049D000194B1A491B6800220A7003B11A70184B50
:1049E00000221A6030BC7047164A124910780A78C3
:1049F000D2B290420DD00132272A84BF0020024655
:104A0000114D074C98BFD0B2AA5CD2B2E2600870D8
:104A1000D8E70E480A4A0024012104601160D1E75A
:104A200000400C406419FF1F6519FF1F9019FF1FFC
:104A30006019FF1FD119FF1FD419FF1FD019FF1FC5
:104A400058018843D819FF1F6819FF1F5C0188436C
:104A500010B584B072B6FEF75BF8184A184B1949C6
:104A60001160702280211A701A46197013781B0683
:104A7000FCD5154B1C68FEF765F862B6134B9C42DB
:104A80009CBF04EB840464002046114C01A90A2257
:104A9000FFF796FC01A92046002311F8012B0133F2
:104AA0003AB10A2B20F8022FF7D11623237004B055
:104AB00010BD5B00DBB2237004B010BD04000240E7
:104AC00000000240000007410C0002407F96980061
:104AD000CC0BFF1F704700BF704700BF704700BF7F
:104AE000704700BF704700BF704700BF2DE9F0431B
:104AF0002DED028B8BB055EC104B00F057F8294B85
:104B0000B0EE408AF0EE608A93F90060731C12D018
:104B100022462B462046294600F06CFD074650B938
:104B20004FF000084FF000092046294642464B4608
:104B300000F038FD40B9B0EE480AF0EE680A0BB05C
:104B4000BDEC028BBDE8F083174B08970122CDE93D
:104B50000445CDE902458DE80C00B6B142464B460E
:104B60004046494600F0D6FB022ECDE906010ED1A3
:104B700000F09EFD21230360089B73B99DED060B99
:104B80000BB0BDEC028BBDE8F083CDE90689684629
:104B900000F0DCF80028EFD1EAE700F089FD089B7F
:104BA0000360EBE7E20BFF1F3C6500002DE9F041DD
:104BB000654955EC104B0E462940B14200F09780F4
:104BC000002D2B4610EE102A74DD2F157FD0A7F292
:104BD000FF37C3F31303F90743F4801365D403EBE2
:104BE000D27100260B447F105200B64616204FF4B7
:104BF00000110EEB01049C424FEAD2754FEA4202CB
:104C000003DC1B1B04EB010E0E44013805EB4303D0
:104C10004FEA5101EDD1844620244FF0004109E0D4
:104C200020D003EBD275013C4FEA51012B444FEAEF
:104C3000420220D09E4501EB0C05F1DA002D05EB78
:104C4000010C09DBF0469542CEEB030300D9013B92
:104C5000521B0844C646E4E7BCF1000FF2DB0EF13C
:104C60000108F0E795421ED8002D05EB010C50DB42
:104C700098460023ECE7134304D0421C4DD000F0CB
:104C80000103184440087110F30701F17F5101F549
:104C9000001148BF40F0004001EB0753024643ECCF
:104CA000102BBDE8F0817346BBE75B0003EBD273CA
:104CB000520094E725F00041214328D0ADBB2F4698
:104CC000D30A153F5205002BFAD0DD0228D400216B
:104CD00000E001465B00DC0201F10100F9D5C0F102
:104CE000200422FA04F423437F1A82406FE710EE77
:104CF000102A2B4610EE100A294600F0E1F9224650
:104D00002B4600F02BF841EC100BBDE8F081BDE81C
:104D1000F081BCF1000FA2DAAAE701362046B2E723
:104D200020244FF0FF310020DBE710EE102A2B4645
:104D30002046294600F010F802460B4600F0EAFA39
:104D400041EC100BBDE8F0810000F07F00207047BF
:104D500081F0004102E000BF83F0004330B54FEA2C
:104D600041044FEA430594EA050F08BF90EA020F99
:104D70001FBF54EA000C55EA020C7FEA645C7FEA2C
:104D8000655C00F0E2804FEA5454D4EB5555B8BF4F
:104D90006D420CDD2C4480EA020281EA030382EAC0
:104DA000000083EA010180EA020281EA0303362D52
:104DB00088BF30BD11F0004F4FEA01314FF4801C25
:104DC0004CEA113102D0404261EB410113F0004F37
:104DD0004FEA03334CEA133302D0524263EB4303EE
:104DE00094EA050F00F0A780A4F10104D5F1200E8C
:104DF0000DDB02FA0EFC22FA05F2801841F10001E7
:104E000003FA0EF2801843FA05F359410EE0A5F1BA
:104E100020050EF1200E012A03FA0EFC28BF4CF0EB
:104E2000020C43FA05F3C01851EBE37101F00045A1
:104E300007D54FF0000EDCF1000C7EEB00006EEBAE
:104E40000101B1F5801F1BD3B1F5001F0CD3490838
:104E50005FEA30004FEA3C0C04F101044FEA44528F
:104E600012F5800F80F09A80BCF1004F08BF5FEA16
:104E7000500C50F1000041EB045141EA050130BDF6
:104E80005FEA4C0C404141EB010111F4801FA4F199
:104E90000104E9D191F0000F04BF01460020B1FAEE
:104EA00081F308BF2033A3F10B03B3F120020CDA26
:104EB0000C3208DD02F1140CC2F10C0201FA0CF004
:104EC00021FA02F10CE002F11402D8BFC2F1200C69
:104ED00001FA02F120FA0CFCDCBF41EA0C0190401F
:104EE000E41AA2BF01EB0451294330BD6FEA040468
:104EF0001F3C1CDA0C340EDC04F11404C4F1200253
:104F000020FA04F001FA02F340EA030021FA04F364
:104F100045EA030130BDC4F10C04C4F1200220FABB
:104F200002F001FA04F340EA0300294630BD21FAF9
:104F300004F0294630BD94F0000F83F4801306BFBF
:104F400081F480110134013D4EE77FEA645C18BFB3
:104F50007FEA655C29D094EA050F08BF90EA020F4A
:104F600005D054EA000C04BF1946104630BD91EA42
:104F7000030F1EBF0021002030BD5FEA545C05D145
:104F80004000494128BF41F0004130BD14F5800484
:104F90003CBF01F5801130BD01F0004545F0FE41F8
:104FA00041F470014FF0000030BD7FEA645C1ABF2D
:104FB000194610467FEA655C1CBF0B46024650EA64
:104FC000013406BF52EA033591EA030F41F4002190
:104FD00030BD00BF90F0000F04BF0021704730B516
:104FE0004FF4806404F132044FF000054FF00001EB
:104FF00050E700BF90F0000F04BF0021704730B5AC
:105000004FF4806404F1320410F0004548BF404280
:105010004FF000013EE700BF42004FEAE2014FEAD5
:1050200031014FEA02701FBF12F07F4393F07F4FB0
:1050300081F06051704792F0000F14BF93F07F4FE2
:10504000704730B54FF4607401F0004521F0004125
:1050500020E700BF50EA010208BF704730B54FF0AB
:1050600000050AE050EA010208BF704730B511F0B0
:10507000004502D5404261EB41014FF4806404F1E8
:1050800032045FEA915C3FF4DCAE4FF003025FEA6A
:10509000DC0C18BF03325FEADC0C18BF033202EBF2
:1050A000DC02C2F1200300FA03FC20FA02F001FA4C
:1050B00003FE40EA0E0021FA02F11444C1E600BFEB
:1050C00070B54FF0FF0C4CF4E06C1CEA11541DBF9E
:1050D0001CEA135594EA0C0F95EA0C0F00F0DEF869
:1050E0002C4481EA030621EA4C5123EA4C5350EA4E
:1050F000013518BF52EA033541F4801143F480139F
:1051000038D0A0FB02CE4FF00005E1FB02E506F02F
:105110000042E0FB03E54FF00006E1FB03569CF084
:10512000000F18BF4EF0010EA4F1FF04B6F5007F8A
:1051300064F5407404D25FEA4E0E6D4146EB0606FC
:1051400042EAC62141EA55514FEAC52040EA5E5085
:105150004FEACE2EB4F1FD0C88BFBCF5E06F1ED82F
:10516000BEF1004F08BF5FEA500E50F1000041EB66
:10517000045170BD06F0004646EA010140EA020013
:1051800081EA0301B4EB5C04C2BFD4EB0C0541EA35
:10519000045170BD41F480114FF0000E013C00F34A
:1051A000AB8014F1360FDEBF002001F0004170BD6E
:1051B000C4F10004203C35DA0C341BDC04F1140487
:1051C000C4F1200500FA05F320FA04F001FA05F213
:1051D00040EA020001F0004221F0004110EBD370E0
:1051E00021FA04F642EB06015EEA430E08BF20EA0C
:1051F000D37070BDC4F10C04C4F1200500FA04F3AF
:1052000020FA05F001FA04F240EA020001F0004140
:1052100010EBD37041F100015EEA430E08BF20EAB3
:10522000D37070BDC4F1200500FA05F24EEA020EFB
:1052300020FA04F301FA05F243EA020321FA04F02A
:1052400001F0004121FA04F220EA020000EBD370E1
:105250005EEA430E08BF20EAD37070BD94F0000FE1
:105260000FD101F00046400041EB010111F4801F15
:1052700008BF013CF7D041EA060195F0000F18BFC6
:10528000704703F00046520043EB030313F4801F02
:1052900008BF013DF7D043EA0603704794EA0C0FBC
:1052A0000CEA135518BF95EA0C0F0CD050EA4106D2
:1052B00018BF52EA4306D1D181EA030101F000414F
:1052C0004FF0000070BD50EA410606BF1046194677
:1052D00052EA430619D094EA0C0F02D150EA013683
:1052E00013D195EA0C0F05D152EA03361CBF1046C4
:1052F00019460AD181EA030101F0004141F0FE4163
:1053000041F470014FF0000070BD41F0FE4141F4E6
:10531000780170BD70B54FF0FF0C4CF4E06C1CEAE6
:1053200011541DBF1CEA135594EA0C0F95EA0C0F9B
:1053300000F0A7F8A4EB050481EA030E52EA033556
:105340004FEA013100F088804FEA03334FF0805577
:1053500045EA131343EA12634FEA022245EA1115A4
:1053600045EA10654FEA00260EF000419D4208BF55
:10537000964244F1FD0404F5407402D25B084FEA02
:105380003202B61A65EB03055B084FEA32024FF4AE
:1053900080104FF4002CB6EB020E75EB030E22BF0B
:1053A000B61A754640EA0C005B084FEA3202B6EBCB
:1053B000020E75EB030E22BFB61A754640EA5C007A
:1053C0005B084FEA3202B6EB020E75EB030E22BF0A
:1053D000B61A754640EA9C005B084FEA3202B6EB0B
:1053E000020E75EB030E22BFB61A754640EADC00CA
:1053F00055EA060E18D04FEA051545EA16754FEA2C
:1054000006164FEAC30343EA52734FEAC2025FEA49
:105410001C1CC0D111F4801F0BD141EA00014FF0D8
:1054200000004FF0004CB6E711F4801F04BF0143A9
:105430000020B4F1FD0C88BFBCF5E06F3FF6AFAEC5
:10544000B5EB030C04BFB6EB020C5FEA500C50F155
:10545000000041EB045170BD0EF0004E4EEA1131D8
:1054600014EB5C04C2BFD4EB0C0541EA045170BDDF
:1054700041F480114FF0000E013C90E645EA060E23
:105480008DE60CEA135594EA0C0F08BF95EA0C0F51
:105490003FF43BAF94EA0C0F0AD150EA01347FF499
:1054A00034AF95EA0C0F7FF425AF104619462CE770
:1054B00095EA0C0F06D152EA03353FF4FDAE1046D3
:1054C000194622E750EA410618BF52EA43067FF424
:1054D000C5AE50EA41047FF40DAF52EA43057FF4B4
:1054E000EBAE12E74FF0FF3C06E000BF4FF0010CBF
:1054F00002E000BF4FF0010C4DF804CD4FEA410C23
:105500007FEA6C5C4FEA430C18BF7FEA6C5C1BD0EF
:1055100001B050EA410C0CBF52EA430C91EA030F70
:1055200002BF90EA020F0020704710F1000F91EACD
:10553000030F58BF994208BF90422CBFD8176FEA9B
:10554000E37040F0010070474FEA410C7FEA6C5C69
:1055500002D150EA013C07D14FEA430C7FEA6C5C70
:10556000D6D152EA033CD3D05DF8040B704700BF9C
:105570008446104662468C461946634600E000BFEA
:1055800001B5FFF7B7FF002848BF10F1000F01BDBC
:105590004DF808EDFFF7F4FF0CBF012000205DF887
:1055A00008FB00BF4DF808EDFFF7EAFF34BF01200C
:1055B00000205DF808FB00BF4DF808EDFFF7E0FFA5
:1055C00094BF012000205DF808FB00BF4DF808EDF6
:1055D000FFF7CEFF94BF012000205DF808FB00BF5D
:1055E0004DF808EDFFF7C4FF34BF012000205DF83F
:1055F00008FB00BF4FEA410C7FEA6C5C02D150EA25
:10560000013C0AD14FEA430C7FEA6C5C02D152EABA
:10561000033C02D14FF0000070474FF0010070478B
:105620004FEA410212F5001215D211D56FF47873CA
:10563000B3EB625212D94FEAC12343F0004343EA6D
:10564000505311F0004F23FA02F018BF4042704748
:105650004FF00000704750EA013005D111F00040D2
:1056600008BF6FF0004070474FF00000704700BF68
:105670004A0011D212F5001211D20DD56FF47873D1
:10568000B3EB62520ED44FEAC12343F0004343EA26
:10569000505323FA02F070474FF00000704750EA71
:1056A000013002D14FF0FF3070474FF000007047DB
:1056B000014B1868704700BF1010FF1F70B50F4EE8
:1056C0000F4D761BB61018BF002405D0013455F8D5
:1056D000043B9847A642F9D10A4E0B4D761B00F0C9
:1056E00033FFB61018BF002406D0013455F8043B30
:1056F0009847A642F9D170BD70BD00BF5465000047
:10570000546500006065000054650000024B0146CE
:10571000186800F003B800BF1010FF1F2DE9F04F0C
:1057200001F10B05162D83B0064640F29F8035F03F
:10573000070500F1BF80A94200F2BC8000F0A6FA84
:10574000B5F5FC7FC0F09C826B0A00F0BA80042B98
:1057500000F28381A80900F1390E4FEA4E03383078
:10576000C44F07EB8303A3F108015C68A14207D192
:10577000ACE0002A80F2AC80E468A14200F0A68090
:10578000636823F003035A1B0F2AF2DDB9493C6911
:1057900001F1080E744500F0B381636823F0030340
:1057A0005A1B0F2A00F39981002AC1F814E0C1F8AE
:1057B00010E080F29E80B3F5007F80F06781DB0807
:1057C00003F1010C01229B1002FA03F34A6851F81D
:1057D0003C80C4F8088001EBCC091A43A9F1080306
:1057E000E3604A6041F83C40C8F80C408310012453
:1057F0009C40944200F28A80144206D120F00300BB
:105800006400144200F10400FAD007EBC009CC4652
:105810008046DCF80C108C4507D173E1002A80F239
:105820008181C9688C4500F06D814B6823F00303CA
:105830005A1B0F2AF2DD0C46D1F80CC054F8088F21
:105840004B1945F001054D6042F00101C8F80CC04C
:105850003046CCF808807B613B61C3F80CE0C3F8AC
:1058600008E059609A5000F013FA1FE0102921D87F
:1058700000F00CFA1025062302207E4F07EB83036D
:10588000A3F108025C68944200F045816368E16816
:10589000A56823F00303234430465A68E96042F0C8
:1058A00001028D605A6000F0F3F90834204603B01D
:1058B000BDE8F08F00240C232046336003B0BDE820
:1058C000F08F80234FF0400E3F2049E770465DE7A0
:1058D0002344E1685A68A56842F00102E960304655
:1058E0008D605A6000F0D4F90834204603B0BDE85A
:1058F000F08F234430465A6842F001025A6000F0AB
:10590000C7F90834204603B0BDE8F08FBC6863686F
:1059100023F00308A84504D3C5EB08030F2B00F3BD
:105920008C80554BDFF860911A68D9F8003001334C
:105930002A4404EB080A00F0608102F580520F321D
:1059400022F47F6222F00F0211463046019200F0ED
:10595000A1F9B0F1FF3F8346019A00F058818245DA
:1059600000F2FC80454B1968DA451144196000F0DB
:105970005381D9F80000DFF810E101301BBFCAEBFA
:105980000B0A5144CEF800B019601BF0070100F07B
:105990001781C1F10800C1F58051834408315A4490
:1059A000C2F30B02C2EB010949463046019300F0F5
:1059B00071F9431C019B00F03F81CBEB00024A448C
:1059C00042F001021968C7F808B04944BC42CBF85C
:1059D00004201960DFF8A49016D0B8F10F0F40F240
:1059E000FD806268A8F10C0323F00703E01802F0C1
:1059F00001024FF0050E1A430F2B6260C0F804E05D
:105A0000C0F808E000F21C811D4BBC681A68914286
:105A100088BF19601B4B1A689142626888BF196081
:105A200022F003029542A2EB050301D80F2B04DC00
:105A3000304600F02DF9002438E7621943F00103E5
:105A400045F0010565603046BA60536000F020F90A
:105A50000834204603B0BDE8F08F142B71D9542BC5
:105A600000F2A480280B00F16F0E4FEA4E036E3057
:105A700076E600BF1410FF1FE419FF1FE819FF1F8F
:105A8000E019FF1FDC19FF1F2014FF1F5A0A042A08
:105A90005ED9142A00F2B38002F15C0149005B3246
:105AA00007EB810C57F82110DFF8DC81ACF1080C12
:105AB0008C4500F088804A6822F00302934202D2AB
:105AC00089688C45F7D1D1F80CC07A68C4F80CC04D
:105AD000A160CCF80840CC6088E6631942F0010769
