:1000000000000320D1010000F1470000A9470000D3
:10001000A9470000A9470000A9470000A947000020
:10002000A9470000A9470000A9470000F1470000C8
:10003000F1470000A9470000995C00009D5D0000A9
:10004000F1470000F1470000F1470000F1470000D0
:10005000F1470000F1470000F1470000F1470000C0
:10006000F1470000F1470000F1470000F1470000B0
:10007000F1470000F1470000F1470000F1470000A0
:10008000F1470000F1470000F1470000F147000090
:10009000F1470000F1470000F1470000F147000080
:1000A000C1440000CD440000F1470000F1470000CA
:1000B000F1470000F1470000F14700006D620000C9
:1000C000F147000099630000F1470000C56400009B
:1000D000F1470000BD650000F1470000F147000056
:1000E000F1470000F1470000F1470000F147000030
:1000F000F1470000F1470000F1470000F147000020
:10010000F1470000F1470000F1470000F14700000F
:10011000F14700002D4E0000F1470000F1470000BC
:10012000F1470000F1470000F1470000F1470000EF
:10013000F1470000F1470000F1470000F1470000DF
:10014000F1470000F1470000B5660000F1470000EC
:10015000F1470000F1470000F1470000F1470000BF
:10016000F1470000F1470000D9440000F1470000CA
:10017000F1470000F1470000F1470000F14700009F
:10018000F1470000F1470000F1470000F14700008F
:10019000F1470000F1470000AD670000F1470000A3
:1001A000F1470000F1470000F1470000F14700006F
:1001B000F1470000F1470000F1470000F14700005F
:1001C000F1470000F1470000F1470000F14700004F
:1001D0005C4B4CF2205210B51A804DF628121A8052
:1001E00000BF00BF04F008FB574B4FF030621A60AD
:1001F000564A9A60564ADA60564B4FF470021A60BB
:10020000554B564A1A60564A136813F4807304D14A
:1002100054490B604FF4A8531360534B1A781107DD
:1002200003D51A7842F008021A70504B5049AA229E
:100230001A70504A504B8B4204D252F8040F43F8C4
:10024000040BF8E74D4B4E4900228B4202D243F893
:10025000042BFAE74B494C4A002352F8230041F89B
:1002600023000133742BF8D1484B494A802103F80D
:10027000011B9342FBD1474B424A1A60464B8A22EC
:100280001A70A3F5805324225A70A0221A709A790A
:100290009207FCD59A79D406FCD4404A937903F0AE
:1002A0000C03082BFAD13E4B60221A7002331A78E5
:1002B000802AFCD1394B01221A715D225A719A7938
:1002C0009006FCD59979354A4906FBD5354B364918
:1002D00019600021596020231370937903F00C03F7
:1002E0000C2BFAD1314B324A1A60324B324A1A6027
:1002F00000225A60072243F8042C304AC3F80C2D20
:1003000062B604F025FC174B1B68DA0705D52C48AC
:1003100004F0AEFB2B4B2C4A1A602C4B1B785B066F
:1003200009D5284C284B22689A4204D1244804F06D
:100330009FFB0023236007F0EDF804F063FA05F05B
:100340006FFEFEE70E20054030800440823F04002F
:100350000100002B88ED00E0002008E0030000858C
:1003600010D0034014D0034002D0074000E0074003
:100370002C30FF1F809300003023FF1F3030FF1F01
:100380001870FF1F001EFF1F0000000000E400E0C7
:1003900064E400E008ED00E0005006400040064044
:1003A00001E007404480044000000602048004404D
:1003B000C010070014E000E01FBF02000000202072
:1003C0007EBFF25B1CE00340A5C3945A00F00740D7
:1003D000FFFFFFFFFFFFFFFFFFFFFFFFFFFFFFFF2D
:1003E000FFFFFFFFFFFFFFFFFFFFFFFFFFFFFFFF1D
:1003F000FFFFFFFFFFFFFFFFFFFFFFFFFFFFFFFF0D
:10040000FFFFFFFFFFFFFFFFFFFFFFFFDEF9FFFF23
:1004100010B5054C237833B9044B13B10448AFF33E
:1004200000800123237010BD3030FF1F000000004A
:1004300084930000084B10B51BB108490848AFF37E
:1004400000800848036803B910BD074B002BFBD0A0
:10045000BDE81040184700BF000000003430FF1F07
:10046000849300002C30FF1F0000000090F88030C3
:10047000817406EE903A07EE901AF8EEE66AF8EE0E
:10048000E77A87EEA67AFCEEC77A17EE903A80F804
:1004900097307047014803F0A1BC00BFA065FF1F63
:1004A000F8B5204804F03CF81E4804F029F810B3D1
:1004B0001D491E4B0A681B681360938B1C481D4C1A
:1004C00023F020031B041B0C6FF00306012593830C
:1004D000D66005700A79184853119B0003F16043F8
:1004E00003F5624302F01F02012101FA02F21A60D1
:1004F00023790370F8BD0B48104D0E4C04F030F812
:100500000F4B104A2F681B880749156826680A6830
:1005100000FB037300EB400005EB401010603360FC
:10052000D8E700BF906BFF1F886BFF1F5430FF1F81
:100530007030FF1F806BFF1F1F8000406030FF1F67
:100540006630FF1F5C30FF1F074A1378002BFCD179
:100550000648428983898169406903FB02F202EB04
:10056000420204F087B800BF4C30FF1F3834FF1F31
:10057000184A1378F0B493B9174A90F820401749F5
:1005800002F5FF70002301E032F8023F04FB03F3A1
:100590001B12904221F8023FF6D1F0BC7047104C7C
:1005A000104D4789838926782978217003FB07F34A
:1005B000C4692E7003FB01F103FB06F301EB41015B
:1005C00003EB4303214423440024816143611470FD
:1005D000D2E700BF4C30FF1F587F0000E665FF1FC9
:1005E0001024FF1F4D30FF1FC37CF0B5D3B94589E0
:1005F000002D38D005FB01F1836901EB410105EBCA
:1006000045050B4402EB45055C78987813F8031B0D
:100610002402000209025480908011800632954223
:10062000F2D1F0BD4389002BFBD087690E4D002429
:1006300001FB034303EB4303FE1817F803C096F8CE
:1006400002E0737835F81EE035F8133035F81C6099
:100650001680A2F804E0538043890134A34202F1DA
:100660000602E5DCF0BDF0BDE865FF1FF0B5C47C17
:100670004389A4B9002B33D0866901FB034303EB04
:100680004303F518F65C6B78AD789570167053706F
:1006900043890134A34202F10302EDDCF0BD002BDB
:1006A000FCD0104F0024866901FB034303EB430396
:1006B000F518F65C95F801E0AB7837F8166037F876
:1006C0001E5037F8133036121B122D12167055704B
:1006D000937043890134A34202F10302E3DCF0BDCD
:1006E000F0BD00BFE865FF1F90F8A83003B9704760
:1006F000C289038A416910B5D20803FB02F204469D
:10070000881803F0B7FF002384F8A83010BD00BF9D
:1007100008B50F21034805F0C9F80348BDE80840B3
:1007200005F044BB588100003427FF1F08B5102195
:10073000034805F0BBF80348BDE8084005F036BBA8
:10074000688100003427FF1F08B51121034805F018
:10075000ADF80348BDE8084005F028BB7C810000E7
:100760003427FF1F08B51021034805F09FF8034800
:10077000BDE8084005F01ABB908100003427FF1F38
:1007800038B50D4C0D4D0E480F2105F08FF8298F0F
:10079000204605F05BFB02210A4805F087F8698FC7
:1007A000204605F053FB0121074805F07FF820465D
:1007B000BDE8384005F0FABA3427FF1FE867FF1F8D
:1007C000A4810000B4810000B88100002DE9F04F41
:1007D000A1B0D0F808901F91B9F80030868819931D
:1007E0001A46B9F802301A931846012E8BB21293AA
:1007F00040F2BA82B71EBFB2013709EB87074B46FA
:100800000446154690469988DA88884538BF884658
:10081000884228BF0846954203F1040338BF1546B5
:10082000944228BF14469F42EDD1129A904200F2A2
:1008300043819045C0F04081BDF87E301B939C42BF
:100840001A4600F239819D42C0F03681731E002B9A
:10085000179340F3FD821B9806F0DCFA02460B4624
:10086000CDE9042306F098F9CDE90A01404606F0E7
:10087000D1FA129E04460D463046CDE9024506F0F7
:10088000C9FA02460B4620462946CDE9142306F054
:1008900083F94645324638BF424646454FF000038D
:1008A0001C92324628BF4246CDE9080113931E929E
:1008B000CB469A46CDF87480BAE0002320462946FC
:1008C000002206F0ADFD002814BF0223002306938A
:1008D0000C9806F09FFA06460F460F98CDE9006780
:1008E00006F098FADDE9022304460D463046394603
:1008F00006F052F9DDE90A2306F002FBDDE90423E4
:1009000006460F462046294606F046F9DDE908234B
:1009100006F0F6FA02460B463046394606F03CF938
:100920000022002306460F4606F052FD002840F044
:10093000F780002330463946002206F071FD00287A
:1009400014BF022300230E9342464B4620462946FD
:1009500006F022F9DDE9102306460F46DDE9000125
:1009600006F01AF92246804689462B46DDE9040145
:1009700006F012F902460B464046494606F0C0FA18
:10098000DDE9002304460D46DDE9140106F004F913
:1009900032463B4606F0B4FA22462B4606F0FCF8F7
:1009A000002200238046894606F012FD002840F010
:1009B000B480404649460022002306F031FD00285D
:1009C00014BF4FF002084FF00008DDE90023DDE915
:1009D000020106F0E1F832463B4606F091FA224663
:1009E0002B4606F0D9F80022002304460D4606F0F7
:1009F000EFFC002840F08F8000232046294600228B
:100A000006F00EFD002814BF022300230E9A06995B
:100A10008A4255D0434553D0139B83F0010313936F
:100A20000AF101031FFA83FA179B9A4580F2A98005
:100A30004FEA8A02131D5A443BF82A105288189232
:100A400014463BF803200C925B4408465B880F93E6
:100A5000169106F0DFF905460E462046CDE9105600
:100A600006F0D8F9DDE9022380468946284631465A
:100A700006F092F8DDE90A2306F042FADDE90423E4
:100A800004460D464046494606F086F8DDE908234F
:100A900006F036FA02460B462046294606F07CF858
:100AA0000022002304460D4606F092FC00283FF485
:100AB00004AF012306930BE7002021B0BDE8F08FBF
:100AC000069A012A2FD0B8F1010F3AD00E9A012AC6
:100AD00000F05081012BA3D1169A0C981D9C8242E4
:100AE000134638BF03469C429AD88242134628BF19
:100AF00003469C4294D30F9A18981B9C824213463B
:100B000038BF03469C428BD88242134628BF034617
:100B10009C4281D284E7012378E74FF0010854E733
:100B200001230E9310E716991C9881420A46CAD8F1
:100B30001E998A42C7D3189A1B998A423FF46CAF18
:100B4000C1E716990C9C129DA1420A4638BF224665
:100B50009542BBD8A1420A4628BF22469542B5D34A
:100B60000F99189C1B9DA1420A4638BF2246954208
:100B7000ACD8A1420A4628BF22469542BFF44CAFEA
:100B8000A4E75346DDF87480D9469B0039F803A0EA
:100B900009EB03025046B2F802B006F03BF90446F6
:100BA0000D465846CDE90C4506F034F9DDE902233F
:100BB00006460F4620462946CDE9066705F0ECFFBC
:100BC000DDE90A2306F09CF9DDE9042304460D461D
:100BD0003046394605F0E0FFDDE9082306F090F9DC
:100BE00002460B462046294605F0D6FF0022002388
:100BF00004460D4606F0ECFB002840F0F880002388
:100C000020462946002206F00BFC002814BF0223D0
:100C100000230E93199806F0FDF804460D461A9825
:100C2000CDE9004506F0F6F8DDE9022306460F4659
:100C30002046294605F0B0FFDDE90A2306F060F9F9
:100C4000DDE9042304460D463046394605F0A4FF8D
:100C5000DDE9082306F054F902460B4620462946F2
:100C600005F09AFF0022002304460D4606F0B0FB73
:100C7000002840F0B980204629460022002306F0D3
:100C8000CFFB002814BF4FF002094FF00009DDE947
:100C900006233046394605F07FFFDDE90C23CDE918
:100CA0000601DDE9000105F077FF324604460D46F6
:100CB0003B46DDE9040105F06FFF02460B46204686
:100CC000294606F01DF9DDE9002304460D46DDE95D
:100CD000140105F061FFDDE9062306F011F9224653
:100CE0002B4605F059FF0022002306460F4606F06A
:100CF0006FFB002876D1304639460022002306F0EB
:100D00008FFB002814BF02260026DDE90023DDE961
:100D1000020105F041FFDDE9062306F0F1F8224665
:100D20002B4605F039FF0022002304460D4606F04D
:100D30004FFB002854D1002320462946002206F00C
:100D40006FFB002814BF022300230E9A914521D087
:100D5000B3421FD0139B83F001031393139B03F043
:100D6000010021B0BDE8F08F1A98DDF864800446D8
:100D700045465AE50C991C9881420A463FF6AAAEB0
:100D80001E998A42FFF4A6AE0F9A1B998A423FF43D
:100D900043AE9FE60E9A012A49D0012E2AD0B9F11E
:100DA000010F77D0012BD9D1199A5245134638BF7C
:100DB00053469845D2D85245134628BF53469845C6
:100DC000CCD31A9A1B985A45134638BF5B468342C8
:100DD000C4D35A45134628BF5B469842BED3B9E7F1
:100DE0000123B2E7012690E74FF001094FE7012305
:100DF0000E930FE71999129C51450A4638BF524687
:100E00009442CCD851450A4628BF52469442C6D394
:100E10001A991B9C59450A4638BF5A469442BED877
:100E200059450A4628BF5A46944293D2B7E71299C9
:100E300041450A4638BF42469245AED841450A462A
:100E400028BF42469245A8D31B9A5A4582D0A4E7B0
:100E5000104605F0DFFF02460B46CDE9042305F0FE
:100E60009BFECDE90A01404605F0D4FF04460D463D
:100E70001298CDE9024505F0CDFF0B460246294602
:100E80002046CDE9142305F087FE0023CDE90801B3
:100E900013937BE61299199C41450A4638BF424696
:100EA00094423FF67FAF41450A4628BF42469442EE
:100EB000FFF478AF1A9A1B998A423FF44BAF71E75F
:100EC0002DE9F047058AC389013D2DB25F1E002D33
:100ED0003FB2B6BF2C4600240025002FB6BF3E46C9
:100EE000002600270135B34229DD002C27DB028ACA
:100EF0000FFA84FE964522DABB42027ADABF03F18A
:100F0000FF3E0FFA8EFEBE46F2B91FFA8EFE1FFAA2
:100F100084F94389D0F814C091F8008009FB0323B9
:100F200003EB43030CEB030A0CF803804B788AF8BD
:100F3000013001328B788AF802309645E9DA0134C3
:100F4000AC422CD0C389CEE7022A2AD0012A54D041
:100F5000B0F80C8008F1FF381FFA88F8CEEB080EC5
:100F60001FFA8EF34345EADC1FFA84F94289D0F870
:100F700014E091F800C003FB029202EB42020EEB78
:100F8000020A0EF802C04A788AF8012001338A78F2
:100F90008AF802204345E9DD0134AC42D2D1BDE8F4
:100FA000F0874389B0F80C8003F1FF3C1FFA8CFCFA
:100FB000CEEB0C0E08F1FF381FFA8EF2C4EB0808D6
:100FC00062451FFA88F801DDB9E74389D0F814E0DB
:100FD00091F8009008FB032303EB430301320EF862
:100FE0000390734491F801E083F801E091F802E086
:100FF00083F802E06245E8DDA1E7438903F1FF38A9
:10100000C4EB08081FFA8EFE1FFA88F84FF0000C98
:1010100000E04389426991F800900CFB038303EBE5
:1010200043030CF1010C02F8039013444A785A7000
:101030008A789A70E645ECDA81E700BF70B52748F8
:10104000274C82B001F0C0FC002301A925488DF88F
:1010500004308DF805308DF80630FFF731FF237826
:101060001F4A002BFBD101231370FFF76DFA1D48B7
:10107000C2890023934219460FDA028A93420CDA9E
:10108000027AA2B94289406902FB013303EB4303B0
:10109000C1186422C2544A708A702378104A002B07
:1010A000FBD101231370FFF74FFA02B070BD022A83
:1010B0000DD0012A05D085894289013DED1A2946C6
:1010C000E1E74289551EED1A19462B46DBE74289B6
:1010D0008589561E013DF31A691AD4E7C834FF1FEB
:1010E0004C30FF1F3834FF1FF0B5214B21481D78CD
:1010F00090FBF5F00A3080B240F203141E4B93FBD4
:10110000F5F50A3880B20B22002140FA02F30D33C4
:101110009BB2013AA3422CBFC9180919561CF4D13D
:10112000A942EED8154A164B16681C68154D0B21BE
:1011300040FA01F206FB02F385FB03E71F440D3280
:10114000DB17C3EBE71392B20D33B2F5817F01F1E8
:10115000FF319BB2C2F5817704D801373B449BB283
:1011600040F20312628024F8043B4B1CE0D1F0BD36
:101170001224FF1F1C4E0E00389C1C006C30FF1FF9
:101180005830FF1F818080802DE9F04F4B4B4C4839
:1011900019788BB003F0A6F9FFF7A6FF002306939A
:1011A00001230793464803F0A3F9002840F06F821B
:1011B000069B0133DBB2052B06930AD9079B002B54
:1011C00040F0D0833F4B1B780F2B00F2E683079B48
:1011D00006933D4B1B780593002B00F025833B4C79
:1011E000374803F093F93A4B3A4A1B68BDF824603C
:1011F000BDF8265011685FFA80F909EB490703EB47
:1012000047173A460023C8189680D58040885080FA
:10121000C85A27F813000433302B02F10802F2D128
:101220002D48036813F0010500F076832B4803680E
:1012300013F0010500F01D834FF4C072002128480F
:1012400006F050FC4FF4C0720021264806F04AFC1C
:1012500023681C68002C00F09A83BDF8145005F137
:10126000100623681E4A5B68204629469847236873
:101270001C4A5B682046314698476468002CF0D1D0
:10128000174B1C885D889E88164B1F88B3F802E0B8
:101290009888154A154B12781B880492144ADFF877
:1012A00040801268029209FB03F39B084FF000098B
:1012B000DFF830C00393CDF804902BE06930FF1FB6
:1012C000906BFF1F1224FF1F7C33FF1F5030FF1F46
:1012D0005C30FF1F5830FF1FF831FF1F7430FF1FB5
:1012E000FC31FF1F7830FF1F6830FF1F6630FF1F83
:1012F0006030FF1FB8F80640B8F80850B8F80A6028
:10130000BCF80670BCF808E0BCF80A0008F1060852
:101310000CF1060C00224FEA263B114613466BF3F4
:1013200004124FEA243B6BF300024FEA262B6BF3C7
:1013300004134FEA273B6BF386124FEA242B6BF31F
:1013400000034FEA253B6BF3C7124FEA272B6BF3E1
:1013500086134FEA2E3B6BF3C3024FEA252B6BF348
:10136000C7134FEA203B6BF345124FEA2E2B6BF36A
:10137000C3034FEA663B6BF30C324FEA202B6BF34F
:1013800045134FEA643B6BF308224FEA662B6BF37D
:101390000C334FEA673B6BF38E324FEA642B6BF3EF
:1013A00008234FEA653B6BF3CF324FEA672B4FEAD6
:1013B000261A6BF38E334FEA6E3B6AF304116BF31C
:1013C000CB224FEA241A4FEA652B6AF300016BF334
:1013D000CF334FEA271A4FEA603B6AF386116BF36B
:1013E0004D324FEA251A4FEA6E2B6AF3C7116BF3A1
:1013F000CB234FEA2E1A4FEAA63B6AF3C3016BF3E5
:1014000014524FEA201A4FEA602B6AF345116BF32E
:101410004D334FEA661A4FEAA43B6AF30C316BF383
:1014200010424FEA641A4FEAA62B6AF308216BF3C5
:1014300014534FEA671A4FEAA73B6AF38E316BF3F6
:1014400096524FEA651A4FEAA42B6AF3CF316BF339
:1014500010434FEA6E1A4FEAA53B6AF3CB216BF3B8
:10146000D7524FEA601A4FEAA72B6AF34D316BF35C
:1014700096534FEAA61A4FEAAE3B6AF314516BF348
:10148000D3424FEAA41A4FEAA52B6AF310416BF33B
:10149000D7534FEAA71A4FEAA03B6AF396516BF372
:1014A00055524FEAA51A4FEAAE2B6AF3D7516BF3A8
:1014B000D3434FEAAE1A4FEAE63B6AF3D3416BF3EC
:1014C0001C724FEAA01A4FEAA02B6AF355516BF336
:1014D00055534FEAE61AF6124FEAE43B6AF31C71E1
:1014E00066F31C734FEAE41AE412FE136AF3186100
:1014F00064F318634FEAE71A6BF31862FF12EC13F8
:1015000066F39E7267F39E73EE116AF39E71ED129D
:1015100064F3DF7266F3DF714FEAEE344FEAEE16E2
:1015200065F3DF734FEAEE2E64F3DB6266F3DB6193
:10153000C413C6116EF3DB63C012039D66F35D71C5
:1015400060F35D73029E019805EB990564F35D728B
:10155000013006EB8504019043F0023046F8251077
:1015600020610198A26041F0023E0499C4F80CE0A9
:1015700042F0023740288944676163607FF4BAAE65
:101580000598002200F00105C0F3400365F3000256
:10159000C0F3800463F3C712014664F30412C0F37E
:1015A000C000C1F3001160F3861261F3C30265F35A
:1015B000082263F3CF3264F30C3260F38E3261F3AE
:1015C000CB2265F3104263F3D75264F3145260F3F5
:1015D000965261F3D34265F3186263F3DF72049DA0
:1015E000039B03EB0513029D64F31C7260F39E7270
:1015F00005EB830461F3DB6245F82320A8486260B1
:10160000A26002F09DFFA74BA64A1B78A64C0133AF
:10161000DBB20F2B88BF002313702378002B3FF41D
:10162000C1ADA24B1B780F2B00F2A681A04D9C48A8
:1016300001262E6002F094FF9E4B9F4A1F889F4B0D
:10164000126819689E4B1B6800FB071100EB4000F5
:1016500003EB40109B4B1B6810601960938B9A49F9
:1016600023F080031B041B0C9383938B0E709BB29F
:10167000002043F02003042609219383D6602070C4
:101680002960874802F034FF00283FF491AD012122
:101690000E2003F005FA0121062003F001FA0121D2
:1016A000022003F0FDF90121152003F0F9F90121D1
:1016B000052003F0F5F90121082003F0F1F90121DB
:1016C000142003F0EDF97A4D804B814A814E824916
:1016D00000242C601C60754B1878804B93FBF0F352
:1016E000136002F5803228320D20086033601368E1
:1016F0007B4801F58031243143F4517313604FF47A
:1017000051730B60136843F4003343F48073136028
:101710000368744AA1F6F87143F0020303600B6892
:10172000654843F002030B60136843F080031360C5
:10173000214604F0BFF92146624804F0BBF95E4B34
:101740005F4A1B6812681A6002275B4A9F80117902
:101750005C4A1E61107940F20116DE804FF6F0728D
:10176000202601F1804100029A829E61012201F54A
:101770000431042640F02000DA82DE60DA839E60C5
:101780009883B1264F4B0C700E704C491B6808684B
:101790001860554919610C20D882D8839F83998B92
:1017A00098806FEA41416FEA51415048DC6089B24C
:1017B000DC809C829C6198609983424B4C4C1979E7
:1017C0004C4F4D4E4D484B119B0003F1604301F1CE
:1017D000100E03F5614301F01F0102FA01F144F814
:1017E0002E701960344B1B7903F1604303F5644399
:1017F000FE211970304B19794B119B0003F16043A6
:1018000001F01F0703F561431031BA4044F821602D
:101810001A60294B2B4A1B79127903700923027035
:101820002B600BB0BDE8F08F354F364C3B78002B6A
:1018300040F0888023681D68334E35B90FE02B686F
:1018400028461B6898476D684DB13378002BF6D059
:101850002B68164ADB68117828469847EFE72B4D2E
:101860002B7800273770002B7FD10E4B1B78059308
:10187000B6E402F0DFFF00283FF4DEAC244B2A463A
:1018800003F5C07123F8062C23F8042C23F8022C4E
:1018900006338B42F6D11F4802F0D2FFCCE400BFE2
:1018A000906BFF1F7C33FF1F7030FF1F1224FF1F40
:1018B000009003406630FF1F886BFF1F6030FF1FE2
:1018C0005C30FF1F806BFF1F6530FF1F04900340DB
:1018D0000890034018900340109003401C4E0E00E7
:1018E0004080044000800040C0F00F4081D4E7BF3A
:1018F000001EFF1FA1040000291B00001B800040E8
:101900001324FF1F5030FF1F1124FF1F7130FF1FD2
:101910007E30FF1F7430FF1F02F08CFF00283FF461
:1019200085AC244B2A4603F5C07123F8062C23F816
:10193000042C23F8022C06339942F6D11E4802F0FB
:101940007FFF73E423681D684DB11C4E3178284633
:1019500002F008FE6D68002DF8D123681D68002391
:101960003B7069E70690079033E4FFF7BDFB144B2B
:101970002F701B78059333E4124A134E013B13700A
:10198000FFF7B2FB114A0123137033704EE6204675
:10199000A6462746264625467BE40A4A0A4E013BD0
:1019A0001370FFF7A1FB094A012313703370079BE3
:1019B00006930EE40232FF1FF831FF1F6A30FF1F4B
:1019C0007C33FF1F1224FF1F1124FF1F6430FF1FF1
:1019D00070B53D4A3D493E4D3E4C1378002BFCD03E
:1019E0000B78DB07F9D52B6820681B1A0E2BF4D96E
:1019F0001F21394C394803F059FF394804F0D6F912
:101A0000384B39490022204602F012F91721374895
:101A100003F04CFF002310223549314804F0D6F979
:101A20000221344803F042FF1721334803F03EFF00
:101A30000023102231492A4804F0C8F9284804F04C
:101A4000B5F92F492F484C6000F08EFF2E492D48E4
:101A500000F092FF26492B4800F08EFF2B492948C1
:101A600000F08AFF01210D2003F01AF8284B1A68B4
:101A70002AB3114600E019464B68002BFBD1254ED6
:101A80004E60114600E019464B68002BFBD1224DF9
:101A90004D6000E022465468002CFBD11F4B536080
:101AA0001B48FFF771FB1E4B1E491C6006220123D9
:101AB0000B7085F89430F374C5F88C2070BD154E0A
:101AC0001E603246DDE700BF906CFF1FA86CFF1F51
:101AD000AC6BFF1F1070FF1FA065FF1FBC810000D3
:101AE0003427FF1F95040000A024FF1FDC810000A5
:101AF0009034FF1FB4810000F48100007834FF1F90
:101B00008434FF1FC834FF1F2834FF1FE867FF1FFE
:101B1000E465FF1F3834FF1F8033FF1FD434FF1FDD
:101B20006C30FF1F7130FF1F2DE9F04F89B000238B
:101B30000593454802F0DCFC002840F07082059BCC
:101B40000133DBB2052B059305D9404B1B780F2BD6
:101B500000F2DA8205903E4B1B780493002B00F0D4
:101B600061823C4C384802F0D1FC3B4B3B4A1B683D
:101B7000BDF81C60BDF81E5011685FFA80F909EBD2
:101B8000490703EB47173A460023C8189680D580CB
:101B900040885080C85A27F813000433302B02F1D4
:101BA0000802F2D12E48036813F0010500F0748298
:101BB0002C48036813F0010500F058824FF4C072FE
:101BC0000021294805F08EFF4FF4C07200212748FC
:101BD00005F088FF23681C68002C00F0A382BDF884
:101BE000105005F1100623681F4A5B68DFF87C80FF
:101BF0002046294698472368204642465B6831467E
:101C000098476468002CEED1174BB8F800701C8818
:101C10005D889E88B8F802E0B8F80400144B154AB5
:101C20001B88154912780968019109FB03F39B0889
:101C30004FF000090392DFF83080DFF830C00293E4
:101C4000CDF800902AE000BF906BFF1F1224FF1F09
:101C50007C33FF1F5030FF1F5C30FF1F5830FF1FC9
:101C6000F831FF1F7430FF1FFC31FF1F7830FF1F5A
:101C70006630FF1F6830FF1F6030FF1FB8F8064056
:101C8000B8F80850B8F80A60BCF80670BCF808E06C
:101C9000BCF80A0008F106080CF1060C00224FEA15
:101CA000263B114613466BF304124FEA243B6BF3B9
:101CB00000024FEA262B6BF304134FEA273B6BF32A
:101CC00086124FEA242B6BF300034FEA253B6BF39C
:101CD000C7124FEA272B6BF386134FEA2E3B6BF3A9
:101CE000C3024FEA252B6BF3C7134FEA203B6BF37C
:101CF00045124FEA2E2B6BF3C3034FEA663B6BF39F
:101D00000C324FEA202B6BF345134FEA643B6BF325
:101D100008224FEA662B6BF30C334FEA673B6BF3F9
:101D20008E324FEA642B6BF308234FEA653B6BF36B
:101D3000CF324FEA672B4FEA261A6BF38E334FEA06
:101D40006E3B6AF304116BF3CB224FEA241A4FEA7D
:101D5000652B6AF300016BF3CF334FEA271A4FEA82
:101D6000603B6AF386116BF34D324FEA251A4FEA56
:101D70006E2B6AF3C7116BF3CB234FEA2E1A4FEA8F
:101D8000A63B6AF3C3016BF314524FEA201A4FEAE1
:101D9000602B6AF345116BF34D334FEA661A4FEA35
:101DA000A43B6AF30C316BF310424FEA641A4FEA1A
:101DB000A62B6AF308216BF314534FEA671A4FEA14
:101DC000A73B6AF38E316BF396524FEA651A4FEADE
:101DD000A42B6AF3CF316BF310434FEA6E1A4FEA2C
:101DE000A53B6AF3CB216BF3D7524FEA601A4FEA57
:101DF000A72B6AF34D316BF396534FEAA61A4FEABD
:101E0000AE3B6AF314516BF3D3424FEAA41A4FEA84
:101E1000A52B6AF310416BF3D7534FEAA71A4FEA89
:101E2000A03B6AF396516BF355524FEAA51A4FEA5D
:101E3000AE2B6AF3D7516BF3D3434FEAAE1A4FEA96
:101E4000E63B6AF3D3416BF31C724FEAA01A4FEAE8
:101E5000A02B6AF355516BF355534FEAE61AF6126D
:101E60004FEAE43B6AF31C7166F31C734FEAE41A11
:101E7000E412FE136AF3186164F318634FEAE71A79
:101E80006BF31862FF12EC1366F39E7267F39E7396
:101E9000EE116AF39E71ED1264F3DF7266F3DF7187
:101EA0004FEAEE344FEAEE1665F3DF734FEAEE2E9B
:101EB00064F3DB6266F3DB61C413C6116EF3DB63AC
:101EC000C012029D66F35D7160F35D73019E009820
:101ED00005EB990564F35D72013006EB8504009013
:101EE00043F0023046F8251020610098A26041F0CE
:101EF000023E0399C4F80CE042F0023740288944BE
:101F0000676163607FF4BAAE0499002301F00104B5
:101F1000C1F3400064F300030A4660F3C7130D46A3
:101F2000C1F38001C2F3C00261F30413C5F30015CD
:101F300062F3861365F3C30364F3082360F3CF33BE
:101F400061F30C3362F38E3365F3CB2364F31043F8
:101F500060F3D75361F3145362F3965365F3D3439D
:101F600064F3186360F3DF73039C029861F31C73DE
:101F7000019900EB041062F39E7301EB800265F39C
:101F8000DB6341F82030536093606948694C02F08C
:101F9000D7FA694B684A1B780133DBB20F2B88BF35
:101FA000002313702378002B3FF4C3AD634B1B78E1
:101FB0000F2B00F29780624D5D48624F01262E6024
:101FC00002F0CEFA604B614A1968614BD2F800E02A
:101FD0001B88DFF8ACC13F68DCF8002000FB03E39E
:101FE00000EB400001EB401010603B60938B5949BF
:101FF00023F080031B041B0C9383938B0E709BB206
:10200000002043F02003042609219383D66020702A
:102010002960474802F06CFA00283FF490AD09B0FF
:10202000BDE8F08F4C4F4D4C3B78002B4AD12368D4
:102030001D684B4E35B90FE02B6828461B68984742
:102040006D684DB13378002BF6D02B683B4ADB68C6
:10205000117828469847EFE7424D2B7800273770D4
:10206000002B4AD1344B1B7804937BE502F0E2FB52
:1020700000283FF4A3AD3C4B2A4603F5C07123F87A
:10208000062C23F8042C23F8022C06338B42F6D1BD
:10209000364802F0D5FB91E502F0CCFB00283FF476
:1020A00087AD334B2A4603F5C07123F8062C23F87D
:1020B000042C23F8022C06339942F6D12D4802F065
:1020C000BFFB75E523681D684DB12B4E317828465E
:1020D00002F048FA6D68002DF8D123681D680023CE
:1020E0003B70A6E7154A1E4E013B1370FEF7FCFF3E
:1020F000224A0123337013705DE7FEF7F5FF0E4BA4
:102100002F701B7804932DE50C4A0090013B13704F
:10211000134EFEF7E9FF194A00980590012333702A
:10212000137018E52046A64627462646254675E53F
:10213000906BFF1F7030FF1F7C33FF1F1224FF1FA7
:1021400000900340806BFF1F5C30FF1F6030FF1F5B
:102150006630FF1F6530FF1F1324FF1F5030FF1F25
:102160001124FF1F7130FF1F7E30FF1F7430FF1FCF
:102170000232FF1FF831FF1F6A30FF1F6430FF1F5C
:10218000886BFF1F70B4047A032C34D8DFE804F0A6
:10219000072D24028489013CA41A0A46A1B2048AAC
:1021A000C58946691444EA0802FB0462C1F3CF04FE
:1021B00001F00701125D802444FA01F10A4008D0C1
:1021C000027E1A70427E5A70827E9A70012070BC24
:1021D0007047104670BC704745898489013D013CB9
:1021E000691AA21A89B292B2D9E74489013C641AE9
:1021F0001146A2B2D3E70020E9E700BF2DE9F04382
:1022000090F8955083B0002306468DF804300F46B1
:102210008DF805308DF8063005BB4389DBB11446D7
:102220000DF10408A9B243463A463046FFF7AAFF2B
:10223000013558B19DF804109DF805209DF8063031
:10224000090212021B0221806280A3807389AB42C3
:1022500004F10604E6DC03B0BDE8F08341890029FF
:10226000F9D0DFF8489014461D460DF10408A9B2D4
:1022700043463A463046FFF785FF013570B19DF879
:1022800005109DF806209DF8043039F8111039F832
:10229000122039F813306180A28023807389AB4209
:1022A00004F10604E3DC03B0BDE8F083587F0000CE
:1022B0002DE9F04390F8955083B0002306468DF841
:1022C00004300F468DF805308DF80630EDB943899E
:1022D000C3B114460DF10408A9B243463A4630464C
:1022E000FFF750FF013540B19DF804109DF805201F
:1022F0009DF8063021706270A3707389AB4204F1BF
:102300000304E9DC03B0BDE8F08341890029F9D07A
:10231000DFF8489014461D460DF10408A9B2434663
:102320003A463046FFF72EFF013570B19DF8051093
:102330009DF806209DF8043019F8111019F81220A4
:1023400039F813306170A27023707389AB4204F1C5
:102350000304E3DC03B0BDE8F08300BF587F000056
:10236000037A10B4032B2BD8DFE803F007241B02F9
:102370008389013B9B1A0A4699B2C3894069DB08ED
:1023800002FB0302C1F3CF0301F00701D25C8023FB
:1023900043FA01F10A4214BF012000205DF8044B0A
:1023A000704744898389013C013B611A9A1A89B2BA
:1023B00092B2E2E74389013B5B1A11469AB2DCE72D
:1023C0000020EBE72DE9F84F90F895301BB3184B40
:1023D000067E457E847E33F8169033F8158033F8F8
:1023E00014A04789AFB18B46064615460024A1B21A
:1023F0005A463046FFF7B4FF013430B1A5F80090DB
:10240000A5F80280A5F804A07789A74205F1060582
:10241000EDDCBDE8F88F90F8189090F8198090F8EE
:102420001AA04FEA09294FEA08284FEA0A2AD8E7F2
:10243000587F00002DE9F84F90F895301BB3154BED
:10244000067E457E847E13F8168013F8159013F8E7
:1024500014A04789AFB18B46064615460024A1B2A9
:102460005A463046FFF77CFF013430B185F80080D2
:1024700085F8019085F802A07789A74205F1030548
:10248000EDDCBDE8F88F90F8188090F8199090F87E
:102490001AA0DEE7587F0000028A002A00F0E380DD
:1024A0002DE9F04F89B0002383460393DBF88C407D
:1024B0000398844200F3B880DBF888104F783E1907
:1024C000864240F3B1800978DBF8A400451840F15A
:1024D000C780002300E00546481903F10103FAD440
:1024E0000493039BA4B2191B96428BB2C8BF141B62
:1024F0009BF894100693CCBFA3B2BBB205930029FE
:1025000040F09B80059B069A9B1A002B079310DDD9
:10251000039A079B16469C18BBF80E20DBF81400A4
:10252000D20802FB06000021013605F0DBFAB442B6
:10253000F2D19BF88110049B99426EDDBBF80E200E
:10254000AA426ADD049B0398069C03F11C07059BC5
:102550001A4602EB0009DBF888205F44C4EB090946
:10256000C0EB040A069B0598834249DA05F007068A
:10257000C6F10803029305F108034FEAE508039C3E
:1025800001931CE004FB028213F802C04CEA010133
:102590009954019BBBF80E2093420BDAD208029BA0
:1025A00004FB02820132984026B1DBF81430995CBA
:1025B0000843985401344C45DBF888201ED00AEBC0
:1025C0000401C9B2387802F015F8BBF80E20DBF828
:1025D0001430C0B2002D40FA06F14FEAD202D1DA2F
:1025E00004FB02F2C5F1000C995C00FA0CF0084300
:1025F000985401344C45DBF88820E0D19BF88110D9
:10260000049B1078013399420493054405DDBBF81F
:102610000E00A84207F10107A4DC079B5A1E039B8A
:102620001344BBF810200393039B01339A42039396
:102630003FF73CAF09B0BDE8F08FBBF80E10DBF8F8
:102640001400C90802FB01F2002105F04BFA059BBA
:10265000069A9B1A07934FF000038BF8943068E7B3
:10266000054600233CE7704708B5D0F884303BB1FD
:10267000C37E90F897200133DBB29A42C37600D331
:1026800008BD90F896300022C276052B42D8DFE8CC
:1026900003F01E300341411ED0F8A430D0F8A02032
:1026A00001339342C0F8A4300BDBD0F88430012210
:1026B000002B80F8962004DDD0F88430013BC0F870
:1026C00084300346D3F88430FFF7E6FE08BDD0F827
:1026D000A430D0F89C20013B9342C0F8A430F0DC39
:1026E000D0F88430D0F8A020C0F8A420002BE3DC80
:1026F000E7E7D0F8A430D0F89C20013B9342C0F823
:10270000A430DEDCD0F884300222002B80F8962042
:10271000D2DCD6E7D0F89030C0F8A4300346D3F826
:102720008430FFF7B9FE08BD634A644B64496548CD
:102730002DE9F043DFF818E2634E644F644D654CB9
:1027400002F5E76CCEF800C002F6F80EC6F800E01D
:1027500002F628161E60604E0E60604B40F20311B8
:10276000A2F82A19A2F828194FF0040E5C4A026058
:10277000182640F20C6183B087F800E02E702180AB
:1027800003F54050002203F8032C03F8022C03F851
:10279000012C033383424FF00001F4D1514E5248D3
:1027A000524A534F534BC66106F5C05501244FF0B2
:1027B000400E85614661FF2507601E262027A0F890
:1027C0000AE0C47480F82050878182F880604A480B
:1027D0004A4E1E60506104264948DFF878C1A2F8CD
:1027E0000AE0D176C2F8841082F89410D976C3F842
:1027F0008410C3F88C40C3F8904083F89410C3F859
:102800008800C2F88C40C2F8904082F8954082F867
:1028100096409781157655769576C2F800C0C2F835
:102820008800DFF834C182F89760364883F8954015
:10283000354A1D765D769D76A3F80AE0C3F8ACC0F4
:1028400083F8964083F8976083F8A8109F815A61B7
:1028500001F062F82D482E4C2E4D2F4F01F0CEFA8C
:102860002E4800F07BF84FF000084FF000092C498B
:10287000A680A16025602146C4E90489294B2A4C21
:102880002A4A2B4800F02CFD2A4B009321462A4B64
:102890002A4AA6802560C4E90489A760284800F078
:1028A0003FFD284800F044FF2749284803B0BDE811
:1028B000F04300F045BF00BFF812FF1F5430FF1F68
:1028C0005030FF1F6030FF1F5830FF1F6930FF1F5F
:1028D0006830FF1F6630FF1FE465FF1FA335FF1F31
:1028E0000002FF1FA035FF1F3834FF1F8033FF1F7A
:1028F000187F0000D434FF1F286AFF1F487F0000A4
:10290000F88900008434FF1F2868FF1FA065FF1F9F
:102910006034FF1F0C7F00002424FF1FC834FF1FFA
:102920001424FF1F2D0700008835FF1F110700002A
:102930009034FF1F81070000650700004907000071
:10294000E867FF1F7834FF1F3427FF1F2834FF1F5D
:102950005C30FF1F307F00006888000000220260AA
:1029600042600272704700BF19B1012303724160D7
:10297000704701724160704738B50C460546112119
:102980000E4802F093FF0E4803F010FA9CB1242188
:102990000C4802F08BFF0A4803F008FA204600F0CA
:1029A00095FC40B12A680AB906E01A469368002BE4
:1029B000FBD19460A36038BD2C6038BD0C82000050
:1029C0003427FF1F2082000070B50446406803686A
:1029D00084B05B68984708B904B070BD61680B6843
:1029E00001AD1B68284698472468002CF4D0206865
:1029F00095E80E0006682046B047A468002CF6D182
:102A000004B070BD84B004A800E90E0004B07047A3
:102A1000F0B585B004AC04E90E00C368002B63D0A8
:102A20000446112131489DF80770029D02F03EFFD7
:102A3000E0682F4903680C225B68984700230A224C
:102A40000399E06803F0C2F9E0682A4903680122AB
:102A50005B6898472FB9E06805B0BDE8F04003F027
:102A6000A5B9E0682449036811225B689847E068CB
:102A70002249036805225B6898470026E0682049E0
:102A8000036802225B689847314600230A22E06807
:102A900003F09CF9E0681B49036803225B689847D0
:102AA00095ED000B0221E06803F0DAF9E0681649C1
:102AB000036802225B68984795ED020B0221E068EB
:102AC00003F0CEF9E0681149036801365B68032220
:102AD0009847F3B29F4205F11005CFD8E06805B0E2
:102AE000BDE8F04003F062B905B0F0BD60820000BF
:102AF00074820000948200008482000098820000AA
:102B0000A0820000A4820000B4810000A88200001E
:102B10002DE9F04FA9B028AC04E90E009DF89730DC
:102B200026992190002B00F0B283013B828B1D92ED
:102B3000DBB20133144601EB0313023AD0F82090C4
:102B40001C9392B2631E013217930023079109EB85
:102B500082081F93CDF86490079BD3E9000104F02D
:102B6000A7FC199A80B2138812901D981A931946DF
:102B70000128134652881B9240F2F58214461046F3
:102B80000D4689469988DA88894538BF8946884242
:102B900028BF0846954203F1040338BF1546944206
:102BA00028BF14469845EDD1129A8242C0F0428265
:102BB0004A4500F23F82079BD3E9020104F078FC0A
:102BC00083B2A3421E931A46C0F03482AB4200F295
:102BD0003182179B002B40F338831E9804F01AF9BA
:102BE00002460B46CDE9042303F0D6FFCDE90A01E6
:102BF000484604F00FF9129E04460D463046CDE9D2
:102C0000024504F007F902460B4620462946CDE965
:102C1000142303F0C1FF4E45324638BF4A464E45A5
:102C20004FF000032092324628BF4A46CDE9080102
:102C3000139323929B46CDF88890DDF864A0CDF8DD
:102C40009080BBE0002320462946002204F0E8FBE8
:102C5000002814BF0223002306930E9804F0DAF82C
:102C600006460F460F98CDE9006704F0D3F8DDE97A
:102C7000022304460D463046394603F08DFFDDE958
:102C80000A2304F03DF9DDE9042306460F462046F9
:102C9000294603F081FFDDE9082304F031F90246FB
:102CA0000B463046394603F077FF002200230646E4
:102CB0000F4604F08DFB002840F0148200233046BC
:102CC0003946002204F0ACFB002814BF0223002385
:102CD0000C9342464B462046294603F05DFFDDE952
:102CE000102306460F46DDE9000103F055FF22469A
:102CF000804689462B46DDE9040103F04DFF02467C
:102D00000B464046494604F0FBF8DDE90023044643
:102D10000D46DDE9140103F03FFF32463B4604F067
:102D2000EFF822462B4603F037FF002200238046AF
:102D3000894604F04DFB002840F0D18140464946C9
:102D40000022002304F06CFB002814BF4FF002089F
:102D50004FF00008DDE90023DDE9020103F01CFF6C
:102D600032463B4604F0CCF822462B4603F014FFD3
:102D70000022002304460D4604F02AFB002840F000
:102D8000AC81002320462946002204F049FB00289C
:102D900014BF022300230C9A06998A4200F06E8128
:102DA000434500F06B81139B83F0010313930BF1F8
:102DB00001031FFA83FB179B9B4543DA4FEA8B0203
:102DC000131D52443AF82B105288189214463AF8C0
:102DD00003200E92534408465B880F93169104F02B
:102DE00019F805460E462046CDE9105604F012F8B3
:102DF000DDE90223804689462846314603F0CCFEB1
:102E0000DDE90A2304F07CF8DDE9042304460D46DD
:102E10004046494603F0C0FEDDE9082304F070F89F
:102E200002460B462046294603F0B6FE0022002348
:102E300004460D4604F0CCFA00283FF403AF01230A
:102E400006930AE75B46DDF88890DDF890809B00EA
:102E500019990A461A44CB5A52880E9318461446BA
:102E60000F9203F0D7FF82468B462046CDE90CAB8C
:102E700003F0D0FFDDE9022306460F4650465946CF
:102E8000CDE9006703F088FEDDE90A2304F038F895
:102E9000DDE9042304460D463046394603F07CFE46
:102EA000DDE9082304F02CF802460B4620462946AB
:102EB00003F072FE0022002304460D4604F088FA57
:102EC000002840F08B81002320462946002204F090
:102ED000A7FA002814BF0223002306931A9803F0D0
:102EE00099FF82461B988B4603F094FFDDE902238D
:102EF00006460F465046594603F04EFEDDE90A23CA
:102F000003F0FEFFDDE9042304460D463046394652
:102F100003F042FEDDE9082303F0F2FF02460B4610
:102F20002046294603F038FE0022002304460D46C1
:102F300004F04EFA002840F04E8100232046294636
:102F4000002204F06DFA002814BF02230023089326
:102F5000DDE900233046394603F01EFEDDE90C238F
:102F6000CDE900015046594603F016FE32460446AC
:102F70000D463B46DDE9040103F00EFE02460B461A
:102F80002046294603F0BCFF524604460D465B46E8
:102F9000DDE9140103F000FEDDE9002303F0B0FFDA
:102FA00022462B4603F0F8FD0022002306460F467A
:102FB00004F00EFA002840F00C8130463946002219
:102FC000002304F02DFA002814BF022600265246E2
:102FD0005B46DDE9020103F0DFFDDDE9002303F0DC
:102FE0008FFF22462B4603F0D7FD00220023044624
:102FF0000D4604F0EDF9002840F0E980002320465A
:103000002946002204F00CFA002814BF02230023F2
:10301000089A06998A4200F0AC80B34200F0A98079
:10302000139B83F001031393139B002B1F9B18BF6B
:1030300001231F93079B1C9A1033934207937FF43D
:103040008BAD219A92F8303063B91F9B13B1D368CE
:1030500003B19847219B9DF87C2083F8302029B04C
:10306000BDE8F08F1F9B002BF4D1219B1B69002B27
:1030700000F01381984700231F93EBE7069A012A7B
:1030800033D0B8F1010F3ED00C9A012A5DD0012B4C
:103090007FF48DAE169A0E98229C8242134638BF5A
:1030A00003469C423FF683AE8242134628BF034646
:1030B0009C42FFF47CAE189A0F981E9C82421346E5
:1030C00038BF03469C423FF672AE8242134628BF89
:1030D00003469C42FFF46BAE65E601235BE64FF0CE
:1030E000010837E601230C93F3E5169920988142F5
:1030F0000A46C6D823998A42C3D31E9A18998A428F
:103100003FF451AEBDE716990E9C129DA1420A46AE
:1031100038BF22469542B7D8A1420A4628BF224668
:103120009542B1D318990F9C1E9DA1420A4638BF03
:1031300022469542A8D8A1420A4628BF2246954277
:10314000BFF431AE0C9A012AA1D10E992098814288
:103150000A469CD823998A4299D31E9A0F998A428B
:103160003FF421AE93E71B98DDF8689004464D4686
:103170001AE5069A012A34D0012E46D0089A012A6F
:1031800000F08D80012B7FF44FAF1A9A0E98824287
:10319000134638BF034699453FF646AF8242134671
:1031A00028BF03469945FFF43FAF1B9A0F981E9C1A
:1031B0008242134638BF03469C423FF635AF8242F7
:1031C000134628BF03469C42FFF42EAF28E7012395
:1031D0001EE70126FBE601230893B9E601230693C7
:1031E0007CE612990E9C49450A4638BF4A469442ED
:1031F000C2D849450A4628BF4A469442BCD31E9AC3
:103200000F998A423FF40CAFB6E71A990E9C129DB3
:10321000A1420A4638BF22469542AFD8A1420A468B
:1032200028BF22469542A9D31B990F9C1E9DA142FF
:103230000A4638BF22469542A0D8A1420A4628BF76
:1032400022469542BFF4ECAE98E7104603F0E2FD4B
:1032500002460B46CDE9042303F09EFCCDE90A01AA
:10326000484603F0D7FD04460D461298CDE90245C5
:1032700003F0D0FD0B46024629462046CDE9142333
:1032800003F08AFC0023CDE908011393E0E5219BBC
:1032900093F83030002B7FF4E8AE1F93DAE61299F2
:1032A0001A9C49450A4638BF4A4694423FF66AAFDF
:1032B00049450A4628BF4A469442FFF463AF1E9A26
:1032C0001B998A423FF4ACAE5CE700BF83680BB148
:1032D000002070474068B0FA80F04009704700BF96
:1032E000F0B400260027C0E90A670025D1E9046789
:1032F00085830562C260084A03610260074B8A88C1
:10330000896801624560856080F83050C0E90A67CD
:1033100083618283F0BC70475C8200000C7F0000F8
:10332000F0B500260027C0E908670025D1E9046749
:1033300085828561C2620363094A0A4BB1F804E0E1
:1033400002600361059A8B68836142634560856012
:1033500080F82850A0F814E0C0E90867F0BD00BF6D
:10336000C08200000C7F00002DE9F04F8BB00AAC4A
:1033700004E90E009DF81F40DDF850B01CB920464E
:103380000BB0BDE8F08F089D008F03F043FD95ED75
:10339000007B02460B4651EC170B8DED007BCDE90F
:1033A0000223D5E9028903F0F7FB002206460F4607
:1033B00000234046494603F0EFFB3246CDE90401C5
:1033C0003B463046394603F09BFDDDE904230646C3
:1033D0000F461046194603F093FD02460B46304651
:1033E000394603F0DBFB41EC100B03F09FFADDE9FB
:1033F000006700223046394600238DED040B04F0AF
:1034000005F8002800F09A800022554B30463946D6
:1034100003F0C4FB04F024F8ABF800000022002302
:103420004046494603F0F2FF002800F09080002259
:103430004B4B4046494603F0B1FB04F011F8012C18
:10344000ABF8020076D9023CE4B2013405EB041378
:10345000AA4606931EE04046494603F09FFB03F050
:10346000FFFF00220023ABF800003946304603F08E
:10347000CDFF00223A4B002853D03046394603F0A6
:103480008DFB03F0EDFFABF80200069B0AF1100A7A
:103490009A454FD0DAE90489DDE9022340464946DE
:1034A00003F07AFBDAE9066704460D4600220023A2
:1034B0003046394603F070FB2246CDE900012B4629
:1034C0002046294603F01CFDDDE9002304460D4695
:1034D0001046194603F014FD02460B4620462946C5
:1034E00003F05CFB41EC100B03F020FADDE9040172
:1034F00053EC102B03F094FF002200230028C4D0CB
:103500004046494603F082FF0022154B0028A2D115
:103510000022134B4046494603F03EFB03F0A0FF58
:103520009FE700220E4B3046394603F035FB03F08F
:1035300097FFA8E701200BB0BDE8F08F0022084BF1
:10354000DDE9000103F028FB03F08AFF64E70022B5
:10355000034B4046494603F01FFB03F081FF6EE733
:103560000000E03F2DE9F04FB0F814B089B080467C
:1035700003A880E80E00BBF1000F00F0CD800BF136
:10358000FF3A1FFA8AFAD8F81890002400250AF1A9
:10359000010A26462F4609EB8A0AB9F8000003F013
:1035A00039FC02460B463046394603F0F7FA064628
:1035B000B9F802000F4603F02DFC02460B462046E8
:1035C000294603F0EBFA09F10409D14504460D46FA
:1035D000E3D1584603F01EFC82468B4630463946FE
:1035E00052465B4603F0B6FD524606460F465B4622
:1035F0002046294603F0AEFD002204460D46002376
:103600003046394603F002FF002875D030460022CC
:10361000464B394603F0C2FA03F022FF0646002269
:10362000002320462946B6B203F0F0FE10B3002274
:103630003E4B2046294603F0B1FA03F011FF07ABD9
:10364000A8F83A00A8F83860009303AB0ECB4046C8
:10365000FFF78AFEB8B998F828302BB9002388F80C
:10366000283009B0BDE8F08FD8F83030002BF5D005
:103670009847F3E700222D4B2046294603F08CFAA9
:1036800003F0EEFEDBE7079908F11000FDF79EF866
:103690000028E0D098F82830C3B3B8F81430BDF84B
:1036A0001C10B8F83850BDF81E20B8F83A40B3B135
:1036B000581E80B2D8F818300130141B4D1B03EB94
:1036C00080009A1C32F8021C294422F8021C5988F6
:1036D000214459800433984202F10402F2D1D8F80F
:1036E00034301BB1984798F828307BB1012388F813
:1036F000283009B0BDE8F08F304600220B4B394628
:1037000003F04AFA03F0ACFE064688E7D8F82C30FE
:10371000002BEBD09847E9E74FF0000A4FF0000B81
:1037200054465D4656465F4658E700BF0000E03FFE
:10373000024A0260002242608260704750820000AC
:1037400010B4044C04600022C160426082605DF8E5
:10375000044B7047B482000010B5002382B00446C9
:10376000037043708370C3704360836032B1012380
:10377000817042600370204602B010BD08010191C3
:1037800003F0F0FE0028F6D0012301996060A170DB
:10379000237063702B21034802F088F8024802F07E
:1037A00005FBE8E7C48200003427FF1F30B50C4654
:1037B00089B04D4A05210546FFF7CEFF616801A893
:1037C00000F012F99DF80430EB70013B042B7DD81A
:1037D000DFE803F0818385870300BDF916006C687C
:1037E00007EE900AF8EEE77A17EE900A03F034FB42
:1037F000BDF9183007EE903AF8EEE77AC4E9100107
:1038000017EE900A03F028FBC4E91201BDF912007B
:1038100007EE900AF8EEE77A17EE900A03F01CFB29
:10382000BDF9143007EE903AF8EEE77AC4E90C01DE
:1038300017EE900A03F010FBC4E90E01BDF90E006B
:1038400007EE900AF8EEE77A17EE900A03F004FB11
:10385000BDF9103007EE903AF8EEE77AC4E90801B6
:1038600017EE900A03F0F8FAC4E90A01BDF90A005C
:1038700007EE900AF8EEE77A17EE900A03F0ECFAFA
:10388000BDF90C3007EE903AF8EEE77AC4E904018E
:1038900017EE900A03F0E0FAC4E90601BDF906004C
:1038A00007EE900AF8EEE77A17EE900A03F0D4FAE2
:1038B000BDF9083007EE903AF8EEE77AC4E9000166
:1038C00017EE900A03F0C8FAC4E90201079BAB6047
:1038D000284609B030BD6C68E0E76C68C6E76C68E4
:1038E000ACE76C6892E700BF286BFF1F436883B1A9
:1038F00093F8412010B5044622B95A7912B993F8C9
:10390000400010BD184600F033FA636893F8400099
:1039100010BD1846704700BF024A02600022426094
:10392000704700BFF882000090F8392090F8380006
:10393000101A704790F8383090F839209A4205D91B
:103940005A1C034480F83820187E70474FF0FF302F
:10395000704700BF704700BF02780B789A4201D0D1
:1039600000207047B0F90220B1F902309A42F7D135
:10397000B0F90420B1F904309A42F1D1B0F906202F
:10398000B1F906309A42EBD1B0F90820B1F908300C
:103990009A42E5D1B0F90A20B1F90A309A42DFD152
:1039A000B0F90C20B1F90C309A42D9D1B0F90E20FF
:1039B000B1F90E309A42D3D1B0F91020B1F91030DC
:1039C0009A42CDD1B0F91220B1F912309A42C7D142
:1039D000B0F91420B1F914309A42C1D1837D887DA9
:1039E0001B1A584258417047F0B50B6989B00C4614
:1039F0000646002B3AD0B1F818E0BEF1000F35D0E2
:103A00004A7F002A32D0CD8A05F1010C1FFA8CFCC6
:103A1000C5EBC505A1F816C003EB85050FCD01AFB9
:103A20000FC7E645A38A98BF4FF0000C95E8070042
:103A300098BFA4F816C0634504BF00236377638B67
:103A40009BB287E807005A1E92B262830BB984F8D2
:103A5000403001AD0FCD37460FC795E80700012371
:103A600087E807003046237709B0F0BD002384F8CB
:103A7000403020340FCC35460FC594E8070085E868
:103A80000700304609B0F0BD704700BF2DE9F04790
:103A900006468AB00F468068317B01231F2200F062
:103AA000FDFB1F2809D00124204684225C49FFF732
:103AB000EBFF20460AB0BDE8F0875A4AB3681268A7
:103AC0000192019A1C68DFF86081DFF86091BA61A9
:103AD000002520E093F8394093F83830E41A5FFA73
:103AE00085FA14B3B3681C686169494528D193F815
:103AF000381093F839208A4201F1010E03EB0100DE
:103B000024D983F838E0B368007E1C680AAA5244BE
:103B1000013502F8200C22694245DBD01846904757
:103B200004465FFA85FA002CDCD19DF80A309DF836
:103B30000920BA7503F00F033B704BB90024B3E7BB
:103B400018468847B368C0B21C68DFE7FF20DDE78E
:103B50009DF80B009DF80C1000F00F0002F05CFACD
:103B60009DF80D3078809DF80E1003F00F0002F0E4
:103B700053FA3B78B880012BE0D99DF811009DF8ED
:103B8000121000F00F0002F047FA9DF81330F88091
:103B90009DF8141003F00F0002F03EFA3B783881D4
:103BA000022BCBD99DF817009DF8181000F00F00DC
:103BB00002F032FA9DF8193078819DF81A1003F05E
:103BC0000F0002F029FA3B78B881032BB6D99DF893
:103BD0001D009DF81E1000F00F0002F01DFA9DF868
:103BE0001F30F8819DF8201003F00F0002F014FA46
:103BF0003B783882042B7FF657AF9DF823009DF861
:103C0000241000F00F0002F007FA9DF825307882AA
:103C10009DF8261003F00F0002F0FEF9B88243E78A
:103C20000C830000AC6BFF1F293900003539000000
:103C3000FF2A70B504460D4611D01E467BB1002107
:103C40000123427310466171237100F029FF607BEC
:103C50004028314628BFFF20022200F08DFE284672
:103C6000A56000F039F9227BA3685200012183F896
:103C70003B2083F85E1083F85D10A0680368002184
:103C80001B689847A068036800211B689847217B40
:103C9000A06800F079FACE2202490020FFF7F4FE76
:103CA000002070BD0C8300002DE9F84F0469064622
:103CB0008846002C49D0038B002B46D09146002A21
:103CC0004BD0037F002B38D04FF0000CE646E34684
:103CD000858A4FF0010A08E01FFA81FEF1453CD0C9
:103CE000337F0CF11C0C43B334696B1CB38208EBBB
:103CF0000C070FCFC5EBC50504EB85040FC497E88F
:103D0000070084E80700738BB58A328B86F81DA004
:103D100001339BB2AA427383F38A9CBFA6F814B006
:103D20000025AB420EF10101D6D10EF1010E1FFAB2
:103D30008EFE0023F14533770FD99F220B490120D6
:103D4000FFF7A2FE0120BDE8F88FB8E80F0020368B
:103D50000FC698E8070086E80700A722034900205D
:103D6000FFF792FE0020BDE8F88F00BF0C83000033
:103D700030B589B001A90446FFF788FE0546F0B9C1
:103D8000134B84F841001B680093009BE36304F12C
:103D9000200101A8FFF7E0FD40B14FF4AA720D49E0
:103DA0000020FFF771FE284609B030BD01A90122AD
:103DB0002046FFF779FF012384F84030EDE740F219
:103DC00049120449FFF760FE284609B030BD00BF24
:103DD000AC6BFF1F0C830000704700BF08B50123C8
:103DE00080F84130FFF7F8FF40F26D1202490020E1
:103DF000FFF74AFE002008BD0C83000030B401220A
:103E00003825FF2442711249057300224473016072
:103E10000271826002618282C282028342830277DF
:103E20004277827780F8402080F84120C26380F892
:103E3000202042848284C284028542858285C28594
:103E400002864286828680F83620826330BC7047C4
:103E5000088300000020704790F8383090F839202F
:103E60009A4286BF1B18187E4FF0FF30704700BF84
:103E7000704700BF38B50546B0F85E0090B195F8C0
:103E80005D301446C3F1210294420CD805F13B0089
:103E90001844224600F0EEFB95F85D30234485F887
:103EA0005D30204638BD012014462871EEE700BF82
:103EB000B0F85E306BB190F85D30202B07D8C21897
:103EC000013380F85D30012082F83B1070470123F8
:103ED00003710020704700BF0023426980F838302A
:103EE00080F8393080F85C3080F85D3080F85E30E2
:103EF00080F85F3006CA30B40D68046943662A430F
:103F000083660A60A370426990F8613016491468AC
:103F100013441D7A5B7B01EBC5051B026D6803F43E
:103F2000E06343F064032B6090F8623013449D7C9F
:103F3000DB7D01EBC5011B02496803F4E06343F03C
:103F400064030B6021685368194205D003692C2271
:103F50005A70036904229A71036920225A71036915
:103F600080229A7030BC7047C890000038B5026952
:103F7000D478E4B2E106054624D51023D370630655
:103F80001FD504F0040404F0FF03002C5AD042496A
:103F90006A6E00230B7085F85D30002A66D090476A
:103FA00095F85D30002B61D02B69D0229A702B6977
:103FB00095F83B201A712B69012285F85C200222BA
:103FC000DA7038BD04F0400303F0FF00002BD8D1B5
:103FD0009379DBB203F0600160294ED0937803F04F
:103FE000100303F0FF01B3B114F0010437D195F8C9
:103FF0005C3095F85D1099424BD9591C2B4485F8DB
:104000005C1093F83B3013712B69D0229A702B69A6
:104010000222DA70D5E785F86010937943F0200327
:1040200093712B6995F839101A791F29D2B2C6D825
:10403000194800780028C2D06818013185F8391075
:104040000276BCE72A6985F83930C02393702B6962
:10405000114A1979012111700222DA70B1E7C023E7
:1040600093702B691A790222DA70AAE701220023E1
:1040700085F85D2085F83B3096E703F0DF03937108
:10408000AB6E23B185F8380095F8390098472A6956
:10409000A4E71471B8E700BF786BFF1F2DE9F04764
:1040A000374FDFF8E0903B68026982B00646009324
:1040B000DDF8008000214FF49675D3789B065BD520
:1040C0003B680193019BC8EB03030F2BF5D949B162
:1040D000102BF2D000209070336980229A7002B0C9
:1040E000BDE8F087726996F8613013440521187AAB
:1040F00000F0D6FC726996F861301344012193F800
:1041000012A0504600F0CCFC09240021504600F0DB
:10411000C1FC2B46013BFDD10121504600F0BAFC09
:104120002B46013BFDD1013CEFD1706996F861103F
:1041300001444FF416720C7A4B7B09EBC4011B024D
:10414000496803F4E06343F064030B6096F862305F
:104150000344997CDB7D09EBC1011B02496803F430
:10416000E06343F064030B60013AFDD13269D37818
:104170009B064FF00101A3D4012002B0BDE8F087F7
:10418000AC6BFF1FC8900000F0B503691222DA7013
:104190000269937803F0200385B004460D46002B96
:1041A0005ED0B42393703C4922690B680093009E53
:1041B00005E00B680193019B9B1B042B42D8D3782D
:1041C00003F0200303F0FF00002BF2D094F85D30E1
:1041D000002B31D04FF0000E4FF0020C04EB0E0319
:1041E00093F83B3013710B680393039F206907E03A
:1041F0009B060DD50B680293029BDB1B052B28D871
:10420000C378DBB203F0020202F0FF06002AEFD00F
:1042100080F803C02669F378DBB2DF0632462DD47E
:104220009F062BD5DB0731D40EF1010E94F85D30DB
:104230005FFA8EFE7345D1D800201DBB002384F8A1
:104240005E3004E09070236980229A70042005B0EB
:10425000F0BD86702369802204209A7005B0F0BDFD
:1042600003F0FF06FFF71AFF10B9042005B0F0BDF8
:10427000236984F85F60B0229A7094E78023B3705A
:104280000420DAE726698023B370D7E7BEF1000F78
:104290000CBF02200320F6E7AC6BFF1F2DE9F041B5
:1042A00006690025122780F8385080F83950F770D9
:1042B000D0F810C09CF802E00EF0200E88B0044642
:1042C000884615461E46BEF1000F49D0B4238CF82F
:1042D00002307A4B21691A680092DDF800E006E0AE
:1042E0001A6801920198CEEB0000042830D8C878F3
:1042F00000F0200000F0FF070028F1D04FEA48024C
:1043000042F00102D2B20A711A680292DDF808E0A6
:10431000206906E01A6803920399CEEB0101052992
:104320002AD8C17801F0020101F0FF070029F1D07D
:104330004FF0020C80F803C02269D17811F0110708
:1043400022D12DBB002E0CBFA0238023937003E04D
:104350008F70236980229A70384608B0BDE8F081DA
:104360000EF0FF07FFF79AFE0028F5D0236984F8C6
:104370005F70B0229A70ACE787702369802238465C
:104380009A7008B0BDE8F081802393700027E3E7BE
:10439000012D78D0A021917021690A79BE46674627
:1043A0004FF0A80C1A680492049805E01A68059268
:1043B000059A121A052A4DD8CA7802F0020202F0B4
:1043C000FF08002AF2D0CF702169CA78D2B212F069
:1043D000100F08465DD192065BD5013DEDB2012D6F
:1043E0004CD0BEF11F0F3ED90A79012DDAD11A68DF
:1043F0000692069D05E01A680792079A521B052A45
:1044000056D8C27802F0020202F0FF01002AF2D070
:104410000223C3702269D378DBB2D9063BD49B0652
:1044200037D5B023BEF11F0F937043D8226904EB38
:104430000E0312791A760EF1010E5FFA8EFE00BF9E
:1044400000BF00BF16B1236980229A7084F839E05A
:10445000774681E781F80280236980229A70774647
:1044600084F839E078E704EB0E0291F8048082F8D2
:1044700018800EF1010E5FFA8EFEB6E781F802C0D9
:1044800021690846ADE7A82191702069BE460279EE
:10449000ADE7774660E710214FF49673D170013B8A
:1044A000FDD12269937803F0F7037746937053E7C1
:1044B0008170D1E723691B79C1E700BFAC6BFF1F97
:1044C0000148FFF753BD00BFA024FF1F0148FFF7BD
:1044D0004DBD00BF0C25FF1F0148FFF747BD00BFC2
:1044E0003424FF1F002380E80A008360704700BF68
:1044F00082680068101AB0FA80F04009704700BF67
:104500008068B0FA80F04009704700BF4168836856
:1045100002680B4493FBF2F002FB1030704700BFBF
:104520004368826810B404680133013A93FBF4F1E4
:1045300004FB1133436082605DF8044B704700BF99
:1045400083680268934202D00133836070474268F7
:10455000013292FBF3F103FB11234360704700BF6C
:104560004068704711F0FD0F07BF42898389828937
:1045700043890172C2810382704700BF8174704712
:1045800070B41B4E8A683368002BB6BF00235C00F2
:104590001C4680B2145BB8BF3360844213D015D27E
:1045A0004D88AB420DDA02EB4302591C03E032F8AE
:1045B000024F844218D08D420B4601F10101F6D121
:1045C00035604FF0FF33184670BC704702EB430272
:1045D00003E032F8021D814206D013F1FF33F8D216
:1045E00033604FF0FF33EEE73360184670BC70471E
:1045F0007C6BFF1F38B553788B4201D8002038BD43
:104600000D4611461446FFF7BBFF0028F6DB637822
:10461000E26800FB0320405D38BD00BF10B50446D2
:1046200001F0AEFA204610BD38B50C4D0C4C0D48CB
:104630002A46214602F05CFF2A4621460A4802F03B
:1046400057FF2A462146094802F052FF2A462146D2
:104650000748BDE8384002F04BBF00BF0C24FF1FE5
:104660001D4600009C6BFF1FA46BFF1F886BFF1F84
:10467000806BFF1F844641EA000313F003036DD1F2
:10468000403A41D351F8043B40F8043B51F8043B15
:1046900040F8043B51F8043B40F8043B51F8043B1C
:1046A00040F8043B51F8043B40F8043B51F8043B0C
:1046B00040F8043B51F8043B40F8043B51F8043BFC
:1046C00040F8043B51F8043B40F8043B51F8043BEC
:1046D00040F8043B51F8043B40F8043B51F8043BDC
:1046E00040F8043B51F8043B40F8043B51F8043BCC
:1046F00040F8043B51F8043B40F8043B51F8043BBC
:1047000040F8043B403ABDD2303211D351F8043B5B
:1047100040F8043B51F8043B40F8043B51F8043B9B
:1047200040F8043B51F8043B40F8043B103AEDD20A
:104730000C3205D351F8043B40F8043B043AF9D25B
:10474000043208D0D2071CBF11F8013B00F8013B2E
:1047500001D30B8803806046704700BF082A13D33B
:104760008B078DD010F003038AD0C3F10403D21A53
:10477000DB071CBF11F8013B00F8013B80D331F887
:10478000023B20F8023B7BE7043AD9D3013A11F807
:10479000013B00F8013BF9D20B7803704B78437072
:1047A0008B7883706046704708B5104C08E023682A
:1047B00059050DD423681A050FD42368DB0411D4DE
:1047C00023685803F3D500F031FB23685905F1D570
:1047D00001F04CFD23681A05EFD501F0DDFD2368DB
:1047E000DB04EDD501F06EFEEAE700BF3480044043
:1047F00008B5FFF7D9FF00BF014B10221A807047A0
:1048000000200540704700BF094908B50B6830B16A
:104810006A461844A2F50052904202D20860184637
:1048200008BD02F071FE0C2303604FF0FF3008BD9D
:104830007825FF1F0078B0FA80F04009704700BF6C
:1048400001230370704700BF084A1378802B01D002
:10485000002070470649074B07480860002119707F
:104860001378802BFCD00120704700BF03E0074085
:104870004480044001E0074000002822094A1378E0
:10488000012B01D00020704703F1804303F5FC2386
:10489000602119701378802BFCD1034B034A1A60F6
:1048A0000120704703E007404480044000000602F6
:1048B000704700BF10B4114B53F8302092F880427B
:1048C00034B1012379B182F880305DF8044B704730
:1048D00003EBC0035B681A6851B922F002021A6048
:1048E0005DF8044B704782F800315DF8044B704767
:1048F00042F003021A605DF8044B7047C890000054
:104900001C4A02EBC00301295B6811D004291BD0AB
:1049100052F83000002280F8802229B1022920D0EC
:10492000032922D01A6070474FF480721A607047D2
:1049300052F830004FF4A27280F880121A601A68A0
:1049400022F020021A60704752F830104FF4A27221
:10495000012081F880021A601A6842F020021A6071
:10496000704740F203121A6070474FF481721A6068
:10497000704700BFC89000003F2817D8F8B5042A38
:1049800013D8DFE802F0494C4F1446002C4872B6A9
:10499000236823F4702343F08072C4F38401164328
:1049A000236040F82150266062B6F8BD70474FF48E
:1049B0001026244B03EBC0030D465C68216811F4FC
:1049C000E06134D0204B214A2149C3F82C2104F165
:1049D00040422048C3F83411A2F592211E4FC3F87B
:1049E00030017C291D48C3F83871C3F83C01CDD98A
:1049F000A2F594237C2B18D9A2F596237C2B19D9E8
:104A0000A2F598237C2B17D9A2F59A227C2A15D9D6
:104A1000F8BD4FF43026CCE74FF40026C9E74FF439
:104A20004026C6E74FF42026C3E70D48AFE7FFF75F
:104A300067FFC7E70B48AAE70B48A8E70B48A6E7BC
:104A40007C25FF1FC8900000001EFF1FE123FF1FF1
:104A50008923FF1FB523FF1F5D23FF1F3123FF1F86
:104A6000F425FF1F5426FF1F8426FF1FC426FF1FA7
:104A700030B4054B054D064C002210211A602A6007
:104A80002060196030BC704714D0034004D003404C
:104A900000D003403F2801D8FFF70CBF704700BF8C
:104AA0003F2801D8FFF72CBF704700BF2DE9F8431E
:104AB000054672B6224F234B234A1B683C68126896
:104AC00062B6520102D5322B88BF0134B5B3C3F5AB
:104AD0002F3303F21F331D4EDFF86890DFF8688034
:104AE0009B084FF47A72A6FB031302FB04F404EB59
:104AF000930472B6D9F800103A68D8F800E062B6AC
:104B0000C1F52F3303F21F339B08A6FB03031EF0EE
:104B1000806FC4EB93034FF47A7002D0322988BFC0
:104B2000013200FB0233B3F57A7F04D3013D05D097
:104B300004F57A74DDE701F091FADAE7BDE8F8836D
:104B4000AC6BFF1F18E000E004ED00E0176CC1162D
:104B5000F8B54E4B4E48DFF85CC14E4C4E49DFF87D
:104B600058E14E4E4E4D4F4F4FF000621A604FF0DD
:104B700080521A604FF000521A604FF080421A6063
:104B80004FF000421A600022026028234EF6FF70A8
:104B9000CCF80000CEF8003023600EF5012E0B603B
:104BA00033602B6006F500263B6005F50025A36207
:104BB00007F500278B6204F5012401F5012106F6B3
:104BC000E87605F6E87507F57F6710310EF1100EEF
:104BD000203433602B60CEF800303B600B602360E4
:104BE000314CBB618B6109212160A7F5002704F5D9
:104BF0008054203F08343A602060BB60E36047F88F
:104C0000041C04F5FD2407F5FE27043704F2FC74A8
:104C100022603860A360FB6044F8041C083404F68A
:104C2000FC74C7F8FC2F2060A4F5E124A4F2DC7426
:104C300033602B60C7F8F81F21681C4841F40071ED
:104C4000216001681A4C0EF57F4E0EF1E80E07F553
:104C5000883706F5803605F5803541F00071016032
:104C6000CEF8002047F6FF710822396033602B60D0
:104C7000226001F055FA1920FFF718FF00F002FD3D
:104C800040F21310BDE8F840FFF710BF04E100E068
:104C900004800340148003401C80034024800340B0
:104CA0002C80034034800340008003400480044093
:104CB00000900C40088003400C800340431E032BEF
:104CC00014D872B60A4951F8230068B170B4094C7F
:104CD000058834F81320466841F82360521B24F8F5
:104CE000132062B670BC704762B6704700207047F0
:104CF000086CFF1F0070FF1F013803280BD872B625
:104D0000074B53F8203043B100205B680130002B83
:104D1000FBD162B67047002070471846F9E700BF24
:104D20005C6CFF1FF0B472B61A491B4E012311F8D8
:104D3000014B194F9A00240742F0010505D556F89A
:104D4000324064B156F83520BAB10133052BEED1AB
:104D500062B6124B00221A70F0BC00F01BBD0F4C63
:104D60000F4D217847F8325007EB431308304A1EA5
:104D70005860227062B6F0BC70470849094B0A7847
:104D800047F8353007EBC5030830013A58600A7020
:104D900062B6F0E7009300000000FF1F856CFF1F64
:104DA00088004000C8004000431E032B1DD81B4A4A
:104DB000400140F0100030B4104472B6184CE25C70
:104DC000032A1BD8DFE802F00212151703220D8810
:104DD000E25410F0080F14BFC823882343EA0543A8
:104DE00008310360416062B630BC7047083002226F
:104DF000EDE70522EBE708300422E8E7094A52F81C
:104E0000230038B1084A52F82300416042F82310C9
:104E100062B6E9E742F82310034AF7E70000FF1FF4
:104E2000946CFF1F5C6CFF1F6C6CFF1F2DE9F04F33
:104E3000DFF804A3DFF804B387B044E0A94F4FEADA
:104E4000930807EBC809013ED9F8042003F00803D2
:104E5000F6B2A2F1080003F0FF04002B40F0FE8040
:104E600057F838301B0C99B222F8081C002B00F0C0
:104E7000EC809D4B22F8064C42F8044C53F8262057
:104E8000002A00F02B82994D55F826305860984C36
:104E900045F8260034F81630194424F8161000F0AE
:104EA00059FC002800F01382924A934B19F0080F26
:104EB00000F1080018BF1346C9F8040047F838305D
:104EC00008238AF800309AF80040E4B260071AD547
:104ED0008A4B1B78A3B18A490A7802F0FF0322B1FA
:104EE000013BDBB20B7003B900BE86490A7802F0C1
:104EF000FF032AB1013BDBB20B70002B00F0BD8138
:104F000004238AF8003004F0080303F0FF02002BAA
:104F100000F0C8809BF80030DBB21E098ED19C08DF
:104F2000704F57F8342007EBC401C2F38302013AF3
:104F300049680C2A00F28580DFE802F079798383E2
:104F40008383838342838383070008686E4B6F4D9E
:104F50000193684B4A686E4E47F8343081B240F294
:104F60008164694B6A60286000220120A1421A60B6
:104F70003A61BA61307000F2E380B1F5D06F80F031
:104F80002782B1F5817F00F0E08100F2C3818029A2
:104F900000F03682822940F0DE81A9885D4B01F065
:104FA0007F01042900F2D8815B4C89000B442270F8
:104FB00062701A78930740F122832070022023E266
:104FC000514B01931A683AB3544B514E54491888C7
:104FD00034780D784028864645F0020828BF4FF007
:104FE000400E002C84F001043470CEEB00000CBFA6
:104FF0008824C82407EBC80680B285F0010544EA7E
:105000000E447260188047F8384072440D700028D2
:1050100000F0B780019B1A603C4B1A88B2F5A06F74
:105020000FD100219A7859703E4B1A7009E0374A27
:10503000108842F22102904200F0A8802D4A47F8E1
:105040003420394A012313703AE72A4A2A4B19F0CF
:10505000080F18BF134647F8383031E700F09AFBC5
:10506000324A334952F82630002B00F03B81586811
:105070008C5D42F8260003F10802C9F80420032CD5
:1050800005D8DFE804F02C02292602228A551A8866
:1050900019F0080F0CBF8823C82343EA024347F8DE
:1050A00038300DE7E00700F1EB80210600F12881A0
:1050B000A20706D51F4A204913780220DBB21370DD
:1050C0000870E30602D51C4B10221A7007B0BDE829
:1050D000F08F04228A55DAE705228A55D7E70322A2
:1050E0008A55D4E70000FF1F086CFF1FB46BFF1F39
:1050F0000070FF1FC800400088004000906CFF1F38
:10510000196CFF1F986CFF1FB06BFF1F7C6CFF1F9B
:10511000186CFF1FC0200740886CFF1FC46BFF1F67
:10512000846CFF1F98200740942007405C6CFF1F91
:10513000946CFF1F88200740802007409020074084
:1051400042F22104A14200F0948043D8B1F5086FE7
:1051500000F0A881B1F5106F40F0FD80B84AB94C5D
:10516000A978117004F1800503E00834AC4200F026
:105170009E81236A1906F8D5606A083800F00AFB98
:10518000F3E7BEF1400F18BF002243E7AE4ACD1D42
:1051900011F8013B02F8013FA942F9D1AB4A12686C
:1051A000862A00F01181AA49AA4E0A78307882F046
:1051B0000105002842F002020D700CBF8821C821B1
:1051C00047F8321007EBC20280F001000021307076
:1051D000516033E742F22124A14240F0FE81DFF822
:1051E000BCC29D4B9D49AC78DCF800501D608146E7
:1051F0000C700020029080468446044694490D7845
:1052000045F0020E07EBCE03B9F1000F5C600CBF56
:105210008824C82444EA080385F0010447F83E3096
:1052200032700C70DFF81CE28A4BDFF82482002811
:1052300040F09880BCF1400F1BD144F0020407EB12
:10524000C403029FDFF8FCE15F60002A40F09F800A
:10525000020442F0880207444EF8342086F8009099
:105260000D703B46402804D100207D4A01991080F2
:105270000B607C4A01231370E3E600F0F7FB3FE686
:10528000704B784872491A614FF0020E80F800E0C6
:10529000754F0A70754919609960754E754D764C59
:1052A0009A610D213970FF213170DFF8F4E1297026
:1052B0002270724D724A8EF800109F27012406F862
:1052C000047C5D600470DA6007B0BDE8F08F6D4A61
:1052D00047F83800137801331370F1E543F82600DE
:1052E000694DD4E58B5D032B67D801A252F823F0FA
:1052F000C14E0000C14E0000455300003F53000066
:1053000059495C4B80220D2008701A70A2077FF566
:10531000D8AECFE640F20232914240F05681A988E1
:1053200001F07F01042916D86A88A2B94E4C890081
:105330000C448146217841F00201217059E7012394
:105340008B55BDE500238B55BAE5A98801F07F0197
:10535000042940F24781444B0F221A70414A01232D
:1053600013706EE640287FF668AF44F002040EEB3F
:10537000C401029E4E60AAB1444A83F800903346AD
:10538000403888F8005040334EF834206DE702046E
:10539000029B86F8009042F0C8020D7003444EF85C
:1053A00034205FE783F80090029B304A88F8005071
:1053B000403840334EF8342057E719F0080F0CBF3F
:1053C000022303238B557BE5314A0F211170EAE656
:1053D000304A5468002CBED06888B5F804E003E079
:1053E0000C325468002CB6D013888342F8D153880D
:1053F0007345F5D1000A03280CBF2078108903E01B
:10540000254C022022706270EA88824280F00C8172
:105410000F490D78402A45F0020E944607EBCE0066
:1054200028BF4FF0400C04EB0C0344600293CCEB1C
:1054300002004FEA0C484FF001090022C824E9E6B7
:10544000906CFF1F0000FF1F0770FF1F0870FF1FF9
:10545000846CFF1F186CFF1F1070FF1FA86CFF1FCC
:10546000C46BFF1F94200740C02007408800400005
:10547000882007408020074098200740C86BFF1F06
:105480001C6CFF1F856CFF1FB46BFF1FC800400022
:10549000196CFF1F04930000886CFF1FAC6BFF1F8B
:1054A0008C200740684A694C12782270ACE7684942
:1054B000684B694A02916949694C6A4D03940596A3
:1054C0004FF0000988461C4616460495206828B10E
:1054D000456800F05FF92846002DF9D100232360CC
:1054E000049B30681A46002342F8293028B14568E9
:1054F00000F050F92846002DF9D100223260029ABE
:1055000098F800301146002241F8042B039A0291CA
:10551000023B4FF0000122F81910032B07D8DFE8F7
:1055200003F0340234024FF0010388F8003009F12F
:105530000109B9F1040F04F1040406F1040608F1AD
:105540000108C3D1484B059EDFF83091DFF8308168
:1055500000211970012518F8013B09F8043B1A07CE
:1055600018D4AC0044F0020244F00304002347F8CE
:10557000323047F834303D4B994505F10105EAD109
:1055800096F8009089F0010233E64FF0000388F8A6
:105590000030CCE700F0DEF8AC0007EB451300F17B
:1055A0000802002837D05A60314B47F8343000F0F9
:1055B000D1F844F0010307EBC30200F1080100B386
:1055C00051602C4A47F83320CCE7B1F5A06F7FF447
:1055D000C2AE00224FF001090BE642F221329142A5
:1055E000F7D0B8E66A88002A7FF4B5AE224C89006D
:1055F0000C448146217821F002012170F9E5022056
:1056000002E7194B44F001021B7847F83200164AB2
:1056100001331370A6E7144B134A1B78AC00013317
:1056200047F834001370C2E74028844628BF4FF083
:10563000400C04EB0C03CCEB00004FEA0C48029347
:1056400000224FF00109D9E5906CFF1F886CFF1F05
:105650006C6CFF1F086CFF1F5C6CFF1F946CFF1FBE
:105660000070FF1FB46BFF1F856CFF1FD420074025
:1056700088004000C8004000C0200740C420074008
:10568000009300002DE9F041274C01F001F90022C0
:1056900004F1880023461A605A60083383424FF0B1
:1056A0000001F8D12148224A0368DFF89CE0214E2E
:1056B000214D224FDFF894C0DFF8948043F480231B
:1056C0000360136843F04073136003238EF80030C7
:1056D000A023337002F5C922C4F3072300F5283054
:1056E0002B708030C4F3074310323B70240EFF232D
:1056F0000470134D8CF80030124888F80030137095
:10570000012306F8AC3C4FF400140EF8441C70263C
:10571000102107F82C3C2E70046082F8F810AEF1CE
:10572000440EBDE8F08100BF0000FF1F348004403C
:1057300000D80040402107409C200740B02007408F
:1057400035E400E004E100E0442107408020074008
:105750008820074072B60D480268B2FA82F30B2B1C
:1057600010DC4FF00041D94022EA0102026062B62B
:10577000074803EBC303DB00C2180021C1501046E9
:105780005160704762B60020704700BF3027FF1F8E
:10579000D01FFF1F0D4B0E4AC31AA2FB03231B0988
:1057A0000B2B0CD80B4A127852B972B60A484FF03C
:1057B0000041026821FA03F31A43026062B670479F
:1057C000064A1278002AF0D0FFF7ACBAD01FFF1FAC
:1057D000398EE338856CFF1F3027FF1F906CFF1F49
:1057E00038B50F4D286878B143880288C118013355
:1057F00093420C7A02D24380204638BDFFF7CAFF9D
:10580000002320462B6038BD064B1B782BB10320AC
:10581000FFF754FA28600028E6D14FF0FF3038BD7A
:10582000A46CFF1F906CFF1F10B5094C206818B1C5
:1058300043881844007A10BD064B1B782BB1032017
:10584000FFF73CFA20600028F2D14FF0FF3010BD86
:10585000A46CFF1F906CFF1F044B054A1B689088C7
:105860001BB11A885B88D31A18447047A46CFF1FB9
:105870000070FF1F0B4B1B789BB110B50A4C2068C2
:1058800048B1FFF787FF002303202360FFF716FAD4
:1058900030B1FFF77FFF0320FFF710FA0028F8D19F
:1058A00010BD7047906CFF1FA46CFF1F2DE9F04FD7
:1058B000DFF8F89083B0012289F80020019169B3E4
:1058C000DFF8EC80354F019E8346D8F80000B0B376
:1058D000334D4488C4F14001B14228BF314604EB46
:1058E000010E00221FFA8EFE2A70761AA0F802E03E
:1058F00000F1080251B1013C224459441BF8014B0C
:1059000002F8014F8B45F9D1B0F802E0BEF13F0F2C
:105910000BD8244A05211170002ED6D101980023FE
:1059200089F8003003B0BDE8F08F402202800146C4
:105930000420FFF739FA0022C8F80020E9E73A7896
:1059400022B3194C164D4FF0010A07E0013C16D066
:105950002A78A2B900F082FB3A78BAB10420FFF7A6
:10596000CBF90728F2D889F800A0FFF7F3FEC8F8B2
:1059700000000028ADD10D4B013C1870E8D1012387
:105980004FF0FF302B7003B0BDE8F08F00234FF0D5
:10599000FF3089F8003003B0BDE8F08F906CFF1F36
:1059A000A06CFF1F986CFF1F21480100996CFF1F1E
:1059B0009C6CFF1F00B583B002AB012103F8010D01
:1059C0001846FFF773FF03B05DF804FB38B50E4DC2
:1059D0000E4C28680123237028B1408800232370CF
:1059E000C0F1400038BD0A4B1B7813B9002020706D
:1059F00038BD0420FFF780F90728F7D8FFF7AAFE83
:105A000028600028E9D1F1E79C6CFF1F996CFF1F0B
:105A1000906CFF1FF8B5114B1B788BB1104E114DD8
:105A2000346801272F7064B10F4A6388002717700C
:105A3000214623800420FFF7B7F9376000232B703D
:105A4000F8BDFFF787FE084B28B1014604201C7003
:105A5000FFF7AAF9F2E71F70F0E700BF906CFF1F95
:105A60009C6CFF1F996CFF1F986CFF1F38B50E4B85
:105A70001B7873B90D4C216861B103F0FF054B88A9
:105A80000B800420FFF790F9256038BD084B0122F8
:105A90001A7038BDFFF75EFE0028F7D00146BDE85A
:105AA00038400420FFF780B9996CFF1F9C6CFF1FE2
:105AB000986CFF1FF0B572B699B902688AB1037984
:105AC0000F2B0ED8284C218841FA03F5ED070AD593
:105AD00003F1007303F59063B2EB431F03D162B689
